{
	"data": {
		"bytecode": {
			"linkReferences": {},
			"object": "608060405260006007553480156200001657600080fd5b506040516200598f3803806200598f83398181016040528101906200003c919062000446565b6040518060400160405280601181526020017f546f74616c2052657475726e20537761700000000000000000000000000000008152506040518060400160405280600381526020017f54525300000000000000000000000000000000000000000000000000000000008152508160009080519060200190620000c092919062000351565b508060019080519060200190620000d992919062000351565b505050620000fc620000f06200028360201b60201c565b6200028b60201b60201c565b82600860006101000a81548173ffffffffffffffffffffffffffffffffffffffff021916908373ffffffffffffffffffffffffffffffffffffffff16021790555081600960006101000a81548173ffffffffffffffffffffffffffffffffffffffff021916908373ffffffffffffffffffffffffffffffffffffffff16021790555080600a60006101000a81548173ffffffffffffffffffffffffffffffffffffffff021916908373ffffffffffffffffffffffffffffffffffffffff1602179055506000640800000000640200000000641000000000640400000000640100000000600117171717179050600860009054906101000a900473ffffffffffffffffffffffffffffffffffffffff1673ffffffffffffffffffffffffffffffffffffffff1663ad3915c8826040518263ffffffff1660e01b8152600401620002459190620004b3565b600060405180830381600087803b1580156200026057600080fd5b505af115801562000275573d6000803e3d6000fd5b5050505050505050620005ee565b600033905090565b6000600660009054906101000a900473ffffffffffffffffffffffffffffffffffffffff16905081600660006101000a81548173ffffffffffffffffffffffffffffffffffffffff021916908373ffffffffffffffffffffffffffffffffffffffff1602179055508173ffffffffffffffffffffffffffffffffffffffff168173ffffffffffffffffffffffffffffffffffffffff167f8be0079c531659141344cd1fd0a4f28419497f9722a3daafe3b4186f6b6457e060405160405180910390a35050565b8280546200035f9062000536565b90600052602060002090601f016020900481019282620003835760008555620003cf565b82601f106200039e57805160ff1916838001178555620003cf565b82800160010185558215620003cf579182015b82811115620003ce578251825591602001919060010190620003b1565b5b509050620003de9190620003e2565b5090565b5b80821115620003fd576000816000905550600101620003e3565b5090565b6000815190506200041281620005a0565b92915050565b6000815190506200042981620005ba565b92915050565b6000815190506200044081620005d4565b92915050565b6000806000606084860312156200046257620004616200059b565b5b600062000472868287016200042f565b9350506020620004858682870162000418565b9250506040620004988682870162000401565b9150509250925092565b620004ad816200052c565b82525050565b6000602082019050620004ca6000830184620004a2565b92915050565b6000620004dd826200050c565b9050919050565b6000620004f182620004d0565b9050919050565b60006200050582620004d0565b9050919050565b600073ffffffffffffffffffffffffffffffffffffffff82169050919050565b6000819050919050565b600060028204905060018216806200054f57607f821691505b602082108114156200056657620005656200056c565b5b50919050565b7f4e487b7100000000000000000000000000000000000000000000000000000000600052602260045260246000fd5b600080fd5b620005ab81620004d0565b8114620005b757600080fd5b50565b620005c581620004e4565b8114620005d157600080fd5b50565b620005df81620004f8565b8114620005eb57600080fd5b50565b61539180620005fe6000396000f3fe608060405234801561001057600080fd5b50600436106101cf5760003560e01c80636352211e11610104578063adfd537f116100a2578063e985e9c511610071578063e985e9c51461058d578063f2fde38b146105bd578063f95d4149146105d9578063fc0c546a14610609576101cf565b8063adfd537f146104e1578063b88d4fde14610511578063c87b56dd1461052d578063d86ed3e51461055d576101cf565b8063884d1f40116100de578063884d1f40146104595780638da5cb5b1461048957806395d89b41146104a7578063a22cb465146104c5576101cf565b80636352211e146103ef57806370a082311461041f578063715018a61461044f576101cf565b80632986c0e51161017157806342842e0e1161014b57806342842e0e1461035757806353c11f991461037357806357ae14a4146103a35780635f9e7d77146103bf576101cf565b80632986c0e5146102d65780632f066600146102f457806330d9c91514610327576101cf565b8063095ea7b3116101ad578063095ea7b3146102525780631991cc221461026e578063230dbd291461028a57806323b872dd146102ba576101cf565b806301ffc9a7146101d457806306fdde0314610204578063081812fc14610222575b600080fd5b6101ee60048036038101906101e9919061372b565b610627565b6040516101fb9190613fe3565b60405180910390f35b61020c610709565b60405161021991906141ff565b60405180910390f35b61023c600480360381019061023791906139a6565b61079b565b6040516102499190613f2a565b60405180910390f35b61026c60048036038101906102679190613664565b610820565b005b610288600480360381019061028391906136d1565b610938565b005b6102a4600480360381019061029f919061388a565b610c66565b6040516102b19190614042565b60405180910390f35b6102d460048036038101906102cf919061354e565b610ca3565b005b6102de610d03565b6040516102eb9190614561565b60405180910390f35b61030e600480360381019061030991906139a6565b610d09565b60405161031e94939291906141ba565b60405180910390f35b610341600480360381019061033c91906137ce565b610d66565b60405161034e9190614042565b60405180910390f35b610371600480360381019061036c919061354e565b610da3565b005b61038d6004803603810190610388919061388a565b610dc3565b60405161039a9190614042565b60405180910390f35b6103bd60048036038101906103b891906134e7565b6112c2565b005b6103d960048036038101906103d491906137ce565b611535565b6040516103e69190614042565b60405180910390f35b610409600480360381019061040491906139a6565b611572565b6040516104169190613f2a565b60405180910390f35b6104396004803603810190610434919061347a565b611624565b6040516104469190614561565b60405180910390f35b6104576116dc565b005b610473600480360381019061046e91906137ce565b611764565b6040516104809190614042565b60405180910390f35b6104916117a1565b60405161049e9190613f2a565b60405180910390f35b6104af6117cb565b6040516104bc91906141ff565b60405180910390f35b6104df60048036038101906104da9190613624565b61185d565b005b6104fb60048036038101906104f691906134a7565b611873565b6040516105089190613ffe565b60405180910390f35b61052b600480360381019061052691906135a1565b6118a6565b005b610547600480360381019061054291906139a6565b611908565b60405161055491906141ff565b60405180910390f35b6105776004803603810190610572919061388a565b6119af565b6040516105849190614042565b60405180910390f35b6105a760048036038101906105a291906134a7565b6119ec565b6040516105b49190613fe3565b60405180910390f35b6105d760048036038101906105d2919061347a565b611a80565b005b6105f360048036038101906105ee91906136d1565b611b78565b6040516106009190614561565b60405180910390f35b610611611b90565b60405161061e91906140a7565b60405180910390f35b60007f80ac58cd000000000000000000000000000000000000000000000000000000007bffffffffffffffffffffffffffffffffffffffffffffffffffffffff1916827bffffffffffffffffffffffffffffffffffffffffffffffffffffffff191614806106f257507f5b5e139f000000000000000000000000000000000000000000000000000000007bffffffffffffffffffffffffffffffffffffffffffffffffffffffff1916827bffffffffffffffffffffffffffffffffffffffffffffffffffffffff1916145b80610702575061070182611bb6565b5b9050919050565b60606000805461071890614915565b80601f016020809104026020016040519081016040528092919081815260200182805461074490614915565b80156107915780601f1061076657610100808354040283529160200191610791565b820191906000526020600020905b81548152906001019060200180831161077457829003601f168201915b5050505050905090565b60006107a682611c20565b6107e5576040517f08c379a00000000000000000000000000000000000000000000000000000000081526004016107dc90614401565b60405180910390fd5b6004600083815260200190815260200160002060009054906101000a900473ffffffffffffffffffffffffffffffffffffffff169050919050565b600061082b82611572565b90508073ffffffffffffffffffffffffffffffffffffffff168373ffffffffffffffffffffffffffffffffffffffff16141561089c576040517f08c379a0000000000000000000000000000000000000000000000000000000008152600401610893906144a1565b60405180910390fd5b8073ffffffffffffffffffffffffffffffffffffffff166108bb611c8c565b73ffffffffffffffffffffffffffffffffffffffff1614806108ea57506108e9816108e4611c8c565b6119ec565b5b610929576040517f08c379a000000000000000000000000000000000000000000000000000000000815260040161092090614381565b60405180910390fd5b6109338383611c94565b505050565b6000600b6000838152602001908152602001600020549050600061095b82611572565b90506000600c6000848152602001908152602001600020905060008160000160009054906101000a9004600b0b90506000600960009054906101000a900473ffffffffffffffffffffffffffffffffffffffff1673ffffffffffffffffffffffffffffffffffffffff1663e6a1e888600a60009054906101000a900473ffffffffffffffffffffffffffffffffffffffff1630876040518463ffffffff1660e01b8152600401610a0d939291906140c2565b60806040518083038186803b158015610a2557600080fd5b505afa158015610a39573d6000803e3d6000fd5b505050506040513d601f19601f82011682018060405250810190610a5d91906139d3565b505091505060008282610a709190614730565b9050600081600b0b13610ab7577f08c379a0afcc32b1a39302f7cb8073359698411ab5fd6e3edb2c02c0b5fba8aa604051610aaa90614481565b60405180910390a1610af9565b60008460000160006101000a8154816bffffffffffffffffffffffff0219169083600b0b6bffffffffffffffffffffffff160217905550610af88582611d4d565b5b600084600201548560030160009054906101000a900473ffffffffffffffffffffffffffffffffffffffff1673ffffffffffffffffffffffffffffffffffffffff166376d560d787600101546040518263ffffffff1660e01b8152600401610b619190614561565b60206040518083038186803b158015610b7957600080fd5b505afa158015610b8d573d6000803e3d6000fd5b505050506040513d601f19601f82011682018060405250810190610bb19190613979565b610bbb919061469c565b90508573ffffffffffffffffffffffffffffffffffffffff1663b47e694582610bef60018b610bea9190614615565b611572565b6040518363ffffffff1660e01b8152600401610c0c929190614191565b600060405180830381600087803b158015610c2657600080fd5b505af1158015610c3a573d6000803e3d6000fd5b50505050610c4787612392565b610c5c600188610c579190614615565b612392565b5050505050505050565b60606040517f08c379a0000000000000000000000000000000000000000000000000000000008152600401610c9a90614521565b60405180910390fd5b610cb4610cae611c8c565b826124a3565b610cf3576040517f08c379a0000000000000000000000000000000000000000000000000000000008152600401610cea90614501565b60405180910390fd5b610cfe838383612581565b505050565b60075481565b600c6020528060005260406000206000915090508060000160009054906101000a9004600b0b908060010154908060020154908060030160009054906101000a900473ffffffffffffffffffffffffffffffffffffffff16905084565b60606040517f08c379a0000000000000000000000000000000000000000000000000000000008152600401610d9a90614541565b60405180910390fd5b610dbe838383604051806020016040528060008152506118a6565b505050565b6060600860009054906101000a900473ffffffffffffffffffffffffffffffffffffffff1673ffffffffffffffffffffffffffffffffffffffff163373ffffffffffffffffffffffffffffffffffffffff1614610e55576040517f08c379a0000000000000000000000000000000000000000000000000000000008152600401610e4c90614301565b60405180910390fd5b600a60009054906101000a900473ffffffffffffffffffffffffffffffffffffffff1673ffffffffffffffffffffffffffffffffffffffff168a73ffffffffffffffffffffffffffffffffffffffff16141580610eb85750610eb6896127dd565b155b15610f095782828080601f016020809104026020016040519081016040528093929190818152602001838380828437600081840152601f19601f8201169050808301925050505050505090506112b5565b6000600b60008a81526020019081526020016000205490506000610f2c82611572565b90506000600c6000848152602001908152602001600020905060008160000160009054906101000a9004600b0b90506000600960009054906101000a900473ffffffffffffffffffffffffffffffffffffffff1673ffffffffffffffffffffffffffffffffffffffff1663e6a1e888600a60009054906101000a900473ffffffffffffffffffffffffffffffffffffffff1630876040518463ffffffff1660e01b8152600401610fde939291906140c2565b60806040518083038186803b158015610ff657600080fd5b505afa15801561100a573d6000803e3d6000fd5b505050506040513d601f19601f8201168201806040525081019061102e91906139d3565b5050915050600082826110419190614730565b9050600081600b0b13611088577f08c379a0afcc32b1a39302f7cb8073359698411ab5fd6e3edb2c02c0b5fba8aa60405161107b90614481565b60405180910390a16110ca565b60008460000160006101000a8154816bffffffffffffffffffffffff0219169083600b0b6bffffffffffffffffffffffff1602179055506110c98582611d4d565b5b600084600201548560030160009054906101000a900473ffffffffffffffffffffffffffffffffffffffff1673ffffffffffffffffffffffffffffffffffffffff166376d560d787600101546040518263ffffffff1660e01b81526004016111329190614561565b60206040518083038186803b15801561114a57600080fd5b505afa15801561115e573d6000803e3d6000fd5b505050506040513d601f19601f820116820180604052508101906111829190613979565b61118c919061469c565b90508573ffffffffffffffffffffffffffffffffffffffff1663b47e6945826111c060018b6111bb9190614615565b611572565b6040518363ffffffff1660e01b81526004016111dd929190614191565b600060405180830381600087803b1580156111f757600080fd5b505af115801561120b573d6000803e3d6000fd5b505050507f8f52679fd68a182e0893bbdda22576fa29342a49a9be10f9970ceefdb089b2c08f85604051611240929190614019565b60405180910390a161125187612392565b6112666001886112619190614615565b612392565b89898080601f016020809104026020016040519081016040528093929190818152602001838380828437600081840152601f19601f820116905080830192505050505050509750505050505050505b9998505050505050505050565b6000600960009054906101000a900473ffffffffffffffffffffffffffffffffffffffff1673ffffffffffffffffffffffffffffffffffffffff1663e6a1e888600a60009054906101000a900473ffffffffffffffffffffffffffffffffffffffff1686306040518463ffffffff1660e01b8152600401611345939291906140c2565b60806040518083038186803b15801561135d57600080fd5b505afa158015611371573d6000803e3d6000fd5b505050506040513d601f19601f8201168201806040525081019061139591906139d3565b50509150508473ffffffffffffffffffffffffffffffffffffffff16636a915d6a33846040518363ffffffff1660e01b81526004016113d5929190613fba565b60206040518083038186803b1580156113ed57600080fd5b505afa158015611401573d6000803e3d6000fd5b505050506040513d601f19601f8201168201806040525081019061142591906136a4565b611464576040517f08c379a000000000000000000000000000000000000000000000000000000000815260040161145b90614221565b60405180910390fd5b82600b0b81600b0b12156114ad576040517f08c379a00000000000000000000000000000000000000000000000000000000081526004016114a490614261565b60405180910390fd5b60006114b98530611873565b9050600754600b6000838152602001908152602001600020819055506114df8683611d4d565b6114eb86848433612886565b6114f485612989565b7f35ad89ea58e0d5148b199cf4cddc916254af71553e905b69392ab09fcfa084438686604051611525929190613f45565b60405180910390a1505050505050565b60606040517f08c379a0000000000000000000000000000000000000000000000000000000008152600401611569906142e1565b60405180910390fd5b6000806002600084815260200190815260200160002060009054906101000a900473ffffffffffffffffffffffffffffffffffffffff169050600073ffffffffffffffffffffffffffffffffffffffff168173ffffffffffffffffffffffffffffffffffffffff16141561161b576040517f08c379a0000000000000000000000000000000000000000000000000000000008152600401611612906143c1565b60405180910390fd5b80915050919050565b60008073ffffffffffffffffffffffffffffffffffffffff168273ffffffffffffffffffffffffffffffffffffffff161415611695576040517f08c379a000000000000000000000000000000000000000000000000000000000815260040161168c906143a1565b60405180910390fd5b600360008373ffffffffffffffffffffffffffffffffffffffff1673ffffffffffffffffffffffffffffffffffffffff168152602001908152602001600020549050919050565b6116e4611c8c565b73ffffffffffffffffffffffffffffffffffffffff166117026117a1565b73ffffffffffffffffffffffffffffffffffffffff1614611758576040517f08c379a000000000000000000000000000000000000000000000000000000000815260040161174f90614421565b60405180910390fd5b61176260006129b0565b565b60606040517f08c379a0000000000000000000000000000000000000000000000000000000008152600401611798906144c1565b60405180910390fd5b6000600660009054906101000a900473ffffffffffffffffffffffffffffffffffffffff16905090565b6060600180546117da90614915565b80601f016020809104026020016040519081016040528092919081815260200182805461180690614915565b80156118535780601f1061182857610100808354040283529160200191611853565b820191906000526020600020905b81548152906001019060200180831161183657829003601f168201915b5050505050905090565b61186f611868611c8c565b8383612a76565b5050565b60008282604051602001611888929190613f45565b60405160208183030381529060405280519060200120905092915050565b6118b76118b1611c8c565b836124a3565b6118f6576040517f08c379a00000000000000000000000000000000000000000000000000000000081526004016118ed90614501565b60405180910390fd5b61190284848484612be3565b50505050565b606061191382611c20565b611952576040517f08c379a000000000000000000000000000000000000000000000000000000000815260040161194990614461565b60405180910390fd5b600061195c612c3f565b9050600081511161197c57604051806020016040528060008152506119a7565b8061198684612c56565b604051602001611997929190613f06565b6040516020818303038152906040525b915050919050565b60606040517f08c379a00000000000000000000000000000000000000000000000000000000081526004016119e3906144e1565b60405180910390fd5b6000600560008473ffffffffffffffffffffffffffffffffffffffff1673ffffffffffffffffffffffffffffffffffffffff16815260200190815260200160002060008373ffffffffffffffffffffffffffffffffffffffff1673ffffffffffffffffffffffffffffffffffffffff16815260200190815260200160002060009054906101000a900460ff16905092915050565b611a88611c8c565b73ffffffffffffffffffffffffffffffffffffffff16611aa66117a1565b73ffffffffffffffffffffffffffffffffffffffff1614611afc576040517f08c379a0000000000000000000000000000000000000000000000000000000008152600401611af390614421565b60405180910390fd5b600073ffffffffffffffffffffffffffffffffffffffff168173ffffffffffffffffffffffffffffffffffffffff161415611b6c576040517f08c379a0000000000000000000000000000000000000000000000000000000008152600401611b63906142a1565b60405180910390fd5b611b75816129b0565b50565b600b6020528060005260406000206000915090505481565b600a60009054906101000a900473ffffffffffffffffffffffffffffffffffffffff1681565b60007f01ffc9a7000000000000000000000000000000000000000000000000000000007bffffffffffffffffffffffffffffffffffffffffffffffffffffffff1916827bffffffffffffffffffffffffffffffffffffffffffffffffffffffff1916149050919050565b60008073ffffffffffffffffffffffffffffffffffffffff166002600084815260200190815260200160002060009054906101000a900473ffffffffffffffffffffffffffffffffffffffff1673ffffffffffffffffffffffffffffffffffffffff1614159050919050565b600033905090565b816004600083815260200190815260200160002060006101000a81548173ffffffffffffffffffffffffffffffffffffffff021916908373ffffffffffffffffffffffffffffffffffffffff160217905550808273ffffffffffffffffffffffffffffffffffffffff16611d0783611572565b73ffffffffffffffffffffffffffffffffffffffff167f8c5be1e5ebec7d5bd14f71427d1e84f3dd0314c0f7b2291e5b200ac8c7c3b92560405160405180910390a45050565b6000600960009054906101000a900473ffffffffffffffffffffffffffffffffffffffff1673ffffffffffffffffffffffffffffffffffffffff1663e6a1e888600a60009054906101000a900473ffffffffffffffffffffffffffffffffffffffff1630866040518463ffffffff1660e01b8152600401611dd0939291906140c2565b60806040518083038186803b158015611de857600080fd5b505afa158015611dfc573d6000803e3d6000fd5b505050506040513d601f19601f82011682018060405250810190611e2091906139d3565b5050915050600082600b0b1415611ff857600860009054906101000a900473ffffffffffffffffffffffffffffffffffffffff1673ffffffffffffffffffffffffffffffffffffffff166339255d5b600960009054906101000a900473ffffffffffffffffffffffffffffffffffffffff1663b4b333c660e01b600a60009054906101000a900473ffffffffffffffffffffffffffffffffffffffff163088600067ffffffffffffffff811115611eda57611ed9614aae565b5b6040519080825280601f01601f191660200182016040528015611f0c5781602001600182028036833780820191505090505b50604051602401611f2094939291906140f9565b604051602081830303815290604052907bffffffffffffffffffffffffffffffffffffffffffffffffffffffff19166020820180517bffffffffffffffffffffffffffffffffffffffffffffffffffffffff83818316178352505050506040518363ffffffff1660e01b8152600401611f9a929190614064565b600060405180830381600087803b158015611fb457600080fd5b505af1158015611fc8573d6000803e3d6000fd5b505050506040513d6000823e3d601f19601f82011682018060405250810190611ff19190613785565b505061238e565b600081600b0b14156121ca57600860009054906101000a900473ffffffffffffffffffffffffffffffffffffffff1673ffffffffffffffffffffffffffffffffffffffff166339255d5b600960009054906101000a900473ffffffffffffffffffffffffffffffffffffffff166362fc305e60e01b600a60009054906101000a900473ffffffffffffffffffffffffffffffffffffffff168787600067ffffffffffffffff8111156120ad576120ac614aae565b5b6040519080825280601f01601f1916602001820160405280156120df5781602001600182028036833780820191505090505b506040516024016120f39493929190614145565b604051602081830303815290604052907bffffffffffffffffffffffffffffffffffffffffffffffffffffffff19166020820180517bffffffffffffffffffffffffffffffffffffffffffffffffffffffff83818316178352505050506040518363ffffffff1660e01b815260040161216d929190614064565b600060405180830381600087803b15801561218757600080fd5b505af115801561219b573d6000803e3d6000fd5b505050506040513d6000823e3d601f19601f820116820180604052508101906121c49190613785565b5061238c565b600860009054906101000a900473ffffffffffffffffffffffffffffffffffffffff1673ffffffffffffffffffffffffffffffffffffffff166339255d5b600960009054906101000a900473ffffffffffffffffffffffffffffffffffffffff166350209a6260e01b600a60009054906101000a900473ffffffffffffffffffffffffffffffffffffffff168787600067ffffffffffffffff81111561227357612272614aae565b5b6040519080825280601f01601f1916602001820160405280156122a55781602001600182028036833780820191505090505b506040516024016122b99493929190614145565b604051602081830303815290604052907bffffffffffffffffffffffffffffffffffffffffffffffffffffffff19166020820180517bffffffffffffffffffffffffffffffffffffffffffffffffffffffff83818316178352505050506040518363ffffffff1660e01b8152600401612333929190614064565b600060405180830381600087803b15801561234d57600080fd5b505af1158015612361573d6000803e3d6000fd5b505050506040513d6000823e3d601f19601f8201168201806040525081019061238a9190613785565b505b505b5050565b600061239d82611572565b90506123ab81600084612db7565b6123b6600083611c94565b6001600360008373ffffffffffffffffffffffffffffffffffffffff1673ffffffffffffffffffffffffffffffffffffffff168152602001908152602001600020600082825461240691906147b0565b925050819055506002600083815260200190815260200160002060006101000a81549073ffffffffffffffffffffffffffffffffffffffff021916905581600073ffffffffffffffffffffffffffffffffffffffff168273ffffffffffffffffffffffffffffffffffffffff167fddf252ad1be2c89b69c2b068fc378daa952ba7f163c4a11628f55a4df523b3ef60405160405180910390a45050565b60006124ae82611c20565b6124ed576040517f08c379a00000000000000000000000000000000000000000000000000000000081526004016124e490614361565b60405180910390fd5b60006124f883611572565b90508073ffffffffffffffffffffffffffffffffffffffff168473ffffffffffffffffffffffffffffffffffffffff16148061256757508373ffffffffffffffffffffffffffffffffffffffff1661254f8461079b565b73ffffffffffffffffffffffffffffffffffffffff16145b80612578575061257781856119ec565b5b91505092915050565b8273ffffffffffffffffffffffffffffffffffffffff166125a182611572565b73ffffffffffffffffffffffffffffffffffffffff16146125f7576040517f08c379a00000000000000000000000000000000000000000000000000000000081526004016125ee90614441565b60405180910390fd5b600073ffffffffffffffffffffffffffffffffffffffff168273ffffffffffffffffffffffffffffffffffffffff161415612667576040517f08c379a000000000000000000000000000000000000000000000000000000000815260040161265e90614321565b60405180910390fd5b612672838383612db7565b61267d600082611c94565b6001600360008573ffffffffffffffffffffffffffffffffffffffff1673ffffffffffffffffffffffffffffffffffffffff16815260200190815260200160002060008282546126cd91906147b0565b925050819055506001600360008473ffffffffffffffffffffffffffffffffffffffff1673ffffffffffffffffffffffffffffffffffffffff16815260200190815260200160002060008282546127249190614615565b92505081905550816002600083815260200190815260200160002060006101000a81548173ffffffffffffffffffffffffffffffffffffffff021916908373ffffffffffffffffffffffffffffffffffffffff160217905550808273ffffffffffffffffffffffffffffffffffffffff168473ffffffffffffffffffffffffffffffffffffffff167fddf252ad1be2c89b69c2b068fc378daa952ba7f163c4a11628f55a4df523b3ef60405160405180910390a4505050565b60007fa9214cc96615e0085d3bb077758db69497dc2dce3b2b1e97bc93c3d18d83efd38273ffffffffffffffffffffffffffffffffffffffff16637730599e6040518163ffffffff1660e01b815260040160206040518083038186803b15801561284657600080fd5b505afa15801561285a573d6000803e3d6000fd5b505050506040513d601f19601f8201168201806040525081019061287e91906136fe565b149050919050565b61289284600754612dbc565b60008173ffffffffffffffffffffffffffffffffffffffff166376d560d7856040518263ffffffff1660e01b81526004016128cd9190614561565b60206040518083038186803b1580156128e557600080fd5b505afa1580156128f9573d6000803e3d6000fd5b505050506040513d601f19601f8201168201806040525081019061291d9190613979565b90506000604051806080016040528085600b0b81526020018681526020018381526020018473ffffffffffffffffffffffffffffffffffffffff16815250905061296960075482612f8a565b6007600081548092919061297c90614978565b9190505550505050505050565b61299581600754612dbc565b600760008154809291906129a890614978565b919050555050565b6000600660009054906101000a900473ffffffffffffffffffffffffffffffffffffffff16905081600660006101000a81548173ffffffffffffffffffffffffffffffffffffffff021916908373ffffffffffffffffffffffffffffffffffffffff1602179055508173ffffffffffffffffffffffffffffffffffffffff168173ffffffffffffffffffffffffffffffffffffffff167f8be0079c531659141344cd1fd0a4f28419497f9722a3daafe3b4186f6b6457e060405160405180910390a35050565b8173ffffffffffffffffffffffffffffffffffffffff168373ffffffffffffffffffffffffffffffffffffffff161415612ae5576040517f08c379a0000000000000000000000000000000000000000000000000000000008152600401612adc90614341565b60405180910390fd5b80600560008573ffffffffffffffffffffffffffffffffffffffff1673ffffffffffffffffffffffffffffffffffffffff16815260200190815260200160002060008473ffffffffffffffffffffffffffffffffffffffff1673ffffffffffffffffffffffffffffffffffffffff16815260200190815260200160002060006101000a81548160ff0219169083151502179055508173ffffffffffffffffffffffffffffffffffffffff168373ffffffffffffffffffffffffffffffffffffffff167f17307eab39ab6107e8899845ad3d59bd9653f200f220920489ca2b5937696c3183604051612bd69190613fe3565b60405180910390a3505050565b612bee848484612581565b612bfa84848484613089565b612c39576040517f08c379a0000000000000000000000000000000000000000000000000000000008152600401612c3090614281565b60405180910390fd5b50505050565b606060405180602001604052806000815250905090565b60606000821415612c9e576040518060400160405280600181526020017f30000000000000000000000000000000000000000000000000000000000000008152509050612db2565b600082905060005b60008214612cd0578080612cb990614978565b915050600a82612cc9919061466b565b9150612ca6565b60008167ffffffffffffffff811115612cec57612ceb614aae565b5b6040519080825280601f01601f191660200182016040528015612d1e5781602001600182028036833780820191505090505b5090505b60008514612dab57600182612d3791906147b0565b9150600a85612d4691906149c1565b6030612d529190614615565b60f81b818381518110612d6857612d67614a7f565b5b60200101907effffffffffffffffffffffffffffffffffffffffffffffffffffffffffffff1916908160001a905350600a85612da4919061466b565b9450612d22565b8093505050505b919050565b505050565b600073ffffffffffffffffffffffffffffffffffffffff168273ffffffffffffffffffffffffffffffffffffffff161415612e2c576040517f08c379a0000000000000000000000000000000000000000000000000000000008152600401612e23906143e1565b60405180910390fd5b612e3581611c20565b15612e75576040517f08c379a0000000000000000000000000000000000000000000000000000000008152600401612e6c906142c1565b60405180910390fd5b612e8160008383612db7565b6001600360008473ffffffffffffffffffffffffffffffffffffffff1673ffffffffffffffffffffffffffffffffffffffff1681526020019081526020016000206000828254612ed19190614615565b92505081905550816002600083815260200190815260200160002060006101000a81548173ffffffffffffffffffffffffffffffffffffffff021916908373ffffffffffffffffffffffffffffffffffffffff160217905550808273ffffffffffffffffffffffffffffffffffffffff16600073ffffffffffffffffffffffffffffffffffffffff167fddf252ad1be2c89b69c2b068fc378daa952ba7f163c4a11628f55a4df523b3ef60405160405180910390a45050565b6000600283612f9991906149c1565b14612fd9576040517f08c379a0000000000000000000000000000000000000000000000000000000008152600401612fd090614241565b60405180910390fd5b80600c600084815260200190815260200160002060008201518160000160006101000a8154816bffffffffffffffffffffffff0219169083600b0b6bffffffffffffffffffffffff160217905550602082015181600101556040820151816002015560608201518160030160006101000a81548173ffffffffffffffffffffffffffffffffffffffff021916908373ffffffffffffffffffffffffffffffffffffffff1602179055509050505050565b60006130aa8473ffffffffffffffffffffffffffffffffffffffff16613220565b15613213578373ffffffffffffffffffffffffffffffffffffffff1663150b7a026130d3611c8c565b8786866040518563ffffffff1660e01b81526004016130f59493929190613f6e565b602060405180830381600087803b15801561310f57600080fd5b505af192505050801561314057506040513d601f19601f8201168201806040525081019061313d9190613758565b60015b6131c3573d8060008114613170576040519150601f19603f3d011682016040523d82523d6000602084013e613175565b606091505b506000815114156131bb576040517f08c379a00000000000000000000000000000000000000000000000000000000081526004016131b290614281565b60405180910390fd5b805181602001fd5b63150b7a0260e01b7bffffffffffffffffffffffffffffffffffffffffffffffffffffffff1916817bffffffffffffffffffffffffffffffffffffffffffffffffffffffff191614915050613218565b600190505b949350505050565b600080823b905060008111915050919050565b6000613246613241846145a1565b61457c565b90508281526020810184848401111561326257613261614aec565b5b61326d8482856148d3565b509392505050565b6000613288613283846145a1565b61457c565b9050828152602081018484840111156132a4576132a3614aec565b5b6132af8482856148e2565b509392505050565b6000813590506132c6816152a3565b92915050565b6000813590506132db816152ba565b92915050565b6000815190506132f0816152ba565b92915050565b600081359050613305816152d1565b92915050565b60008151905061331a816152d1565b92915050565b60008135905061332f816152e8565b92915050565b600081519050613344816152e8565b92915050565b60008083601f8401126133605761335f614ae2565b5b8235905067ffffffffffffffff81111561337d5761337c614add565b5b60208301915083600182028301111561339957613398614ae7565b5b9250929050565b600082601f8301126133b5576133b4614ae2565b5b81356133c5848260208601613233565b91505092915050565b600082601f8301126133e3576133e2614ae2565b5b81516133f3848260208601613275565b91505092915050565b60008135905061340b816152ff565b92915050565b60008151905061342081615316565b92915050565b6000813590506134358161532d565b92915050565b60008151905061344a8161532d565b92915050565b60008135905061345f81615344565b92915050565b60008151905061347481615344565b92915050565b6000602082840312156134905761348f614af6565b5b600061349e848285016132b7565b91505092915050565b600080604083850312156134be576134bd614af6565b5b60006134cc858286016132b7565b92505060206134dd858286016132b7565b9150509250929050565b6000806000806080858703121561350157613500614af6565b5b600061350f878288016132b7565b9450506020613520878288016132b7565b935050604061353187828801613426565b925050606061354287828801613450565b91505092959194509250565b60008060006060848603121561356757613566614af6565b5b6000613575868287016132b7565b9350506020613586868287016132b7565b925050604061359786828701613450565b9150509250925092565b600080600080608085870312156135bb576135ba614af6565b5b60006135c9878288016132b7565b94505060206135da878288016132b7565b93505060406135eb87828801613450565b925050606085013567ffffffffffffffff81111561360c5761360b614af1565b5b613618878288016133a0565b91505092959194509250565b6000806040838503121561363b5761363a614af6565b5b6000613649858286016132b7565b925050602061365a858286016132cc565b9150509250929050565b6000806040838503121561367b5761367a614af6565b5b6000613689858286016132b7565b925050602061369a85828601613450565b9150509250929050565b6000602082840312156136ba576136b9614af6565b5b60006136c8848285016132e1565b91505092915050565b6000602082840312156136e7576136e6614af6565b5b60006136f5848285016132f6565b91505092915050565b60006020828403121561371457613713614af6565b5b60006137228482850161330b565b91505092915050565b60006020828403121561374157613740614af6565b5b600061374f84828501613320565b91505092915050565b60006020828403121561376e5761376d614af6565b5b600061377c84828501613335565b91505092915050565b60006020828403121561379b5761379a614af6565b5b600082015167ffffffffffffffff8111156137b9576137b8614af1565b5b6137c5848285016133ce565b91505092915050565b600080600080600080600060a0888a0312156137ed576137ec614af6565b5b60006137fb8a828b016133fc565b975050602061380c8a828b016132b7565b965050604061381d8a828b016132f6565b955050606088013567ffffffffffffffff81111561383e5761383d614af1565b5b61384a8a828b0161334a565b9450945050608088013567ffffffffffffffff81111561386d5761386c614af1565b5b6138798a828b0161334a565b925092505092959891949750929550565b600080600080600080600080600060c08a8c0312156138ac576138ab614af6565b5b60006138ba8c828d016133fc565b99505060206138cb8c828d016132b7565b98505060406138dc8c828d016132f6565b97505060608a013567ffffffffffffffff8111156138fd576138fc614af1565b5b6139098c828d0161334a565b965096505060808a013567ffffffffffffffff81111561392c5761392b614af1565b5b6139388c828d0161334a565b945094505060a08a013567ffffffffffffffff81111561395b5761395a614af1565b5b6139678c828d0161334a565b92509250509295985092959850929598565b60006020828403121561398f5761398e614af6565b5b600061399d84828501613411565b91505092915050565b6000602082840312156139bc576139bb614af6565b5b60006139ca84828501613450565b91505092915050565b600080600080608085870312156139ed576139ec614af6565b5b60006139fb87828801613465565b9450506020613a0c8782880161343b565b9350506040613a1d87828801613465565b9250506060613a2e87828801613465565b91505092959194509250565b613a43816147e4565b82525050565b613a52816147f6565b82525050565b613a6181614802565b82525050565b6000613a72826145d2565b613a7c81856145e8565b9350613a8c8185602086016148e2565b613a9581614afb565b840191505092915050565b613aa98161488b565b82525050565b613ab88161489d565b82525050565b613ac78161484a565b82525050565b613ad681614854565b82525050565b6000613ae7826145dd565b613af181856145f9565b9350613b018185602086016148e2565b613b0a81614afb565b840191505092915050565b6000613b20826145dd565b613b2a818561460a565b9350613b3a8185602086016148e2565b80840191505092915050565b6000613b536033836145f9565b9150613b5e82614b0c565b604082019050919050565b6000613b76602a836145f9565b9150613b8182614b5b565b604082019050919050565b6000613b996029836145f9565b9150613ba482614baa565b604082019050919050565b6000613bbc6032836145f9565b9150613bc782614bf9565b604082019050919050565b6000613bdf6026836145f9565b9150613bea82614c48565b604082019050919050565b6000613c02601c836145f9565b9150613c0d82614c97565b602082019050919050565b6000613c256033836145f9565b9150613c3082614cc0565b604082019050919050565b6000613c486022836145f9565b9150613c5382614d0f565b604082019050919050565b6000613c6b6002836145e8565b9150613c7682614d5e565b602082019050919050565b6000613c8e6024836145f9565b9150613c9982614d87565b604082019050919050565b6000613cb16019836145f9565b9150613cbc82614dd6565b602082019050919050565b6000613cd4602c836145f9565b9150613cdf82614dff565b604082019050919050565b6000613cf76038836145f9565b9150613d0282614e4e565b604082019050919050565b6000613d1a602a836145f9565b9150613d2582614e9d565b604082019050919050565b6000613d3d6029836145f9565b9150613d4882614eec565b604082019050919050565b6000613d606020836145f9565b9150613d6b82614f3b565b602082019050919050565b6000613d83602c836145f9565b9150613d8e82614f64565b604082019050919050565b6000613da66020836145f9565b9150613db182614fb3565b602082019050919050565b6000613dc96029836145f9565b9150613dd482614fdc565b604082019050919050565b6000613dec602f836145f9565b9150613df78261502b565b604082019050919050565b6000613e0f6039836145f9565b9150613e1a8261507a565b604082019050919050565b6000613e326021836145f9565b9150613e3d826150c9565b604082019050919050565b6000613e55602f836145f9565b9150613e6082615118565b604082019050919050565b6000613e78602e836145f9565b9150613e8382615167565b604082019050919050565b6000613e9b6031836145f9565b9150613ea6826151b6565b604082019050919050565b6000613ebe602e836145f9565b9150613ec982615205565b604082019050919050565b6000613ee1602f836145f9565b9150613eec82615254565b604082019050919050565b613f0081614881565b82525050565b6000613f128285613b15565b9150613f1e8284613b15565b91508190509392505050565b6000602082019050613f3f6000830184613a3a565b92915050565b6000604082019050613f5a6000830185613a3a565b613f676020830184613a3a565b9392505050565b6000608082019050613f836000830187613a3a565b613f906020830186613a3a565b613f9d6040830185613ef7565b8181036060830152613faf8184613a67565b905095945050505050565b6000604082019050613fcf6000830185613a3a565b613fdc6020830184613ef7565b9392505050565b6000602082019050613ff86000830184613a49565b92915050565b60006020820190506140136000830184613a58565b92915050565b600060408201905061402e6000830185613a58565b61403b6020830184613acd565b9392505050565b6000602082019050818103600083015261405c8184613a67565b905092915050565b60006060820190506140796000830185613aa0565b818103602083015261408b8184613a67565b9050818103604083015261409e81613c5e565b90509392505050565b60006020820190506140bc6000830184613aaf565b92915050565b60006060820190506140d76000830186613aaf565b6140e46020830185613a3a565b6140f16040830184613a3a565b949350505050565b600060808201905061410e6000830187613aaf565b61411b6020830186613a3a565b6141286040830185613a3a565b818103606083015261413a8184613a67565b905095945050505050565b600060808201905061415a6000830187613aaf565b6141676020830186613a3a565b6141746040830185613acd565b81810360608301526141868184613a67565b905095945050505050565b60006040820190506141a66000830185613abe565b6141b36020830184613a3a565b9392505050565b60006080820190506141cf6000830187613acd565b6141dc6020830186613ef7565b6141e96040830185613abe565b6141f66060830184613a3a565b95945050505050565b600060208201905081810360008301526142198184613adc565b905092915050565b6000602082019050818103600083015261423a81613b46565b9050919050565b6000602082019050818103600083015261425a81613b69565b9050919050565b6000602082019050818103600083015261427a81613b8c565b9050919050565b6000602082019050818103600083015261429a81613baf565b9050919050565b600060208201905081810360008301526142ba81613bd2565b9050919050565b600060208201905081810360008301526142da81613bf5565b9050919050565b600060208201905081810360008301526142fa81613c18565b9050919050565b6000602082019050818103600083015261431a81613c3b565b9050919050565b6000602082019050818103600083015261433a81613c81565b9050919050565b6000602082019050818103600083015261435a81613ca4565b9050919050565b6000602082019050818103600083015261437a81613cc7565b9050919050565b6000602082019050818103600083015261439a81613cea565b9050919050565b600060208201905081810360008301526143ba81613d0d565b9050919050565b600060208201905081810360008301526143da81613d30565b9050919050565b600060208201905081810360008301526143fa81613d53565b9050919050565b6000602082019050818103600083015261441a81613d76565b9050919050565b6000602082019050818103600083015261443a81613d99565b9050919050565b6000602082019050818103600083015261445a81613dbc565b9050919050565b6000602082019050818103600083015261447a81613ddf565b9050919050565b6000602082019050818103600083015261449a81613e02565b9050919050565b600060208201905081810360008301526144ba81613e25565b9050919050565b600060208201905081810360008301526144da81613e48565b9050919050565b600060208201905081810360008301526144fa81613e6b565b9050919050565b6000602082019050818103600083015261451a81613e8e565b9050919050565b6000602082019050818103600083015261453a81613eb1565b9050919050565b6000602082019050818103600083015261455a81613ed4565b9050919050565b60006020820190506145766000830184613ef7565b92915050565b6000614586614597565b90506145928282614947565b919050565b6000604051905090565b600067ffffffffffffffff8211156145bc576145bb614aae565b5b6145c582614afb565b9050602081019050919050565b600081519050919050565b600081519050919050565b600082825260208201905092915050565b600082825260208201905092915050565b600081905092915050565b600061462082614881565b915061462b83614881565b9250827fffffffffffffffffffffffffffffffffffffffffffffffffffffffffffffffff038211156146605761465f6149f2565b5b828201905092915050565b600061467682614881565b915061468183614881565b92508261469157614690614a21565b5b828204905092915050565b60006146a78261484a565b91506146b28361484a565b9250827f8000000000000000000000000000000000000000000000000000000000000000018212600084121516156146ed576146ec6149f2565b5b827f7fffffffffffffffffffffffffffffffffffffffffffffffffffffffffffffff018213600084121615614725576147246149f2565b5b828203905092915050565b600061473b82614854565b915061474683614854565b9250827fffffffffffffffffffffffffffffffffffffffff80000000000000000000000001821260008412151615614781576147806149f2565b5b826b7fffffffffffffffffffffff0182136000841216156147a5576147a46149f2565b5b828203905092915050565b60006147bb82614881565b91506147c683614881565b9250828210156147d9576147d86149f2565b5b828203905092915050565b60006147ef82614861565b9050919050565b60008115159050919050565b6000819050919050565b60007fffffffff0000000000000000000000000000000000000000000000000000000082169050919050565b6000614843826147e4565b9050919050565b6000819050919050565b600081600b0b9050919050565b600073ffffffffffffffffffffffffffffffffffffffff82169050919050565b6000819050919050565b6000614896826148af565b9050919050565b60006148a8826148af565b9050919050565b60006148ba826148c1565b9050919050565b60006148cc82614861565b9050919050565b82818337600083830152505050565b60005b838110156149005780820151818401526020810190506148e5565b8381111561490f576000848401525b50505050565b6000600282049050600182168061492d57607f821691505b6020821081141561494157614940614a50565b5b50919050565b61495082614afb565b810181811067ffffffffffffffff8211171561496f5761496e614aae565b5b80604052505050565b600061498382614881565b91507fffffffffffffffffffffffffffffffffffffffffffffffffffffffffffffffff8214156149b6576149b56149f2565b5b600182019050919050565b60006149cc82614881565b91506149d783614881565b9250826149e7576149e6614a21565b5b828206905092915050565b7f4e487b7100000000000000000000000000000000000000000000000000000000600052601160045260246000fd5b7f4e487b7100000000000000000000000000000000000000000000000000000000600052601260045260246000fd5b7f4e487b7100000000000000000000000000000000000000000000000000000000600052602260045260246000fd5b7f4e487b7100000000000000000000000000000000000000000000000000000000600052603260045260246000fd5b7f4e487b7100000000000000000000000000000000000000000000000000000000600052604160045260246000fd5b600080fd5b600080fd5b600080fd5b600080fd5b600080fd5b600080fd5b6000601f19601f8301169050919050565b7f5468697320726563656976657220646964206e6f74207065726d697420796f7560008201527f20746f2069737375652074686973207377617000000000000000000000000000602082015250565b7f43616e206f6e6c79207570646174656420617373657473206f77656420666f7260008201527f2072656365697665727300000000000000000000000000000000000000000000602082015250565b7f4e6f7420706179696e6720656e6f75676820746f20696e697469616c697a652060008201527f7468697320737761700000000000000000000000000000000000000000000000602082015250565b7f4552433732313a207472616e7366657220746f206e6f6e20455243373231526560008201527f63656976657220696d706c656d656e7465720000000000000000000000000000602082015250565b7f4f776e61626c653a206e6577206f776e657220697320746865207a65726f206160008201527f6464726573730000000000000000000000000000000000000000000000000000602082015250565b7f4552433732313a20746f6b656e20616c7265616479206d696e74656400000000600082015250565b7f556e737570706f727465642063616c6c6261636b202d20204265666f7265204160008201527f677265656d656e74205465726d696e6174656400000000000000000000000000602082015250565b7f5265646972656374416c6c3a20737570706f7274206f6e6c79206f6e6520686f60008201527f7374000000000000000000000000000000000000000000000000000000000000602082015250565b7f3078000000000000000000000000000000000000000000000000000000000000600082015250565b7f4552433732313a207472616e7366657220746f20746865207a65726f2061646460008201527f7265737300000000000000000000000000000000000000000000000000000000602082015250565b7f4552433732313a20617070726f766520746f2063616c6c657200000000000000600082015250565b7f4552433732313a206f70657261746f7220717565727920666f72206e6f6e657860008201527f697374656e7420746f6b656e0000000000000000000000000000000000000000602082015250565b7f4552433732313a20617070726f76652063616c6c6572206973206e6f74206f7760008201527f6e6572206e6f7220617070726f76656420666f7220616c6c0000000000000000602082015250565b7f4552433732313a2062616c616e636520717565727920666f7220746865207a6560008201527f726f206164647265737300000000000000000000000000000000000000000000602082015250565b7f4552433732313a206f776e657220717565727920666f72206e6f6e657869737460008201527f656e7420746f6b656e0000000000000000000000000000000000000000000000602082015250565b7f4552433732313a206d696e7420746f20746865207a65726f2061646472657373600082015250565b7f4552433732313a20617070726f76656420717565727920666f72206e6f6e657860008201527f697374656e7420746f6b656e0000000000000000000000000000000000000000602082015250565b7f4f776e61626c653a2063616c6c6572206973206e6f7420746865206f776e6572600082015250565b7f4552433732313a207472616e73666572206f6620746f6b656e2074686174206960008201527f73206e6f74206f776e0000000000000000000000000000000000000000000000602082015250565b7f4552433732314d657461646174613a2055524920717565727920666f72206e6f60008201527f6e6578697374656e7420746f6b656e0000000000000000000000000000000000602082015250565b7f41667465722061677265656d656e74207465726d696e617465642e204e65772060008201527f666c6f77206973206c657373207468616e20206f72203d203000000000000000602082015250565b7f4552433732313a20617070726f76616c20746f2063757272656e74206f776e6560008201527f7200000000000000000000000000000000000000000000000000000000000000602082015250565b7f556e737570706f727465642063616c6c6261636b202d204265666f726520416760008201527f7265656d656e7420757064617465640000000000000000000000000000000000602082015250565b7f556e737570706f727465642063616c6c6261636b202d2041667465722041677260008201527f65656d656e742043726561746564000000000000000000000000000000000000602082015250565b7f4552433732313a207472616e736665722063616c6c6572206973206e6f74206f60008201527f776e6572206e6f7220617070726f766564000000000000000000000000000000602082015250565b7f556e737570706f727465642063616c6c6261636b202d2041667465722041677260008201527f65656d656e742055706461746564000000000000000000000000000000000000602082015250565b7f556e737570706f727465642063616c6c6261636b202d204265666f726520416760008201527f7265656d656e7420437265617465640000000000000000000000000000000000602082015250565b6152ac816147e4565b81146152b757600080fd5b50565b6152c3816147f6565b81146152ce57600080fd5b50565b6152da81614802565b81146152e557600080fd5b50565b6152f18161480c565b81146152fc57600080fd5b50565b61530881614838565b811461531357600080fd5b50565b61531f8161484a565b811461532a57600080fd5b50565b61533681614854565b811461534157600080fd5b50565b61534d81614881565b811461535857600080fd5b5056fea2646970667358221220eb9792642abd468041829f56403dca63fb57ac811bb5d9fa3598ebdebc4278a764736f6c63430008070033",
			"opcodes": "PUSH1 0x80 PUSH1 0x40 MSTORE PUSH1 0x0 PUSH1 0x7 SSTORE CALLVALUE DUP1 ISZERO PUSH3 0x16 JUMPI PUSH1 0x0 DUP1 REVERT JUMPDEST POP PUSH1 0x40 MLOAD PUSH3 0x598F CODESIZE SUB DUP1 PUSH3 0x598F DUP4 CODECOPY DUP2 DUP2 ADD PUSH1 0x40 MSTORE DUP2 ADD SWAP1 PUSH3 0x3C SWAP2 SWAP1 PUSH3 0x446 JUMP JUMPDEST PUSH1 0x40 MLOAD DUP1 PUSH1 0x40 ADD PUSH1 0x40 MSTORE DUP1 PUSH1 0x11 DUP2 MSTORE PUSH1 0x20 ADD PUSH32 0x546F74616C2052657475726E2053776170000000000000000000000000000000 DUP2 MSTORE POP PUSH1 0x40 MLOAD DUP1 PUSH1 0x40 ADD PUSH1 0x40 MSTORE DUP1 PUSH1 0x3 DUP2 MSTORE PUSH1 0x20 ADD PUSH32 0x5452530000000000000000000000000000000000000000000000000000000000 DUP2 MSTORE POP DUP2 PUSH1 0x0 SWAP1 DUP1 MLOAD SWAP1 PUSH1 0x20 ADD SWAP1 PUSH3 0xC0 SWAP3 SWAP2 SWAP1 PUSH3 0x351 JUMP JUMPDEST POP DUP1 PUSH1 0x1 SWAP1 DUP1 MLOAD SWAP1 PUSH1 0x20 ADD SWAP1 PUSH3 0xD9 SWAP3 SWAP2 SWAP1 PUSH3 0x351 JUMP JUMPDEST POP POP POP PUSH3 0xFC PUSH3 0xF0 PUSH3 0x283 PUSH1 0x20 SHL PUSH1 0x20 SHR JUMP JUMPDEST PUSH3 0x28B PUSH1 0x20 SHL PUSH1 0x20 SHR JUMP JUMPDEST DUP3 PUSH1 0x8 PUSH1 0x0 PUSH2 0x100 EXP DUP2 SLOAD DUP2 PUSH20 0xFFFFFFFFFFFFFFFFFFFFFFFFFFFFFFFFFFFFFFFF MUL NOT AND SWAP1 DUP4 PUSH20 0xFFFFFFFFFFFFFFFFFFFFFFFFFFFFFFFFFFFFFFFF AND MUL OR SWAP1 SSTORE POP DUP2 PUSH1 0x9 PUSH1 0x0 PUSH2 0x100 EXP DUP2 SLOAD DUP2 PUSH20 0xFFFFFFFFFFFFFFFFFFFFFFFFFFFFFFFFFFFFFFFF MUL NOT AND SWAP1 DUP4 PUSH20 0xFFFFFFFFFFFFFFFFFFFFFFFFFFFFFFFFFFFFFFFF AND MUL OR SWAP1 SSTORE POP DUP1 PUSH1 0xA PUSH1 0x0 PUSH2 0x100 EXP DUP2 SLOAD DUP2 PUSH20 0xFFFFFFFFFFFFFFFFFFFFFFFFFFFFFFFFFFFFFFFF MUL NOT AND SWAP1 DUP4 PUSH20 0xFFFFFFFFFFFFFFFFFFFFFFFFFFFFFFFFFFFFFFFF AND MUL OR SWAP1 SSTORE POP PUSH1 0x0 PUSH5 0x800000000 PUSH5 0x200000000 PUSH5 0x1000000000 PUSH5 0x400000000 PUSH5 0x100000000 PUSH1 0x1 OR OR OR OR OR SWAP1 POP PUSH1 0x8 PUSH1 0x0 SWAP1 SLOAD SWAP1 PUSH2 0x100 EXP SWAP1 DIV PUSH20 0xFFFFFFFFFFFFFFFFFFFFFFFFFFFFFFFFFFFFFFFF AND PUSH20 0xFFFFFFFFFFFFFFFFFFFFFFFFFFFFFFFFFFFFFFFF AND PUSH4 0xAD3915C8 DUP3 PUSH1 0x40 MLOAD DUP3 PUSH4 0xFFFFFFFF AND PUSH1 0xE0 SHL DUP2 MSTORE PUSH1 0x4 ADD PUSH3 0x245 SWAP2 SWAP1 PUSH3 0x4B3 JUMP JUMPDEST PUSH1 0x0 PUSH1 0x40 MLOAD DUP1 DUP4 SUB DUP2 PUSH1 0x0 DUP8 DUP1 EXTCODESIZE ISZERO DUP1 ISZERO PUSH3 0x260 JUMPI PUSH1 0x0 DUP1 REVERT JUMPDEST POP GAS CALL ISZERO DUP1 ISZERO PUSH3 0x275 JUMPI RETURNDATASIZE PUSH1 0x0 DUP1 RETURNDATACOPY RETURNDATASIZE PUSH1 0x0 REVERT JUMPDEST POP POP POP POP POP POP POP POP PUSH3 0x5EE JUMP JUMPDEST PUSH1 0x0 CALLER SWAP1 POP SWAP1 JUMP JUMPDEST PUSH1 0x0 PUSH1 0x6 PUSH1 0x0 SWAP1 SLOAD SWAP1 PUSH2 0x100 EXP SWAP1 DIV PUSH20 0xFFFFFFFFFFFFFFFFFFFFFFFFFFFFFFFFFFFFFFFF AND SWAP1 POP DUP2 PUSH1 0x6 PUSH1 0x0 PUSH2 0x100 EXP DUP2 SLOAD DUP2 PUSH20 0xFFFFFFFFFFFFFFFFFFFFFFFFFFFFFFFFFFFFFFFF MUL NOT AND SWAP1 DUP4 PUSH20 0xFFFFFFFFFFFFFFFFFFFFFFFFFFFFFFFFFFFFFFFF AND MUL OR SWAP1 SSTORE POP DUP2 PUSH20 0xFFFFFFFFFFFFFFFFFFFFFFFFFFFFFFFFFFFFFFFF AND DUP2 PUSH20 0xFFFFFFFFFFFFFFFFFFFFFFFFFFFFFFFFFFFFFFFF AND PUSH32 0x8BE0079C531659141344CD1FD0A4F28419497F9722A3DAAFE3B4186F6B6457E0 PUSH1 0x40 MLOAD PUSH1 0x40 MLOAD DUP1 SWAP2 SUB SWAP1 LOG3 POP POP JUMP JUMPDEST DUP3 DUP1 SLOAD PUSH3 0x35F SWAP1 PUSH3 0x536 JUMP JUMPDEST SWAP1 PUSH1 0x0 MSTORE PUSH1 0x20 PUSH1 0x0 KECCAK256 SWAP1 PUSH1 0x1F ADD PUSH1 0x20 SWAP1 DIV DUP2 ADD SWAP3 DUP3 PUSH3 0x383 JUMPI PUSH1 0x0 DUP6 SSTORE PUSH3 0x3CF JUMP JUMPDEST DUP3 PUSH1 0x1F LT PUSH3 0x39E JUMPI DUP1 MLOAD PUSH1 0xFF NOT AND DUP4 DUP1 ADD OR DUP6 SSTORE PUSH3 0x3CF JUMP JUMPDEST DUP3 DUP1 ADD PUSH1 0x1 ADD DUP6 SSTORE DUP3 ISZERO PUSH3 0x3CF JUMPI SWAP2 DUP3 ADD JUMPDEST DUP3 DUP2 GT ISZERO PUSH3 0x3CE JUMPI DUP3 MLOAD DUP3 SSTORE SWAP2 PUSH1 0x20 ADD SWAP2 SWAP1 PUSH1 0x1 ADD SWAP1 PUSH3 0x3B1 JUMP JUMPDEST JUMPDEST POP SWAP1 POP PUSH3 0x3DE SWAP2 SWAP1 PUSH3 0x3E2 JUMP JUMPDEST POP SWAP1 JUMP JUMPDEST JUMPDEST DUP1 DUP3 GT ISZERO PUSH3 0x3FD JUMPI PUSH1 0x0 DUP2 PUSH1 0x0 SWAP1 SSTORE POP PUSH1 0x1 ADD PUSH3 0x3E3 JUMP JUMPDEST POP SWAP1 JUMP JUMPDEST PUSH1 0x0 DUP2 MLOAD SWAP1 POP PUSH3 0x412 DUP2 PUSH3 0x5A0 JUMP JUMPDEST SWAP3 SWAP2 POP POP JUMP JUMPDEST PUSH1 0x0 DUP2 MLOAD SWAP1 POP PUSH3 0x429 DUP2 PUSH3 0x5BA JUMP JUMPDEST SWAP3 SWAP2 POP POP JUMP JUMPDEST PUSH1 0x0 DUP2 MLOAD SWAP1 POP PUSH3 0x440 DUP2 PUSH3 0x5D4 JUMP JUMPDEST SWAP3 SWAP2 POP POP JUMP JUMPDEST PUSH1 0x0 DUP1 PUSH1 0x0 PUSH1 0x60 DUP5 DUP7 SUB SLT ISZERO PUSH3 0x462 JUMPI PUSH3 0x461 PUSH3 0x59B JUMP JUMPDEST JUMPDEST PUSH1 0x0 PUSH3 0x472 DUP7 DUP3 DUP8 ADD PUSH3 0x42F JUMP JUMPDEST SWAP4 POP POP PUSH1 0x20 PUSH3 0x485 DUP7 DUP3 DUP8 ADD PUSH3 0x418 JUMP JUMPDEST SWAP3 POP POP PUSH1 0x40 PUSH3 0x498 DUP7 DUP3 DUP8 ADD PUSH3 0x401 JUMP JUMPDEST SWAP2 POP POP SWAP3 POP SWAP3 POP SWAP3 JUMP JUMPDEST PUSH3 0x4AD DUP2 PUSH3 0x52C JUMP JUMPDEST DUP3 MSTORE POP POP JUMP JUMPDEST PUSH1 0x0 PUSH1 0x20 DUP3 ADD SWAP1 POP PUSH3 0x4CA PUSH1 0x0 DUP4 ADD DUP5 PUSH3 0x4A2 JUMP JUMPDEST SWAP3 SWAP2 POP POP JUMP JUMPDEST PUSH1 0x0 PUSH3 0x4DD DUP3 PUSH3 0x50C JUMP JUMPDEST SWAP1 POP SWAP2 SWAP1 POP JUMP JUMPDEST PUSH1 0x0 PUSH3 0x4F1 DUP3 PUSH3 0x4D0 JUMP JUMPDEST SWAP1 POP SWAP2 SWAP1 POP JUMP JUMPDEST PUSH1 0x0 PUSH3 0x505 DUP3 PUSH3 0x4D0 JUMP JUMPDEST SWAP1 POP SWAP2 SWAP1 POP JUMP JUMPDEST PUSH1 0x0 PUSH20 0xFFFFFFFFFFFFFFFFFFFFFFFFFFFFFFFFFFFFFFFF DUP3 AND SWAP1 POP SWAP2 SWAP1 POP JUMP JUMPDEST PUSH1 0x0 DUP2 SWAP1 POP SWAP2 SWAP1 POP JUMP JUMPDEST PUSH1 0x0 PUSH1 0x2 DUP3 DIV SWAP1 POP PUSH1 0x1 DUP3 AND DUP1 PUSH3 0x54F JUMPI PUSH1 0x7F DUP3 AND SWAP2 POP JUMPDEST PUSH1 0x20 DUP3 LT DUP2 EQ ISZERO PUSH3 0x566 JUMPI PUSH3 0x565 PUSH3 0x56C JUMP JUMPDEST JUMPDEST POP SWAP2 SWAP1 POP JUMP JUMPDEST PUSH32 0x4E487B7100000000000000000000000000000000000000000000000000000000 PUSH1 0x0 MSTORE PUSH1 0x22 PUSH1 0x4 MSTORE PUSH1 0x24 PUSH1 0x0 REVERT JUMPDEST PUSH1 0x0 DUP1 REVERT JUMPDEST PUSH3 0x5AB DUP2 PUSH3 0x4D0 JUMP JUMPDEST DUP2 EQ PUSH3 0x5B7 JUMPI PUSH1 0x0 DUP1 REVERT JUMPDEST POP JUMP JUMPDEST PUSH3 0x5C5 DUP2 PUSH3 0x4E4 JUMP JUMPDEST DUP2 EQ PUSH3 0x5D1 JUMPI PUSH1 0x0 DUP1 REVERT JUMPDEST POP JUMP JUMPDEST PUSH3 0x5DF DUP2 PUSH3 0x4F8 JUMP JUMPDEST DUP2 EQ PUSH3 0x5EB JUMPI PUSH1 0x0 DUP1 REVERT JUMPDEST POP JUMP JUMPDEST PUSH2 0x5391 DUP1 PUSH3 0x5FE PUSH1 0x0 CODECOPY PUSH1 0x0 RETURN INVALID PUSH1 0x80 PUSH1 0x40 MSTORE CALLVALUE DUP1 ISZERO PUSH2 0x10 JUMPI PUSH1 0x0 DUP1 REVERT JUMPDEST POP PUSH1 0x4 CALLDATASIZE LT PUSH2 0x1CF JUMPI PUSH1 0x0 CALLDATALOAD PUSH1 0xE0 SHR DUP1 PUSH4 0x6352211E GT PUSH2 0x104 JUMPI DUP1 PUSH4 0xADFD537F GT PUSH2 0xA2 JUMPI DUP1 PUSH4 0xE985E9C5 GT PUSH2 0x71 JUMPI DUP1 PUSH4 0xE985E9C5 EQ PUSH2 0x58D JUMPI DUP1 PUSH4 0xF2FDE38B EQ PUSH2 0x5BD JUMPI DUP1 PUSH4 0xF95D4149 EQ PUSH2 0x5D9 JUMPI DUP1 PUSH4 0xFC0C546A EQ PUSH2 0x609 JUMPI PUSH2 0x1CF JUMP JUMPDEST DUP1 PUSH4 0xADFD537F EQ PUSH2 0x4E1 JUMPI DUP1 PUSH4 0xB88D4FDE EQ PUSH2 0x511 JUMPI DUP1 PUSH4 0xC87B56DD EQ PUSH2 0x52D JUMPI DUP1 PUSH4 0xD86ED3E5 EQ PUSH2 0x55D JUMPI PUSH2 0x1CF JUMP JUMPDEST DUP1 PUSH4 0x884D1F40 GT PUSH2 0xDE JUMPI DUP1 PUSH4 0x884D1F40 EQ PUSH2 0x459 JUMPI DUP1 PUSH4 0x8DA5CB5B EQ PUSH2 0x489 JUMPI DUP1 PUSH4 0x95D89B41 EQ PUSH2 0x4A7 JUMPI DUP1 PUSH4 0xA22CB465 EQ PUSH2 0x4C5 JUMPI PUSH2 0x1CF JUMP JUMPDEST DUP1 PUSH4 0x6352211E EQ PUSH2 0x3EF JUMPI DUP1 PUSH4 0x70A08231 EQ PUSH2 0x41F JUMPI DUP1 PUSH4 0x715018A6 EQ PUSH2 0x44F JUMPI PUSH2 0x1CF JUMP JUMPDEST DUP1 PUSH4 0x2986C0E5 GT PUSH2 0x171 JUMPI DUP1 PUSH4 0x42842E0E GT PUSH2 0x14B JUMPI DUP1 PUSH4 0x42842E0E EQ PUSH2 0x357 JUMPI DUP1 PUSH4 0x53C11F99 EQ PUSH2 0x373 JUMPI DUP1 PUSH4 0x57AE14A4 EQ PUSH2 0x3A3 JUMPI DUP1 PUSH4 0x5F9E7D77 EQ PUSH2 0x3BF JUMPI PUSH2 0x1CF JUMP JUMPDEST DUP1 PUSH4 0x2986C0E5 EQ PUSH2 0x2D6 JUMPI DUP1 PUSH4 0x2F066600 EQ PUSH2 0x2F4 JUMPI DUP1 PUSH4 0x30D9C915 EQ PUSH2 0x327 JUMPI PUSH2 0x1CF JUMP JUMPDEST DUP1 PUSH4 0x95EA7B3 GT PUSH2 0x1AD JUMPI DUP1 PUSH4 0x95EA7B3 EQ PUSH2 0x252 JUMPI DUP1 PUSH4 0x1991CC22 EQ PUSH2 0x26E JUMPI DUP1 PUSH4 0x230DBD29 EQ PUSH2 0x28A JUMPI DUP1 PUSH4 0x23B872DD EQ PUSH2 0x2BA JUMPI PUSH2 0x1CF JUMP JUMPDEST DUP1 PUSH4 0x1FFC9A7 EQ PUSH2 0x1D4 JUMPI DUP1 PUSH4 0x6FDDE03 EQ PUSH2 0x204 JUMPI DUP1 PUSH4 0x81812FC EQ PUSH2 0x222 JUMPI JUMPDEST PUSH1 0x0 DUP1 REVERT JUMPDEST PUSH2 0x1EE PUSH1 0x4 DUP1 CALLDATASIZE SUB DUP2 ADD SWAP1 PUSH2 0x1E9 SWAP2 SWAP1 PUSH2 0x372B JUMP JUMPDEST PUSH2 0x627 JUMP JUMPDEST PUSH1 0x40 MLOAD PUSH2 0x1FB SWAP2 SWAP1 PUSH2 0x3FE3 JUMP JUMPDEST PUSH1 0x40 MLOAD DUP1 SWAP2 SUB SWAP1 RETURN JUMPDEST PUSH2 0x20C PUSH2 0x709 JUMP JUMPDEST PUSH1 0x40 MLOAD PUSH2 0x219 SWAP2 SWAP1 PUSH2 0x41FF JUMP JUMPDEST PUSH1 0x40 MLOAD DUP1 SWAP2 SUB SWAP1 RETURN JUMPDEST PUSH2 0x23C PUSH1 0x4 DUP1 CALLDATASIZE SUB DUP2 ADD SWAP1 PUSH2 0x237 SWAP2 SWAP1 PUSH2 0x39A6 JUMP JUMPDEST PUSH2 0x79B JUMP JUMPDEST PUSH1 0x40 MLOAD PUSH2 0x249 SWAP2 SWAP1 PUSH2 0x3F2A JUMP JUMPDEST PUSH1 0x40 MLOAD DUP1 SWAP2 SUB SWAP1 RETURN JUMPDEST PUSH2 0x26C PUSH1 0x4 DUP1 CALLDATASIZE SUB DUP2 ADD SWAP1 PUSH2 0x267 SWAP2 SWAP1 PUSH2 0x3664 JUMP JUMPDEST PUSH2 0x820 JUMP JUMPDEST STOP JUMPDEST PUSH2 0x288 PUSH1 0x4 DUP1 CALLDATASIZE SUB DUP2 ADD SWAP1 PUSH2 0x283 SWAP2 SWAP1 PUSH2 0x36D1 JUMP JUMPDEST PUSH2 0x938 JUMP JUMPDEST STOP JUMPDEST PUSH2 0x2A4 PUSH1 0x4 DUP1 CALLDATASIZE SUB DUP2 ADD SWAP1 PUSH2 0x29F SWAP2 SWAP1 PUSH2 0x388A JUMP JUMPDEST PUSH2 0xC66 JUMP JUMPDEST PUSH1 0x40 MLOAD PUSH2 0x2B1 SWAP2 SWAP1 PUSH2 0x4042 JUMP JUMPDEST PUSH1 0x40 MLOAD DUP1 SWAP2 SUB SWAP1 RETURN JUMPDEST PUSH2 0x2D4 PUSH1 0x4 DUP1 CALLDATASIZE SUB DUP2 ADD SWAP1 PUSH2 0x2CF SWAP2 SWAP1 PUSH2 0x354E JUMP JUMPDEST PUSH2 0xCA3 JUMP JUMPDEST STOP JUMPDEST PUSH2 0x2DE PUSH2 0xD03 JUMP JUMPDEST PUSH1 0x40 MLOAD PUSH2 0x2EB SWAP2 SWAP1 PUSH2 0x4561 JUMP JUMPDEST PUSH1 0x40 MLOAD DUP1 SWAP2 SUB SWAP1 RETURN JUMPDEST PUSH2 0x30E PUSH1 0x4 DUP1 CALLDATASIZE SUB DUP2 ADD SWAP1 PUSH2 0x309 SWAP2 SWAP1 PUSH2 0x39A6 JUMP JUMPDEST PUSH2 0xD09 JUMP JUMPDEST PUSH1 0x40 MLOAD PUSH2 0x31E SWAP5 SWAP4 SWAP3 SWAP2 SWAP1 PUSH2 0x41BA JUMP JUMPDEST PUSH1 0x40 MLOAD DUP1 SWAP2 SUB SWAP1 RETURN JUMPDEST PUSH2 0x341 PUSH1 0x4 DUP1 CALLDATASIZE SUB DUP2 ADD SWAP1 PUSH2 0x33C SWAP2 SWAP1 PUSH2 0x37CE JUMP JUMPDEST PUSH2 0xD66 JUMP JUMPDEST PUSH1 0x40 MLOAD PUSH2 0x34E SWAP2 SWAP1 PUSH2 0x4042 JUMP JUMPDEST PUSH1 0x40 MLOAD DUP1 SWAP2 SUB SWAP1 RETURN JUMPDEST PUSH2 0x371 PUSH1 0x4 DUP1 CALLDATASIZE SUB DUP2 ADD SWAP1 PUSH2 0x36C SWAP2 SWAP1 PUSH2 0x354E JUMP JUMPDEST PUSH2 0xDA3 JUMP JUMPDEST STOP JUMPDEST PUSH2 0x38D PUSH1 0x4 DUP1 CALLDATASIZE SUB DUP2 ADD SWAP1 PUSH2 0x388 SWAP2 SWAP1 PUSH2 0x388A JUMP JUMPDEST PUSH2 0xDC3 JUMP JUMPDEST PUSH1 0x40 MLOAD PUSH2 0x39A SWAP2 SWAP1 PUSH2 0x4042 JUMP JUMPDEST PUSH1 0x40 MLOAD DUP1 SWAP2 SUB SWAP1 RETURN JUMPDEST PUSH2 0x3BD PUSH1 0x4 DUP1 CALLDATASIZE SUB DUP2 ADD SWAP1 PUSH2 0x3B8 SWAP2 SWAP1 PUSH2 0x34E7 JUMP JUMPDEST PUSH2 0x12C2 JUMP JUMPDEST STOP JUMPDEST PUSH2 0x3D9 PUSH1 0x4 DUP1 CALLDATASIZE SUB DUP2 ADD SWAP1 PUSH2 0x3D4 SWAP2 SWAP1 PUSH2 0x37CE JUMP JUMPDEST PUSH2 0x1535 JUMP JUMPDEST PUSH1 0x40 MLOAD PUSH2 0x3E6 SWAP2 SWAP1 PUSH2 0x4042 JUMP JUMPDEST PUSH1 0x40 MLOAD DUP1 SWAP2 SUB SWAP1 RETURN JUMPDEST PUSH2 0x409 PUSH1 0x4 DUP1 CALLDATASIZE SUB DUP2 ADD SWAP1 PUSH2 0x404 SWAP2 SWAP1 PUSH2 0x39A6 JUMP JUMPDEST PUSH2 0x1572 JUMP JUMPDEST PUSH1 0x40 MLOAD PUSH2 0x416 SWAP2 SWAP1 PUSH2 0x3F2A JUMP JUMPDEST PUSH1 0x40 MLOAD DUP1 SWAP2 SUB SWAP1 RETURN JUMPDEST PUSH2 0x439 PUSH1 0x4 DUP1 CALLDATASIZE SUB DUP2 ADD SWAP1 PUSH2 0x434 SWAP2 SWAP1 PUSH2 0x347A JUMP JUMPDEST PUSH2 0x1624 JUMP JUMPDEST PUSH1 0x40 MLOAD PUSH2 0x446 SWAP2 SWAP1 PUSH2 0x4561 JUMP JUMPDEST PUSH1 0x40 MLOAD DUP1 SWAP2 SUB SWAP1 RETURN JUMPDEST PUSH2 0x457 PUSH2 0x16DC JUMP JUMPDEST STOP JUMPDEST PUSH2 0x473 PUSH1 0x4 DUP1 CALLDATASIZE SUB DUP2 ADD SWAP1 PUSH2 0x46E SWAP2 SWAP1 PUSH2 0x37CE JUMP JUMPDEST PUSH2 0x1764 JUMP JUMPDEST PUSH1 0x40 MLOAD PUSH2 0x480 SWAP2 SWAP1 PUSH2 0x4042 JUMP JUMPDEST PUSH1 0x40 MLOAD DUP1 SWAP2 SUB SWAP1 RETURN JUMPDEST PUSH2 0x491 PUSH2 0x17A1 JUMP JUMPDEST PUSH1 0x40 MLOAD PUSH2 0x49E SWAP2 SWAP1 PUSH2 0x3F2A JUMP JUMPDEST PUSH1 0x40 MLOAD DUP1 SWAP2 SUB SWAP1 RETURN JUMPDEST PUSH2 0x4AF PUSH2 0x17CB JUMP JUMPDEST PUSH1 0x40 MLOAD PUSH2 0x4BC SWAP2 SWAP1 PUSH2 0x41FF JUMP JUMPDEST PUSH1 0x40 MLOAD DUP1 SWAP2 SUB SWAP1 RETURN JUMPDEST PUSH2 0x4DF PUSH1 0x4 DUP1 CALLDATASIZE SUB DUP2 ADD SWAP1 PUSH2 0x4DA SWAP2 SWAP1 PUSH2 0x3624 JUMP JUMPDEST PUSH2 0x185D JUMP JUMPDEST STOP JUMPDEST PUSH2 0x4FB PUSH1 0x4 DUP1 CALLDATASIZE SUB DUP2 ADD SWAP1 PUSH2 0x4F6 SWAP2 SWAP1 PUSH2 0x34A7 JUMP JUMPDEST PUSH2 0x1873 JUMP JUMPDEST PUSH1 0x40 MLOAD PUSH2 0x508 SWAP2 SWAP1 PUSH2 0x3FFE JUMP JUMPDEST PUSH1 0x40 MLOAD DUP1 SWAP2 SUB SWAP1 RETURN JUMPDEST PUSH2 0x52B PUSH1 0x4 DUP1 CALLDATASIZE SUB DUP2 ADD SWAP1 PUSH2 0x526 SWAP2 SWAP1 PUSH2 0x35A1 JUMP JUMPDEST PUSH2 0x18A6 JUMP JUMPDEST STOP JUMPDEST PUSH2 0x547 PUSH1 0x4 DUP1 CALLDATASIZE SUB DUP2 ADD SWAP1 PUSH2 0x542 SWAP2 SWAP1 PUSH2 0x39A6 JUMP JUMPDEST PUSH2 0x1908 JUMP JUMPDEST PUSH1 0x40 MLOAD PUSH2 0x554 SWAP2 SWAP1 PUSH2 0x41FF JUMP JUMPDEST PUSH1 0x40 MLOAD DUP1 SWAP2 SUB SWAP1 RETURN JUMPDEST PUSH2 0x577 PUSH1 0x4 DUP1 CALLDATASIZE SUB DUP2 ADD SWAP1 PUSH2 0x572 SWAP2 SWAP1 PUSH2 0x388A JUMP JUMPDEST PUSH2 0x19AF JUMP JUMPDEST PUSH1 0x40 MLOAD PUSH2 0x584 SWAP2 SWAP1 PUSH2 0x4042 JUMP JUMPDEST PUSH1 0x40 MLOAD DUP1 SWAP2 SUB SWAP1 RETURN JUMPDEST PUSH2 0x5A7 PUSH1 0x4 DUP1 CALLDATASIZE SUB DUP2 ADD SWAP1 PUSH2 0x5A2 SWAP2 SWAP1 PUSH2 0x34A7 JUMP JUMPDEST PUSH2 0x19EC JUMP JUMPDEST PUSH1 0x40 MLOAD PUSH2 0x5B4 SWAP2 SWAP1 PUSH2 0x3FE3 JUMP JUMPDEST PUSH1 0x40 MLOAD DUP1 SWAP2 SUB SWAP1 RETURN JUMPDEST PUSH2 0x5D7 PUSH1 0x4 DUP1 CALLDATASIZE SUB DUP2 ADD SWAP1 PUSH2 0x5D2 SWAP2 SWAP1 PUSH2 0x347A JUMP JUMPDEST PUSH2 0x1A80 JUMP JUMPDEST STOP JUMPDEST PUSH2 0x5F3 PUSH1 0x4 DUP1 CALLDATASIZE SUB DUP2 ADD SWAP1 PUSH2 0x5EE SWAP2 SWAP1 PUSH2 0x36D1 JUMP JUMPDEST PUSH2 0x1B78 JUMP JUMPDEST PUSH1 0x40 MLOAD PUSH2 0x600 SWAP2 SWAP1 PUSH2 0x4561 JUMP JUMPDEST PUSH1 0x40 MLOAD DUP1 SWAP2 SUB SWAP1 RETURN JUMPDEST PUSH2 0x611 PUSH2 0x1B90 JUMP JUMPDEST PUSH1 0x40 MLOAD PUSH2 0x61E SWAP2 SWAP1 PUSH2 0x40A7 JUMP JUMPDEST PUSH1 0x40 MLOAD DUP1 SWAP2 SUB SWAP1 RETURN JUMPDEST PUSH1 0x0 PUSH32 0x80AC58CD00000000000000000000000000000000000000000000000000000000 PUSH28 0xFFFFFFFFFFFFFFFFFFFFFFFFFFFFFFFFFFFFFFFFFFFFFFFFFFFFFFFF NOT AND DUP3 PUSH28 0xFFFFFFFFFFFFFFFFFFFFFFFFFFFFFFFFFFFFFFFFFFFFFFFFFFFFFFFF NOT AND EQ DUP1 PUSH2 0x6F2 JUMPI POP PUSH32 0x5B5E139F00000000000000000000000000000000000000000000000000000000 PUSH28 0xFFFFFFFFFFFFFFFFFFFFFFFFFFFFFFFFFFFFFFFFFFFFFFFFFFFFFFFF NOT AND DUP3 PUSH28 0xFFFFFFFFFFFFFFFFFFFFFFFFFFFFFFFFFFFFFFFFFFFFFFFFFFFFFFFF NOT AND EQ JUMPDEST DUP1 PUSH2 0x702 JUMPI POP PUSH2 0x701 DUP3 PUSH2 0x1BB6 JUMP JUMPDEST JUMPDEST SWAP1 POP SWAP2 SWAP1 POP JUMP JUMPDEST PUSH1 0x60 PUSH1 0x0 DUP1 SLOAD PUSH2 0x718 SWAP1 PUSH2 0x4915 JUMP JUMPDEST DUP1 PUSH1 0x1F ADD PUSH1 0x20 DUP1 SWAP2 DIV MUL PUSH1 0x20 ADD PUSH1 0x40 MLOAD SWAP1 DUP2 ADD PUSH1 0x40 MSTORE DUP1 SWAP3 SWAP2 SWAP1 DUP2 DUP2 MSTORE PUSH1 0x20 ADD DUP3 DUP1 SLOAD PUSH2 0x744 SWAP1 PUSH2 0x4915 JUMP JUMPDEST DUP1 ISZERO PUSH2 0x791 JUMPI DUP1 PUSH1 0x1F LT PUSH2 0x766 JUMPI PUSH2 0x100 DUP1 DUP4 SLOAD DIV MUL DUP4 MSTORE SWAP2 PUSH1 0x20 ADD SWAP2 PUSH2 0x791 JUMP JUMPDEST DUP3 ADD SWAP2 SWAP1 PUSH1 0x0 MSTORE PUSH1 0x20 PUSH1 0x0 KECCAK256 SWAP1 JUMPDEST DUP2 SLOAD DUP2 MSTORE SWAP1 PUSH1 0x1 ADD SWAP1 PUSH1 0x20 ADD DUP1 DUP4 GT PUSH2 0x774 JUMPI DUP3 SWAP1 SUB PUSH1 0x1F AND DUP3 ADD SWAP2 JUMPDEST POP POP POP POP POP SWAP1 POP SWAP1 JUMP JUMPDEST PUSH1 0x0 PUSH2 0x7A6 DUP3 PUSH2 0x1C20 JUMP JUMPDEST PUSH2 0x7E5 JUMPI PUSH1 0x40 MLOAD PUSH32 0x8C379A000000000000000000000000000000000000000000000000000000000 DUP2 MSTORE PUSH1 0x4 ADD PUSH2 0x7DC SWAP1 PUSH2 0x4401 JUMP JUMPDEST PUSH1 0x40 MLOAD DUP1 SWAP2 SUB SWAP1 REVERT JUMPDEST PUSH1 0x4 PUSH1 0x0 DUP4 DUP2 MSTORE PUSH1 0x20 ADD SWAP1 DUP2 MSTORE PUSH1 0x20 ADD PUSH1 0x0 KECCAK256 PUSH1 0x0 SWAP1 SLOAD SWAP1 PUSH2 0x100 EXP SWAP1 DIV PUSH20 0xFFFFFFFFFFFFFFFFFFFFFFFFFFFFFFFFFFFFFFFF AND SWAP1 POP SWAP2 SWAP1 POP JUMP JUMPDEST PUSH1 0x0 PUSH2 0x82B DUP3 PUSH2 0x1572 JUMP JUMPDEST SWAP1 POP DUP1 PUSH20 0xFFFFFFFFFFFFFFFFFFFFFFFFFFFFFFFFFFFFFFFF AND DUP4 PUSH20 0xFFFFFFFFFFFFFFFFFFFFFFFFFFFFFFFFFFFFFFFF AND EQ ISZERO PUSH2 0x89C JUMPI PUSH1 0x40 MLOAD PUSH32 0x8C379A000000000000000000000000000000000000000000000000000000000 DUP2 MSTORE PUSH1 0x4 ADD PUSH2 0x893 SWAP1 PUSH2 0x44A1 JUMP JUMPDEST PUSH1 0x40 MLOAD DUP1 SWAP2 SUB SWAP1 REVERT JUMPDEST DUP1 PUSH20 0xFFFFFFFFFFFFFFFFFFFFFFFFFFFFFFFFFFFFFFFF AND PUSH2 0x8BB PUSH2 0x1C8C JUMP JUMPDEST PUSH20 0xFFFFFFFFFFFFFFFFFFFFFFFFFFFFFFFFFFFFFFFF AND EQ DUP1 PUSH2 0x8EA JUMPI POP PUSH2 0x8E9 DUP2 PUSH2 0x8E4 PUSH2 0x1C8C JUMP JUMPDEST PUSH2 0x19EC JUMP JUMPDEST JUMPDEST PUSH2 0x929 JUMPI PUSH1 0x40 MLOAD PUSH32 0x8C379A000000000000000000000000000000000000000000000000000000000 DUP2 MSTORE PUSH1 0x4 ADD PUSH2 0x920 SWAP1 PUSH2 0x4381 JUMP JUMPDEST PUSH1 0x40 MLOAD DUP1 SWAP2 SUB SWAP1 REVERT JUMPDEST PUSH2 0x933 DUP4 DUP4 PUSH2 0x1C94 JUMP JUMPDEST POP POP POP JUMP JUMPDEST PUSH1 0x0 PUSH1 0xB PUSH1 0x0 DUP4 DUP2 MSTORE PUSH1 0x20 ADD SWAP1 DUP2 MSTORE PUSH1 0x20 ADD PUSH1 0x0 KECCAK256 SLOAD SWAP1 POP PUSH1 0x0 PUSH2 0x95B DUP3 PUSH2 0x1572 JUMP JUMPDEST SWAP1 POP PUSH1 0x0 PUSH1 0xC PUSH1 0x0 DUP5 DUP2 MSTORE PUSH1 0x20 ADD SWAP1 DUP2 MSTORE PUSH1 0x20 ADD PUSH1 0x0 KECCAK256 SWAP1 POP PUSH1 0x0 DUP2 PUSH1 0x0 ADD PUSH1 0x0 SWAP1 SLOAD SWAP1 PUSH2 0x100 EXP SWAP1 DIV PUSH1 0xB SIGNEXTEND SWAP1 POP PUSH1 0x0 PUSH1 0x9 PUSH1 0x0 SWAP1 SLOAD SWAP1 PUSH2 0x100 EXP SWAP1 DIV PUSH20 0xFFFFFFFFFFFFFFFFFFFFFFFFFFFFFFFFFFFFFFFF AND PUSH20 0xFFFFFFFFFFFFFFFFFFFFFFFFFFFFFFFFFFFFFFFF AND PUSH4 0xE6A1E888 PUSH1 0xA PUSH1 0x0 SWAP1 SLOAD SWAP1 PUSH2 0x100 EXP SWAP1 DIV PUSH20 0xFFFFFFFFFFFFFFFFFFFFFFFFFFFFFFFFFFFFFFFF AND ADDRESS DUP8 PUSH1 0x40 MLOAD DUP5 PUSH4 0xFFFFFFFF AND PUSH1 0xE0 SHL DUP2 MSTORE PUSH1 0x4 ADD PUSH2 0xA0D SWAP4 SWAP3 SWAP2 SWAP1 PUSH2 0x40C2 JUMP JUMPDEST PUSH1 0x80 PUSH1 0x40 MLOAD DUP1 DUP4 SUB DUP2 DUP7 DUP1 EXTCODESIZE ISZERO DUP1 ISZERO PUSH2 0xA25 JUMPI PUSH1 0x0 DUP1 REVERT JUMPDEST POP GAS STATICCALL ISZERO DUP1 ISZERO PUSH2 0xA39 JUMPI RETURNDATASIZE PUSH1 0x0 DUP1 RETURNDATACOPY RETURNDATASIZE PUSH1 0x0 REVERT JUMPDEST POP POP POP POP PUSH1 0x40 MLOAD RETURNDATASIZE PUSH1 0x1F NOT PUSH1 0x1F DUP3 ADD AND DUP3 ADD DUP1 PUSH1 0x40 MSTORE POP DUP2 ADD SWAP1 PUSH2 0xA5D SWAP2 SWAP1 PUSH2 0x39D3 JUMP JUMPDEST POP POP SWAP2 POP POP PUSH1 0x0 DUP3 DUP3 PUSH2 0xA70 SWAP2 SWAP1 PUSH2 0x4730 JUMP JUMPDEST SWAP1 POP PUSH1 0x0 DUP2 PUSH1 0xB SIGNEXTEND SGT PUSH2 0xAB7 JUMPI PUSH32 0x8C379A0AFCC32B1A39302F7CB8073359698411AB5FD6E3EDB2C02C0B5FBA8AA PUSH1 0x40 MLOAD PUSH2 0xAAA SWAP1 PUSH2 0x4481 JUMP JUMPDEST PUSH1 0x40 MLOAD DUP1 SWAP2 SUB SWAP1 LOG1 PUSH2 0xAF9 JUMP JUMPDEST PUSH1 0x0 DUP5 PUSH1 0x0 ADD PUSH1 0x0 PUSH2 0x100 EXP DUP2 SLOAD DUP2 PUSH12 0xFFFFFFFFFFFFFFFFFFFFFFFF MUL NOT AND SWAP1 DUP4 PUSH1 0xB SIGNEXTEND PUSH12 0xFFFFFFFFFFFFFFFFFFFFFFFF AND MUL OR SWAP1 SSTORE POP PUSH2 0xAF8 DUP6 DUP3 PUSH2 0x1D4D JUMP JUMPDEST JUMPDEST PUSH1 0x0 DUP5 PUSH1 0x2 ADD SLOAD DUP6 PUSH1 0x3 ADD PUSH1 0x0 SWAP1 SLOAD SWAP1 PUSH2 0x100 EXP SWAP1 DIV PUSH20 0xFFFFFFFFFFFFFFFFFFFFFFFFFFFFFFFFFFFFFFFF AND PUSH20 0xFFFFFFFFFFFFFFFFFFFFFFFFFFFFFFFFFFFFFFFF AND PUSH4 0x76D560D7 DUP8 PUSH1 0x1 ADD SLOAD PUSH1 0x40 MLOAD DUP3 PUSH4 0xFFFFFFFF AND PUSH1 0xE0 SHL DUP2 MSTORE PUSH1 0x4 ADD PUSH2 0xB61 SWAP2 SWAP1 PUSH2 0x4561 JUMP JUMPDEST PUSH1 0x20 PUSH1 0x40 MLOAD DUP1 DUP4 SUB DUP2 DUP7 DUP1 EXTCODESIZE ISZERO DUP1 ISZERO PUSH2 0xB79 JUMPI PUSH1 0x0 DUP1 REVERT JUMPDEST POP GAS STATICCALL ISZERO DUP1 ISZERO PUSH2 0xB8D JUMPI RETURNDATASIZE PUSH1 0x0 DUP1 RETURNDATACOPY RETURNDATASIZE PUSH1 0x0 REVERT JUMPDEST POP POP POP POP PUSH1 0x40 MLOAD RETURNDATASIZE PUSH1 0x1F NOT PUSH1 0x1F DUP3 ADD AND DUP3 ADD DUP1 PUSH1 0x40 MSTORE POP DUP2 ADD SWAP1 PUSH2 0xBB1 SWAP2 SWAP1 PUSH2 0x3979 JUMP JUMPDEST PUSH2 0xBBB SWAP2 SWAP1 PUSH2 0x469C JUMP JUMPDEST SWAP1 POP DUP6 PUSH20 0xFFFFFFFFFFFFFFFFFFFFFFFFFFFFFFFFFFFFFFFF AND PUSH4 0xB47E6945 DUP3 PUSH2 0xBEF PUSH1 0x1 DUP12 PUSH2 0xBEA SWAP2 SWAP1 PUSH2 0x4615 JUMP JUMPDEST PUSH2 0x1572 JUMP JUMPDEST PUSH1 0x40 MLOAD DUP4 PUSH4 0xFFFFFFFF AND PUSH1 0xE0 SHL DUP2 MSTORE PUSH1 0x4 ADD PUSH2 0xC0C SWAP3 SWAP2 SWAP1 PUSH2 0x4191 JUMP JUMPDEST PUSH1 0x0 PUSH1 0x40 MLOAD DUP1 DUP4 SUB DUP2 PUSH1 0x0 DUP8 DUP1 EXTCODESIZE ISZERO DUP1 ISZERO PUSH2 0xC26 JUMPI PUSH1 0x0 DUP1 REVERT JUMPDEST POP GAS CALL ISZERO DUP1 ISZERO PUSH2 0xC3A JUMPI RETURNDATASIZE PUSH1 0x0 DUP1 RETURNDATACOPY RETURNDATASIZE PUSH1 0x0 REVERT JUMPDEST POP POP POP POP PUSH2 0xC47 DUP8 PUSH2 0x2392 JUMP JUMPDEST PUSH2 0xC5C PUSH1 0x1 DUP9 PUSH2 0xC57 SWAP2 SWAP1 PUSH2 0x4615 JUMP JUMPDEST PUSH2 0x2392 JUMP JUMPDEST POP POP POP POP POP POP POP POP JUMP JUMPDEST PUSH1 0x60 PUSH1 0x40 MLOAD PUSH32 0x8C379A000000000000000000000000000000000000000000000000000000000 DUP2 MSTORE PUSH1 0x4 ADD PUSH2 0xC9A SWAP1 PUSH2 0x4521 JUMP JUMPDEST PUSH1 0x40 MLOAD DUP1 SWAP2 SUB SWAP1 REVERT JUMPDEST PUSH2 0xCB4 PUSH2 0xCAE PUSH2 0x1C8C JUMP JUMPDEST DUP3 PUSH2 0x24A3 JUMP JUMPDEST PUSH2 0xCF3 JUMPI PUSH1 0x40 MLOAD PUSH32 0x8C379A000000000000000000000000000000000000000000000000000000000 DUP2 MSTORE PUSH1 0x4 ADD PUSH2 0xCEA SWAP1 PUSH2 0x4501 JUMP JUMPDEST PUSH1 0x40 MLOAD DUP1 SWAP2 SUB SWAP1 REVERT JUMPDEST PUSH2 0xCFE DUP4 DUP4 DUP4 PUSH2 0x2581 JUMP JUMPDEST POP POP POP JUMP JUMPDEST PUSH1 0x7 SLOAD DUP2 JUMP JUMPDEST PUSH1 0xC PUSH1 0x20 MSTORE DUP1 PUSH1 0x0 MSTORE PUSH1 0x40 PUSH1 0x0 KECCAK256 PUSH1 0x0 SWAP2 POP SWAP1 POP DUP1 PUSH1 0x0 ADD PUSH1 0x0 SWAP1 SLOAD SWAP1 PUSH2 0x100 EXP SWAP1 DIV PUSH1 0xB SIGNEXTEND SWAP1 DUP1 PUSH1 0x1 ADD SLOAD SWAP1 DUP1 PUSH1 0x2 ADD SLOAD SWAP1 DUP1 PUSH1 0x3 ADD PUSH1 0x0 SWAP1 SLOAD SWAP1 PUSH2 0x100 EXP SWAP1 DIV PUSH20 0xFFFFFFFFFFFFFFFFFFFFFFFFFFFFFFFFFFFFFFFF AND SWAP1 POP DUP5 JUMP JUMPDEST PUSH1 0x60 PUSH1 0x40 MLOAD PUSH32 0x8C379A000000000000000000000000000000000000000000000000000000000 DUP2 MSTORE PUSH1 0x4 ADD PUSH2 0xD9A SWAP1 PUSH2 0x4541 JUMP JUMPDEST PUSH1 0x40 MLOAD DUP1 SWAP2 SUB SWAP1 REVERT JUMPDEST PUSH2 0xDBE DUP4 DUP4 DUP4 PUSH1 0x40 MLOAD DUP1 PUSH1 0x20 ADD PUSH1 0x40 MSTORE DUP1 PUSH1 0x0 DUP2 MSTORE POP PUSH2 0x18A6 JUMP JUMPDEST POP POP POP JUMP JUMPDEST PUSH1 0x60 PUSH1 0x8 PUSH1 0x0 SWAP1 SLOAD SWAP1 PUSH2 0x100 EXP SWAP1 DIV PUSH20 0xFFFFFFFFFFFFFFFFFFFFFFFFFFFFFFFFFFFFFFFF AND PUSH20 0xFFFFFFFFFFFFFFFFFFFFFFFFFFFFFFFFFFFFFFFF AND CALLER PUSH20 0xFFFFFFFFFFFFFFFFFFFFFFFFFFFFFFFFFFFFFFFF AND EQ PUSH2 0xE55 JUMPI PUSH1 0x40 MLOAD PUSH32 0x8C379A000000000000000000000000000000000000000000000000000000000 DUP2 MSTORE PUSH1 0x4 ADD PUSH2 0xE4C SWAP1 PUSH2 0x4301 JUMP JUMPDEST PUSH1 0x40 MLOAD DUP1 SWAP2 SUB SWAP1 REVERT JUMPDEST PUSH1 0xA PUSH1 0x0 SWAP1 SLOAD SWAP1 PUSH2 0x100 EXP SWAP1 DIV PUSH20 0xFFFFFFFFFFFFFFFFFFFFFFFFFFFFFFFFFFFFFFFF AND PUSH20 0xFFFFFFFFFFFFFFFFFFFFFFFFFFFFFFFFFFFFFFFF AND DUP11 PUSH20 0xFFFFFFFFFFFFFFFFFFFFFFFFFFFFFFFFFFFFFFFF AND EQ ISZERO DUP1 PUSH2 0xEB8 JUMPI POP PUSH2 0xEB6 DUP10 PUSH2 0x27DD JUMP JUMPDEST ISZERO JUMPDEST ISZERO PUSH2 0xF09 JUMPI DUP3 DUP3 DUP1 DUP1 PUSH1 0x1F ADD PUSH1 0x20 DUP1 SWAP2 DIV MUL PUSH1 0x20 ADD PUSH1 0x40 MLOAD SWAP1 DUP2 ADD PUSH1 0x40 MSTORE DUP1 SWAP4 SWAP3 SWAP2 SWAP1 DUP2 DUP2 MSTORE PUSH1 0x20 ADD DUP4 DUP4 DUP1 DUP3 DUP5 CALLDATACOPY PUSH1 0x0 DUP2 DUP5 ADD MSTORE PUSH1 0x1F NOT PUSH1 0x1F DUP3 ADD AND SWAP1 POP DUP1 DUP4 ADD SWAP3 POP POP POP POP POP POP POP SWAP1 POP PUSH2 0x12B5 JUMP JUMPDEST PUSH1 0x0 PUSH1 0xB PUSH1 0x0 DUP11 DUP2 MSTORE PUSH1 0x20 ADD SWAP1 DUP2 MSTORE PUSH1 0x20 ADD PUSH1 0x0 KECCAK256 SLOAD SWAP1 POP PUSH1 0x0 PUSH2 0xF2C DUP3 PUSH2 0x1572 JUMP JUMPDEST SWAP1 POP PUSH1 0x0 PUSH1 0xC PUSH1 0x0 DUP5 DUP2 MSTORE PUSH1 0x20 ADD SWAP1 DUP2 MSTORE PUSH1 0x20 ADD PUSH1 0x0 KECCAK256 SWAP1 POP PUSH1 0x0 DUP2 PUSH1 0x0 ADD PUSH1 0x0 SWAP1 SLOAD SWAP1 PUSH2 0x100 EXP SWAP1 DIV PUSH1 0xB SIGNEXTEND SWAP1 POP PUSH1 0x0 PUSH1 0x9 PUSH1 0x0 SWAP1 SLOAD SWAP1 PUSH2 0x100 EXP SWAP1 DIV PUSH20 0xFFFFFFFFFFFFFFFFFFFFFFFFFFFFFFFFFFFFFFFF AND PUSH20 0xFFFFFFFFFFFFFFFFFFFFFFFFFFFFFFFFFFFFFFFF AND PUSH4 0xE6A1E888 PUSH1 0xA PUSH1 0x0 SWAP1 SLOAD SWAP1 PUSH2 0x100 EXP SWAP1 DIV PUSH20 0xFFFFFFFFFFFFFFFFFFFFFFFFFFFFFFFFFFFFFFFF AND ADDRESS DUP8 PUSH1 0x40 MLOAD DUP5 PUSH4 0xFFFFFFFF AND PUSH1 0xE0 SHL DUP2 MSTORE PUSH1 0x4 ADD PUSH2 0xFDE SWAP4 SWAP3 SWAP2 SWAP1 PUSH2 0x40C2 JUMP JUMPDEST PUSH1 0x80 PUSH1 0x40 MLOAD DUP1 DUP4 SUB DUP2 DUP7 DUP1 EXTCODESIZE ISZERO DUP1 ISZERO PUSH2 0xFF6 JUMPI PUSH1 0x0 DUP1 REVERT JUMPDEST POP GAS STATICCALL ISZERO DUP1 ISZERO PUSH2 0x100A JUMPI RETURNDATASIZE PUSH1 0x0 DUP1 RETURNDATACOPY RETURNDATASIZE PUSH1 0x0 REVERT JUMPDEST POP POP POP POP PUSH1 0x40 MLOAD RETURNDATASIZE PUSH1 0x1F NOT PUSH1 0x1F DUP3 ADD AND DUP3 ADD DUP1 PUSH1 0x40 MSTORE POP DUP2 ADD SWAP1 PUSH2 0x102E SWAP2 SWAP1 PUSH2 0x39D3 JUMP JUMPDEST POP POP SWAP2 POP POP PUSH1 0x0 DUP3 DUP3 PUSH2 0x1041 SWAP2 SWAP1 PUSH2 0x4730 JUMP JUMPDEST SWAP1 POP PUSH1 0x0 DUP2 PUSH1 0xB SIGNEXTEND SGT PUSH2 0x1088 JUMPI PUSH32 0x8C379A0AFCC32B1A39302F7CB8073359698411AB5FD6E3EDB2C02C0B5FBA8AA PUSH1 0x40 MLOAD PUSH2 0x107B SWAP1 PUSH2 0x4481 JUMP JUMPDEST PUSH1 0x40 MLOAD DUP1 SWAP2 SUB SWAP1 LOG1 PUSH2 0x10CA JUMP JUMPDEST PUSH1 0x0 DUP5 PUSH1 0x0 ADD PUSH1 0x0 PUSH2 0x100 EXP DUP2 SLOAD DUP2 PUSH12 0xFFFFFFFFFFFFFFFFFFFFFFFF MUL NOT AND SWAP1 DUP4 PUSH1 0xB SIGNEXTEND PUSH12 0xFFFFFFFFFFFFFFFFFFFFFFFF AND MUL OR SWAP1 SSTORE POP PUSH2 0x10C9 DUP6 DUP3 PUSH2 0x1D4D JUMP JUMPDEST JUMPDEST PUSH1 0x0 DUP5 PUSH1 0x2 ADD SLOAD DUP6 PUSH1 0x3 ADD PUSH1 0x0 SWAP1 SLOAD SWAP1 PUSH2 0x100 EXP SWAP1 DIV PUSH20 0xFFFFFFFFFFFFFFFFFFFFFFFFFFFFFFFFFFFFFFFF AND PUSH20 0xFFFFFFFFFFFFFFFFFFFFFFFFFFFFFFFFFFFFFFFF AND PUSH4 0x76D560D7 DUP8 PUSH1 0x1 ADD SLOAD PUSH1 0x40 MLOAD DUP3 PUSH4 0xFFFFFFFF AND PUSH1 0xE0 SHL DUP2 MSTORE PUSH1 0x4 ADD PUSH2 0x1132 SWAP2 SWAP1 PUSH2 0x4561 JUMP JUMPDEST PUSH1 0x20 PUSH1 0x40 MLOAD DUP1 DUP4 SUB DUP2 DUP7 DUP1 EXTCODESIZE ISZERO DUP1 ISZERO PUSH2 0x114A JUMPI PUSH1 0x0 DUP1 REVERT JUMPDEST POP GAS STATICCALL ISZERO DUP1 ISZERO PUSH2 0x115E JUMPI RETURNDATASIZE PUSH1 0x0 DUP1 RETURNDATACOPY RETURNDATASIZE PUSH1 0x0 REVERT JUMPDEST POP POP POP POP PUSH1 0x40 MLOAD RETURNDATASIZE PUSH1 0x1F NOT PUSH1 0x1F DUP3 ADD AND DUP3 ADD DUP1 PUSH1 0x40 MSTORE POP DUP2 ADD SWAP1 PUSH2 0x1182 SWAP2 SWAP1 PUSH2 0x3979 JUMP JUMPDEST PUSH2 0x118C SWAP2 SWAP1 PUSH2 0x469C JUMP JUMPDEST SWAP1 POP DUP6 PUSH20 0xFFFFFFFFFFFFFFFFFFFFFFFFFFFFFFFFFFFFFFFF AND PUSH4 0xB47E6945 DUP3 PUSH2 0x11C0 PUSH1 0x1 DUP12 PUSH2 0x11BB SWAP2 SWAP1 PUSH2 0x4615 JUMP JUMPDEST PUSH2 0x1572 JUMP JUMPDEST PUSH1 0x40 MLOAD DUP4 PUSH4 0xFFFFFFFF AND PUSH1 0xE0 SHL DUP2 MSTORE PUSH1 0x4 ADD PUSH2 0x11DD SWAP3 SWAP2 SWAP1 PUSH2 0x4191 JUMP JUMPDEST PUSH1 0x0 PUSH1 0x40 MLOAD DUP1 DUP4 SUB DUP2 PUSH1 0x0 DUP8 DUP1 EXTCODESIZE ISZERO DUP1 ISZERO PUSH2 0x11F7 JUMPI PUSH1 0x0 DUP1 REVERT JUMPDEST POP GAS CALL ISZERO DUP1 ISZERO PUSH2 0x120B JUMPI RETURNDATASIZE PUSH1 0x0 DUP1 RETURNDATACOPY RETURNDATASIZE PUSH1 0x0 REVERT JUMPDEST POP POP POP POP PUSH32 0x8F52679FD68A182E0893BBDDA22576FA29342A49A9BE10F9970CEEFDB089B2C0 DUP16 DUP6 PUSH1 0x40 MLOAD PUSH2 0x1240 SWAP3 SWAP2 SWAP1 PUSH2 0x4019 JUMP JUMPDEST PUSH1 0x40 MLOAD DUP1 SWAP2 SUB SWAP1 LOG1 PUSH2 0x1251 DUP8 PUSH2 0x2392 JUMP JUMPDEST PUSH2 0x1266 PUSH1 0x1 DUP9 PUSH2 0x1261 SWAP2 SWAP1 PUSH2 0x4615 JUMP JUMPDEST PUSH2 0x2392 JUMP JUMPDEST DUP10 DUP10 DUP1 DUP1 PUSH1 0x1F ADD PUSH1 0x20 DUP1 SWAP2 DIV MUL PUSH1 0x20 ADD PUSH1 0x40 MLOAD SWAP1 DUP2 ADD PUSH1 0x40 MSTORE DUP1 SWAP4 SWAP3 SWAP2 SWAP1 DUP2 DUP2 MSTORE PUSH1 0x20 ADD DUP4 DUP4 DUP1 DUP3 DUP5 CALLDATACOPY PUSH1 0x0 DUP2 DUP5 ADD MSTORE PUSH1 0x1F NOT PUSH1 0x1F DUP3 ADD AND SWAP1 POP DUP1 DUP4 ADD SWAP3 POP POP POP POP POP POP POP SWAP8 POP POP POP POP POP POP POP POP JUMPDEST SWAP10 SWAP9 POP POP POP POP POP POP POP POP POP JUMP JUMPDEST PUSH1 0x0 PUSH1 0x9 PUSH1 0x0 SWAP1 SLOAD SWAP1 PUSH2 0x100 EXP SWAP1 DIV PUSH20 0xFFFFFFFFFFFFFFFFFFFFFFFFFFFFFFFFFFFFFFFF AND PUSH20 0xFFFFFFFFFFFFFFFFFFFFFFFFFFFFFFFFFFFFFFFF AND PUSH4 0xE6A1E888 PUSH1 0xA PUSH1 0x0 SWAP1 SLOAD SWAP1 PUSH2 0x100 EXP SWAP1 DIV PUSH20 0xFFFFFFFFFFFFFFFFFFFFFFFFFFFFFFFFFFFFFFFF AND DUP7 ADDRESS PUSH1 0x40 MLOAD DUP5 PUSH4 0xFFFFFFFF AND PUSH1 0xE0 SHL DUP2 MSTORE PUSH1 0x4 ADD PUSH2 0x1345 SWAP4 SWAP3 SWAP2 SWAP1 PUSH2 0x40C2 JUMP JUMPDEST PUSH1 0x80 PUSH1 0x40 MLOAD DUP1 DUP4 SUB DUP2 DUP7 DUP1 EXTCODESIZE ISZERO DUP1 ISZERO PUSH2 0x135D JUMPI PUSH1 0x0 DUP1 REVERT JUMPDEST POP GAS STATICCALL ISZERO DUP1 ISZERO PUSH2 0x1371 JUMPI RETURNDATASIZE PUSH1 0x0 DUP1 RETURNDATACOPY RETURNDATASIZE PUSH1 0x0 REVERT JUMPDEST POP POP POP POP PUSH1 0x40 MLOAD RETURNDATASIZE PUSH1 0x1F NOT PUSH1 0x1F DUP3 ADD AND DUP3 ADD DUP1 PUSH1 0x40 MSTORE POP DUP2 ADD SWAP1 PUSH2 0x1395 SWAP2 SWAP1 PUSH2 0x39D3 JUMP JUMPDEST POP POP SWAP2 POP POP DUP5 PUSH20 0xFFFFFFFFFFFFFFFFFFFFFFFFFFFFFFFFFFFFFFFF AND PUSH4 0x6A915D6A CALLER DUP5 PUSH1 0x40 MLOAD DUP4 PUSH4 0xFFFFFFFF AND PUSH1 0xE0 SHL DUP2 MSTORE PUSH1 0x4 ADD PUSH2 0x13D5 SWAP3 SWAP2 SWAP1 PUSH2 0x3FBA JUMP JUMPDEST PUSH1 0x20 PUSH1 0x40 MLOAD DUP1 DUP4 SUB DUP2 DUP7 DUP1 EXTCODESIZE ISZERO DUP1 ISZERO PUSH2 0x13ED JUMPI PUSH1 0x0 DUP1 REVERT JUMPDEST POP GAS STATICCALL ISZERO DUP1 ISZERO PUSH2 0x1401 JUMPI RETURNDATASIZE PUSH1 0x0 DUP1 RETURNDATACOPY RETURNDATASIZE PUSH1 0x0 REVERT JUMPDEST POP POP POP POP PUSH1 0x40 MLOAD RETURNDATASIZE PUSH1 0x1F NOT PUSH1 0x1F DUP3 ADD AND DUP3 ADD DUP1 PUSH1 0x40 MSTORE POP DUP2 ADD SWAP1 PUSH2 0x1425 SWAP2 SWAP1 PUSH2 0x36A4 JUMP JUMPDEST PUSH2 0x1464 JUMPI PUSH1 0x40 MLOAD PUSH32 0x8C379A000000000000000000000000000000000000000000000000000000000 DUP2 MSTORE PUSH1 0x4 ADD PUSH2 0x145B SWAP1 PUSH2 0x4221 JUMP JUMPDEST PUSH1 0x40 MLOAD DUP1 SWAP2 SUB SWAP1 REVERT JUMPDEST DUP3 PUSH1 0xB SIGNEXTEND DUP2 PUSH1 0xB SIGNEXTEND SLT ISZERO PUSH2 0x14AD JUMPI PUSH1 0x40 MLOAD PUSH32 0x8C379A000000000000000000000000000000000000000000000000000000000 DUP2 MSTORE PUSH1 0x4 ADD PUSH2 0x14A4 SWAP1 PUSH2 0x4261 JUMP JUMPDEST PUSH1 0x40 MLOAD DUP1 SWAP2 SUB SWAP1 REVERT JUMPDEST PUSH1 0x0 PUSH2 0x14B9 DUP6 ADDRESS PUSH2 0x1873 JUMP JUMPDEST SWAP1 POP PUSH1 0x7 SLOAD PUSH1 0xB PUSH1 0x0 DUP4 DUP2 MSTORE PUSH1 0x20 ADD SWAP1 DUP2 MSTORE PUSH1 0x20 ADD PUSH1 0x0 KECCAK256 DUP2 SWAP1 SSTORE POP PUSH2 0x14DF DUP7 DUP4 PUSH2 0x1D4D JUMP JUMPDEST PUSH2 0x14EB DUP7 DUP5 DUP5 CALLER PUSH2 0x2886 JUMP JUMPDEST PUSH2 0x14F4 DUP6 PUSH2 0x2989 JUMP JUMPDEST PUSH32 0x35AD89EA58E0D5148B199CF4CDDC916254AF71553E905B69392AB09FCFA08443 DUP7 DUP7 PUSH1 0x40 MLOAD PUSH2 0x1525 SWAP3 SWAP2 SWAP1 PUSH2 0x3F45 JUMP JUMPDEST PUSH1 0x40 MLOAD DUP1 SWAP2 SUB SWAP1 LOG1 POP POP POP POP POP POP JUMP JUMPDEST PUSH1 0x60 PUSH1 0x40 MLOAD PUSH32 0x8C379A000000000000000000000000000000000000000000000000000000000 DUP2 MSTORE PUSH1 0x4 ADD PUSH2 0x1569 SWAP1 PUSH2 0x42E1 JUMP JUMPDEST PUSH1 0x40 MLOAD DUP1 SWAP2 SUB SWAP1 REVERT JUMPDEST PUSH1 0x0 DUP1 PUSH1 0x2 PUSH1 0x0 DUP5 DUP2 MSTORE PUSH1 0x20 ADD SWAP1 DUP2 MSTORE PUSH1 0x20 ADD PUSH1 0x0 KECCAK256 PUSH1 0x0 SWAP1 SLOAD SWAP1 PUSH2 0x100 EXP SWAP1 DIV PUSH20 0xFFFFFFFFFFFFFFFFFFFFFFFFFFFFFFFFFFFFFFFF AND SWAP1 POP PUSH1 0x0 PUSH20 0xFFFFFFFFFFFFFFFFFFFFFFFFFFFFFFFFFFFFFFFF AND DUP2 PUSH20 0xFFFFFFFFFFFFFFFFFFFFFFFFFFFFFFFFFFFFFFFF AND EQ ISZERO PUSH2 0x161B JUMPI PUSH1 0x40 MLOAD PUSH32 0x8C379A000000000000000000000000000000000000000000000000000000000 DUP2 MSTORE PUSH1 0x4 ADD PUSH2 0x1612 SWAP1 PUSH2 0x43C1 JUMP JUMPDEST PUSH1 0x40 MLOAD DUP1 SWAP2 SUB SWAP1 REVERT JUMPDEST DUP1 SWAP2 POP POP SWAP2 SWAP1 POP JUMP JUMPDEST PUSH1 0x0 DUP1 PUSH20 0xFFFFFFFFFFFFFFFFFFFFFFFFFFFFFFFFFFFFFFFF AND DUP3 PUSH20 0xFFFFFFFFFFFFFFFFFFFFFFFFFFFFFFFFFFFFFFFF AND EQ ISZERO PUSH2 0x1695 JUMPI PUSH1 0x40 MLOAD PUSH32 0x8C379A000000000000000000000000000000000000000000000000000000000 DUP2 MSTORE PUSH1 0x4 ADD PUSH2 0x168C SWAP1 PUSH2 0x43A1 JUMP JUMPDEST PUSH1 0x40 MLOAD DUP1 SWAP2 SUB SWAP1 REVERT JUMPDEST PUSH1 0x3 PUSH1 0x0 DUP4 PUSH20 0xFFFFFFFFFFFFFFFFFFFFFFFFFFFFFFFFFFFFFFFF AND PUSH20 0xFFFFFFFFFFFFFFFFFFFFFFFFFFFFFFFFFFFFFFFF AND DUP2 MSTORE PUSH1 0x20 ADD SWAP1 DUP2 MSTORE PUSH1 0x20 ADD PUSH1 0x0 KECCAK256 SLOAD SWAP1 POP SWAP2 SWAP1 POP JUMP JUMPDEST PUSH2 0x16E4 PUSH2 0x1C8C JUMP JUMPDEST PUSH20 0xFFFFFFFFFFFFFFFFFFFFFFFFFFFFFFFFFFFFFFFF AND PUSH2 0x1702 PUSH2 0x17A1 JUMP JUMPDEST PUSH20 0xFFFFFFFFFFFFFFFFFFFFFFFFFFFFFFFFFFFFFFFF AND EQ PUSH2 0x1758 JUMPI PUSH1 0x40 MLOAD PUSH32 0x8C379A000000000000000000000000000000000000000000000000000000000 DUP2 MSTORE PUSH1 0x4 ADD PUSH2 0x174F SWAP1 PUSH2 0x4421 JUMP JUMPDEST PUSH1 0x40 MLOAD DUP1 SWAP2 SUB SWAP1 REVERT JUMPDEST PUSH2 0x1762 PUSH1 0x0 PUSH2 0x29B0 JUMP JUMPDEST JUMP JUMPDEST PUSH1 0x60 PUSH1 0x40 MLOAD PUSH32 0x8C379A000000000000000000000000000000000000000000000000000000000 DUP2 MSTORE PUSH1 0x4 ADD PUSH2 0x1798 SWAP1 PUSH2 0x44C1 JUMP JUMPDEST PUSH1 0x40 MLOAD DUP1 SWAP2 SUB SWAP1 REVERT JUMPDEST PUSH1 0x0 PUSH1 0x6 PUSH1 0x0 SWAP1 SLOAD SWAP1 PUSH2 0x100 EXP SWAP1 DIV PUSH20 0xFFFFFFFFFFFFFFFFFFFFFFFFFFFFFFFFFFFFFFFF AND SWAP1 POP SWAP1 JUMP JUMPDEST PUSH1 0x60 PUSH1 0x1 DUP1 SLOAD PUSH2 0x17DA SWAP1 PUSH2 0x4915 JUMP JUMPDEST DUP1 PUSH1 0x1F ADD PUSH1 0x20 DUP1 SWAP2 DIV MUL PUSH1 0x20 ADD PUSH1 0x40 MLOAD SWAP1 DUP2 ADD PUSH1 0x40 MSTORE DUP1 SWAP3 SWAP2 SWAP1 DUP2 DUP2 MSTORE PUSH1 0x20 ADD DUP3 DUP1 SLOAD PUSH2 0x1806 SWAP1 PUSH2 0x4915 JUMP JUMPDEST DUP1 ISZERO PUSH2 0x1853 JUMPI DUP1 PUSH1 0x1F LT PUSH2 0x1828 JUMPI PUSH2 0x100 DUP1 DUP4 SLOAD DIV MUL DUP4 MSTORE SWAP2 PUSH1 0x20 ADD SWAP2 PUSH2 0x1853 JUMP JUMPDEST DUP3 ADD SWAP2 SWAP1 PUSH1 0x0 MSTORE PUSH1 0x20 PUSH1 0x0 KECCAK256 SWAP1 JUMPDEST DUP2 SLOAD DUP2 MSTORE SWAP1 PUSH1 0x1 ADD SWAP1 PUSH1 0x20 ADD DUP1 DUP4 GT PUSH2 0x1836 JUMPI DUP3 SWAP1 SUB PUSH1 0x1F AND DUP3 ADD SWAP2 JUMPDEST POP POP POP POP POP SWAP1 POP SWAP1 JUMP JUMPDEST PUSH2 0x186F PUSH2 0x1868 PUSH2 0x1C8C JUMP JUMPDEST DUP4 DUP4 PUSH2 0x2A76 JUMP JUMPDEST POP POP JUMP JUMPDEST PUSH1 0x0 DUP3 DUP3 PUSH1 0x40 MLOAD PUSH1 0x20 ADD PUSH2 0x1888 SWAP3 SWAP2 SWAP1 PUSH2 0x3F45 JUMP JUMPDEST PUSH1 0x40 MLOAD PUSH1 0x20 DUP2 DUP4 SUB SUB DUP2 MSTORE SWAP1 PUSH1 0x40 MSTORE DUP1 MLOAD SWAP1 PUSH1 0x20 ADD KECCAK256 SWAP1 POP SWAP3 SWAP2 POP POP JUMP JUMPDEST PUSH2 0x18B7 PUSH2 0x18B1 PUSH2 0x1C8C JUMP JUMPDEST DUP4 PUSH2 0x24A3 JUMP JUMPDEST PUSH2 0x18F6 JUMPI PUSH1 0x40 MLOAD PUSH32 0x8C379A000000000000000000000000000000000000000000000000000000000 DUP2 MSTORE PUSH1 0x4 ADD PUSH2 0x18ED SWAP1 PUSH2 0x4501 JUMP JUMPDEST PUSH1 0x40 MLOAD DUP1 SWAP2 SUB SWAP1 REVERT JUMPDEST PUSH2 0x1902 DUP5 DUP5 DUP5 DUP5 PUSH2 0x2BE3 JUMP JUMPDEST POP POP POP POP JUMP JUMPDEST PUSH1 0x60 PUSH2 0x1913 DUP3 PUSH2 0x1C20 JUMP JUMPDEST PUSH2 0x1952 JUMPI PUSH1 0x40 MLOAD PUSH32 0x8C379A000000000000000000000000000000000000000000000000000000000 DUP2 MSTORE PUSH1 0x4 ADD PUSH2 0x1949 SWAP1 PUSH2 0x4461 JUMP JUMPDEST PUSH1 0x40 MLOAD DUP1 SWAP2 SUB SWAP1 REVERT JUMPDEST PUSH1 0x0 PUSH2 0x195C PUSH2 0x2C3F JUMP JUMPDEST SWAP1 POP PUSH1 0x0 DUP2 MLOAD GT PUSH2 0x197C JUMPI PUSH1 0x40 MLOAD DUP1 PUSH1 0x20 ADD PUSH1 0x40 MSTORE DUP1 PUSH1 0x0 DUP2 MSTORE POP PUSH2 0x19A7 JUMP JUMPDEST DUP1 PUSH2 0x1986 DUP5 PUSH2 0x2C56 JUMP JUMPDEST PUSH1 0x40 MLOAD PUSH1 0x20 ADD PUSH2 0x1997 SWAP3 SWAP2 SWAP1 PUSH2 0x3F06 JUMP JUMPDEST PUSH1 0x40 MLOAD PUSH1 0x20 DUP2 DUP4 SUB SUB DUP2 MSTORE SWAP1 PUSH1 0x40 MSTORE JUMPDEST SWAP2 POP POP SWAP2 SWAP1 POP JUMP JUMPDEST PUSH1 0x60 PUSH1 0x40 MLOAD PUSH32 0x8C379A000000000000000000000000000000000000000000000000000000000 DUP2 MSTORE PUSH1 0x4 ADD PUSH2 0x19E3 SWAP1 PUSH2 0x44E1 JUMP JUMPDEST PUSH1 0x40 MLOAD DUP1 SWAP2 SUB SWAP1 REVERT JUMPDEST PUSH1 0x0 PUSH1 0x5 PUSH1 0x0 DUP5 PUSH20 0xFFFFFFFFFFFFFFFFFFFFFFFFFFFFFFFFFFFFFFFF AND PUSH20 0xFFFFFFFFFFFFFFFFFFFFFFFFFFFFFFFFFFFFFFFF AND DUP2 MSTORE PUSH1 0x20 ADD SWAP1 DUP2 MSTORE PUSH1 0x20 ADD PUSH1 0x0 KECCAK256 PUSH1 0x0 DUP4 PUSH20 0xFFFFFFFFFFFFFFFFFFFFFFFFFFFFFFFFFFFFFFFF AND PUSH20 0xFFFFFFFFFFFFFFFFFFFFFFFFFFFFFFFFFFFFFFFF AND DUP2 MSTORE PUSH1 0x20 ADD SWAP1 DUP2 MSTORE PUSH1 0x20 ADD PUSH1 0x0 KECCAK256 PUSH1 0x0 SWAP1 SLOAD SWAP1 PUSH2 0x100 EXP SWAP1 DIV PUSH1 0xFF AND SWAP1 POP SWAP3 SWAP2 POP POP JUMP JUMPDEST PUSH2 0x1A88 PUSH2 0x1C8C JUMP JUMPDEST PUSH20 0xFFFFFFFFFFFFFFFFFFFFFFFFFFFFFFFFFFFFFFFF AND PUSH2 0x1AA6 PUSH2 0x17A1 JUMP JUMPDEST PUSH20 0xFFFFFFFFFFFFFFFFFFFFFFFFFFFFFFFFFFFFFFFF AND EQ PUSH2 0x1AFC JUMPI PUSH1 0x40 MLOAD PUSH32 0x8C379A000000000000000000000000000000000000000000000000000000000 DUP2 MSTORE PUSH1 0x4 ADD PUSH2 0x1AF3 SWAP1 PUSH2 0x4421 JUMP JUMPDEST PUSH1 0x40 MLOAD DUP1 SWAP2 SUB SWAP1 REVERT JUMPDEST PUSH1 0x0 PUSH20 0xFFFFFFFFFFFFFFFFFFFFFFFFFFFFFFFFFFFFFFFF AND DUP2 PUSH20 0xFFFFFFFFFFFFFFFFFFFFFFFFFFFFFFFFFFFFFFFF AND EQ ISZERO PUSH2 0x1B6C JUMPI PUSH1 0x40 MLOAD PUSH32 0x8C379A000000000000000000000000000000000000000000000000000000000 DUP2 MSTORE PUSH1 0x4 ADD PUSH2 0x1B63 SWAP1 PUSH2 0x42A1 JUMP JUMPDEST PUSH1 0x40 MLOAD DUP1 SWAP2 SUB SWAP1 REVERT JUMPDEST PUSH2 0x1B75 DUP2 PUSH2 0x29B0 JUMP JUMPDEST POP JUMP JUMPDEST PUSH1 0xB PUSH1 0x20 MSTORE DUP1 PUSH1 0x0 MSTORE PUSH1 0x40 PUSH1 0x0 KECCAK256 PUSH1 0x0 SWAP2 POP SWAP1 POP SLOAD DUP2 JUMP JUMPDEST PUSH1 0xA PUSH1 0x0 SWAP1 SLOAD SWAP1 PUSH2 0x100 EXP SWAP1 DIV PUSH20 0xFFFFFFFFFFFFFFFFFFFFFFFFFFFFFFFFFFFFFFFF AND DUP2 JUMP JUMPDEST PUSH1 0x0 PUSH32 0x1FFC9A700000000000000000000000000000000000000000000000000000000 PUSH28 0xFFFFFFFFFFFFFFFFFFFFFFFFFFFFFFFFFFFFFFFFFFFFFFFFFFFFFFFF NOT AND DUP3 PUSH28 0xFFFFFFFFFFFFFFFFFFFFFFFFFFFFFFFFFFFFFFFFFFFFFFFFFFFFFFFF NOT AND EQ SWAP1 POP SWAP2 SWAP1 POP JUMP JUMPDEST PUSH1 0x0 DUP1 PUSH20 0xFFFFFFFFFFFFFFFFFFFFFFFFFFFFFFFFFFFFFFFF AND PUSH1 0x2 PUSH1 0x0 DUP5 DUP2 MSTORE PUSH1 0x20 ADD SWAP1 DUP2 MSTORE PUSH1 0x20 ADD PUSH1 0x0 KECCAK256 PUSH1 0x0 SWAP1 SLOAD SWAP1 PUSH2 0x100 EXP SWAP1 DIV PUSH20 0xFFFFFFFFFFFFFFFFFFFFFFFFFFFFFFFFFFFFFFFF AND PUSH20 0xFFFFFFFFFFFFFFFFFFFFFFFFFFFFFFFFFFFFFFFF AND EQ ISZERO SWAP1 POP SWAP2 SWAP1 POP JUMP JUMPDEST PUSH1 0x0 CALLER SWAP1 POP SWAP1 JUMP JUMPDEST DUP2 PUSH1 0x4 PUSH1 0x0 DUP4 DUP2 MSTORE PUSH1 0x20 ADD SWAP1 DUP2 MSTORE PUSH1 0x20 ADD PUSH1 0x0 KECCAK256 PUSH1 0x0 PUSH2 0x100 EXP DUP2 SLOAD DUP2 PUSH20 0xFFFFFFFFFFFFFFFFFFFFFFFFFFFFFFFFFFFFFFFF MUL NOT AND SWAP1 DUP4 PUSH20 0xFFFFFFFFFFFFFFFFFFFFFFFFFFFFFFFFFFFFFFFF AND MUL OR SWAP1 SSTORE POP DUP1 DUP3 PUSH20 0xFFFFFFFFFFFFFFFFFFFFFFFFFFFFFFFFFFFFFFFF AND PUSH2 0x1D07 DUP4 PUSH2 0x1572 JUMP JUMPDEST PUSH20 0xFFFFFFFFFFFFFFFFFFFFFFFFFFFFFFFFFFFFFFFF AND PUSH32 0x8C5BE1E5EBEC7D5BD14F71427D1E84F3DD0314C0F7B2291E5B200AC8C7C3B925 PUSH1 0x40 MLOAD PUSH1 0x40 MLOAD DUP1 SWAP2 SUB SWAP1 LOG4 POP POP JUMP JUMPDEST PUSH1 0x0 PUSH1 0x9 PUSH1 0x0 SWAP1 SLOAD SWAP1 PUSH2 0x100 EXP SWAP1 DIV PUSH20 0xFFFFFFFFFFFFFFFFFFFFFFFFFFFFFFFFFFFFFFFF AND PUSH20 0xFFFFFFFFFFFFFFFFFFFFFFFFFFFFFFFFFFFFFFFF AND PUSH4 0xE6A1E888 PUSH1 0xA PUSH1 0x0 SWAP1 SLOAD SWAP1 PUSH2 0x100 EXP SWAP1 DIV PUSH20 0xFFFFFFFFFFFFFFFFFFFFFFFFFFFFFFFFFFFFFFFF AND ADDRESS DUP7 PUSH1 0x40 MLOAD DUP5 PUSH4 0xFFFFFFFF AND PUSH1 0xE0 SHL DUP2 MSTORE PUSH1 0x4 ADD PUSH2 0x1DD0 SWAP4 SWAP3 SWAP2 SWAP1 PUSH2 0x40C2 JUMP JUMPDEST PUSH1 0x80 PUSH1 0x40 MLOAD DUP1 DUP4 SUB DUP2 DUP7 DUP1 EXTCODESIZE ISZERO DUP1 ISZERO PUSH2 0x1DE8 JUMPI PUSH1 0x0 DUP1 REVERT JUMPDEST POP GAS STATICCALL ISZERO DUP1 ISZERO PUSH2 0x1DFC JUMPI RETURNDATASIZE PUSH1 0x0 DUP1 RETURNDATACOPY RETURNDATASIZE PUSH1 0x0 REVERT JUMPDEST POP POP POP POP PUSH1 0x40 MLOAD RETURNDATASIZE PUSH1 0x1F NOT PUSH1 0x1F DUP3 ADD AND DUP3 ADD DUP1 PUSH1 0x40 MSTORE POP DUP2 ADD SWAP1 PUSH2 0x1E20 SWAP2 SWAP1 PUSH2 0x39D3 JUMP JUMPDEST POP POP SWAP2 POP POP PUSH1 0x0 DUP3 PUSH1 0xB SIGNEXTEND EQ ISZERO PUSH2 0x1FF8 JUMPI PUSH1 0x8 PUSH1 0x0 SWAP1 SLOAD SWAP1 PUSH2 0x100 EXP SWAP1 DIV PUSH20 0xFFFFFFFFFFFFFFFFFFFFFFFFFFFFFFFFFFFFFFFF AND PUSH20 0xFFFFFFFFFFFFFFFFFFFFFFFFFFFFFFFFFFFFFFFF AND PUSH4 0x39255D5B PUSH1 0x9 PUSH1 0x0 SWAP1 SLOAD SWAP1 PUSH2 0x100 EXP SWAP1 DIV PUSH20 0xFFFFFFFFFFFFFFFFFFFFFFFFFFFFFFFFFFFFFFFF AND PUSH4 0xB4B333C6 PUSH1 0xE0 SHL PUSH1 0xA PUSH1 0x0 SWAP1 SLOAD SWAP1 PUSH2 0x100 EXP SWAP1 DIV PUSH20 0xFFFFFFFFFFFFFFFFFFFFFFFFFFFFFFFFFFFFFFFF AND ADDRESS DUP9 PUSH1 0x0 PUSH8 0xFFFFFFFFFFFFFFFF DUP2 GT ISZERO PUSH2 0x1EDA JUMPI PUSH2 0x1ED9 PUSH2 0x4AAE JUMP JUMPDEST JUMPDEST PUSH1 0x40 MLOAD SWAP1 DUP1 DUP3 MSTORE DUP1 PUSH1 0x1F ADD PUSH1 0x1F NOT AND PUSH1 0x20 ADD DUP3 ADD PUSH1 0x40 MSTORE DUP1 ISZERO PUSH2 0x1F0C JUMPI DUP2 PUSH1 0x20 ADD PUSH1 0x1 DUP3 MUL DUP1 CALLDATASIZE DUP4 CALLDATACOPY DUP1 DUP3 ADD SWAP2 POP POP SWAP1 POP JUMPDEST POP PUSH1 0x40 MLOAD PUSH1 0x24 ADD PUSH2 0x1F20 SWAP5 SWAP4 SWAP3 SWAP2 SWAP1 PUSH2 0x40F9 JUMP JUMPDEST PUSH1 0x40 MLOAD PUSH1 0x20 DUP2 DUP4 SUB SUB DUP2 MSTORE SWAP1 PUSH1 0x40 MSTORE SWAP1 PUSH28 0xFFFFFFFFFFFFFFFFFFFFFFFFFFFFFFFFFFFFFFFFFFFFFFFFFFFFFFFF NOT AND PUSH1 0x20 DUP3 ADD DUP1 MLOAD PUSH28 0xFFFFFFFFFFFFFFFFFFFFFFFFFFFFFFFFFFFFFFFFFFFFFFFFFFFFFFFF DUP4 DUP2 DUP4 AND OR DUP4 MSTORE POP POP POP POP PUSH1 0x40 MLOAD DUP4 PUSH4 0xFFFFFFFF AND PUSH1 0xE0 SHL DUP2 MSTORE PUSH1 0x4 ADD PUSH2 0x1F9A SWAP3 SWAP2 SWAP1 PUSH2 0x4064 JUMP JUMPDEST PUSH1 0x0 PUSH1 0x40 MLOAD DUP1 DUP4 SUB DUP2 PUSH1 0x0 DUP8 DUP1 EXTCODESIZE ISZERO DUP1 ISZERO PUSH2 0x1FB4 JUMPI PUSH1 0x0 DUP1 REVERT JUMPDEST POP GAS CALL ISZERO DUP1 ISZERO PUSH2 0x1FC8 JUMPI RETURNDATASIZE PUSH1 0x0 DUP1 RETURNDATACOPY RETURNDATASIZE PUSH1 0x0 REVERT JUMPDEST POP POP POP POP PUSH1 0x40 MLOAD RETURNDATASIZE PUSH1 0x0 DUP3 RETURNDATACOPY RETURNDATASIZE PUSH1 0x1F NOT PUSH1 0x1F DUP3 ADD AND DUP3 ADD DUP1 PUSH1 0x40 MSTORE POP DUP2 ADD SWAP1 PUSH2 0x1FF1 SWAP2 SWAP1 PUSH2 0x3785 JUMP JUMPDEST POP POP PUSH2 0x238E JUMP JUMPDEST PUSH1 0x0 DUP2 PUSH1 0xB SIGNEXTEND EQ ISZERO PUSH2 0x21CA JUMPI PUSH1 0x8 PUSH1 0x0 SWAP1 SLOAD SWAP1 PUSH2 0x100 EXP SWAP1 DIV PUSH20 0xFFFFFFFFFFFFFFFFFFFFFFFFFFFFFFFFFFFFFFFF AND PUSH20 0xFFFFFFFFFFFFFFFFFFFFFFFFFFFFFFFFFFFFFFFF AND PUSH4 0x39255D5B PUSH1 0x9 PUSH1 0x0 SWAP1 SLOAD SWAP1 PUSH2 0x100 EXP SWAP1 DIV PUSH20 0xFFFFFFFFFFFFFFFFFFFFFFFFFFFFFFFFFFFFFFFF AND PUSH4 0x62FC305E PUSH1 0xE0 SHL PUSH1 0xA PUSH1 0x0 SWAP1 SLOAD SWAP1 PUSH2 0x100 EXP SWAP1 DIV PUSH20 0xFFFFFFFFFFFFFFFFFFFFFFFFFFFFFFFFFFFFFFFF AND DUP8 DUP8 PUSH1 0x0 PUSH8 0xFFFFFFFFFFFFFFFF DUP2 GT ISZERO PUSH2 0x20AD JUMPI PUSH2 0x20AC PUSH2 0x4AAE JUMP JUMPDEST JUMPDEST PUSH1 0x40 MLOAD SWAP1 DUP1 DUP3 MSTORE DUP1 PUSH1 0x1F ADD PUSH1 0x1F NOT AND PUSH1 0x20 ADD DUP3 ADD PUSH1 0x40 MSTORE DUP1 ISZERO PUSH2 0x20DF JUMPI DUP2 PUSH1 0x20 ADD PUSH1 0x1 DUP3 MUL DUP1 CALLDATASIZE DUP4 CALLDATACOPY DUP1 DUP3 ADD SWAP2 POP POP SWAP1 POP JUMPDEST POP PUSH1 0x40 MLOAD PUSH1 0x24 ADD PUSH2 0x20F3 SWAP5 SWAP4 SWAP3 SWAP2 SWAP1 PUSH2 0x4145 JUMP JUMPDEST PUSH1 0x40 MLOAD PUSH1 0x20 DUP2 DUP4 SUB SUB DUP2 MSTORE SWAP1 PUSH1 0x40 MSTORE SWAP1 PUSH28 0xFFFFFFFFFFFFFFFFFFFFFFFFFFFFFFFFFFFFFFFFFFFFFFFFFFFFFFFF NOT AND PUSH1 0x20 DUP3 ADD DUP1 MLOAD PUSH28 0xFFFFFFFFFFFFFFFFFFFFFFFFFFFFFFFFFFFFFFFFFFFFFFFFFFFFFFFF DUP4 DUP2 DUP4 AND OR DUP4 MSTORE POP POP POP POP PUSH1 0x40 MLOAD DUP4 PUSH4 0xFFFFFFFF AND PUSH1 0xE0 SHL DUP2 MSTORE PUSH1 0x4 ADD PUSH2 0x216D SWAP3 SWAP2 SWAP1 PUSH2 0x4064 JUMP JUMPDEST PUSH1 0x0 PUSH1 0x40 MLOAD DUP1 DUP4 SUB DUP2 PUSH1 0x0 DUP8 DUP1 EXTCODESIZE ISZERO DUP1 ISZERO PUSH2 0x2187 JUMPI PUSH1 0x0 DUP1 REVERT JUMPDEST POP GAS CALL ISZERO DUP1 ISZERO PUSH2 0x219B JUMPI RETURNDATASIZE PUSH1 0x0 DUP1 RETURNDATACOPY RETURNDATASIZE PUSH1 0x0 REVERT JUMPDEST POP POP POP POP PUSH1 0x40 MLOAD RETURNDATASIZE PUSH1 0x0 DUP3 RETURNDATACOPY RETURNDATASIZE PUSH1 0x1F NOT PUSH1 0x1F DUP3 ADD AND DUP3 ADD DUP1 PUSH1 0x40 MSTORE POP DUP2 ADD SWAP1 PUSH2 0x21C4 SWAP2 SWAP1 PUSH2 0x3785 JUMP JUMPDEST POP PUSH2 0x238C JUMP JUMPDEST PUSH1 0x8 PUSH1 0x0 SWAP1 SLOAD SWAP1 PUSH2 0x100 EXP SWAP1 DIV PUSH20 0xFFFFFFFFFFFFFFFFFFFFFFFFFFFFFFFFFFFFFFFF AND PUSH20 0xFFFFFFFFFFFFFFFFFFFFFFFFFFFFFFFFFFFFFFFF AND PUSH4 0x39255D5B PUSH1 0x9 PUSH1 0x0 SWAP1 SLOAD SWAP1 PUSH2 0x100 EXP SWAP1 DIV PUSH20 0xFFFFFFFFFFFFFFFFFFFFFFFFFFFFFFFFFFFFFFFF AND PUSH4 0x50209A62 PUSH1 0xE0 SHL PUSH1 0xA PUSH1 0x0 SWAP1 SLOAD SWAP1 PUSH2 0x100 EXP SWAP1 DIV PUSH20 0xFFFFFFFFFFFFFFFFFFFFFFFFFFFFFFFFFFFFFFFF AND DUP8 DUP8 PUSH1 0x0 PUSH8 0xFFFFFFFFFFFFFFFF DUP2 GT ISZERO PUSH2 0x2273 JUMPI PUSH2 0x2272 PUSH2 0x4AAE JUMP JUMPDEST JUMPDEST PUSH1 0x40 MLOAD SWAP1 DUP1 DUP3 MSTORE DUP1 PUSH1 0x1F ADD PUSH1 0x1F NOT AND PUSH1 0x20 ADD DUP3 ADD PUSH1 0x40 MSTORE DUP1 ISZERO PUSH2 0x22A5 JUMPI DUP2 PUSH1 0x20 ADD PUSH1 0x1 DUP3 MUL DUP1 CALLDATASIZE DUP4 CALLDATACOPY DUP1 DUP3 ADD SWAP2 POP POP SWAP1 POP JUMPDEST POP PUSH1 0x40 MLOAD PUSH1 0x24 ADD PUSH2 0x22B9 SWAP5 SWAP4 SWAP3 SWAP2 SWAP1 PUSH2 0x4145 JUMP JUMPDEST PUSH1 0x40 MLOAD PUSH1 0x20 DUP2 DUP4 SUB SUB DUP2 MSTORE SWAP1 PUSH1 0x40 MSTORE SWAP1 PUSH28 0xFFFFFFFFFFFFFFFFFFFFFFFFFFFFFFFFFFFFFFFFFFFFFFFFFFFFFFFF NOT AND PUSH1 0x20 DUP3 ADD DUP1 MLOAD PUSH28 0xFFFFFFFFFFFFFFFFFFFFFFFFFFFFFFFFFFFFFFFFFFFFFFFFFFFFFFFF DUP4 DUP2 DUP4 AND OR DUP4 MSTORE POP POP POP POP PUSH1 0x40 MLOAD DUP4 PUSH4 0xFFFFFFFF AND PUSH1 0xE0 SHL DUP2 MSTORE PUSH1 0x4 ADD PUSH2 0x2333 SWAP3 SWAP2 SWAP1 PUSH2 0x4064 JUMP JUMPDEST PUSH1 0x0 PUSH1 0x40 MLOAD DUP1 DUP4 SUB DUP2 PUSH1 0x0 DUP8 DUP1 EXTCODESIZE ISZERO DUP1 ISZERO PUSH2 0x234D JUMPI PUSH1 0x0 DUP1 REVERT JUMPDEST POP GAS CALL ISZERO DUP1 ISZERO PUSH2 0x2361 JUMPI RETURNDATASIZE PUSH1 0x0 DUP1 RETURNDATACOPY RETURNDATASIZE PUSH1 0x0 REVERT JUMPDEST POP POP POP POP PUSH1 0x40 MLOAD RETURNDATASIZE PUSH1 0x0 DUP3 RETURNDATACOPY RETURNDATASIZE PUSH1 0x1F NOT PUSH1 0x1F DUP3 ADD AND DUP3 ADD DUP1 PUSH1 0x40 MSTORE POP DUP2 ADD SWAP1 PUSH2 0x238A SWAP2 SWAP1 PUSH2 0x3785 JUMP JUMPDEST POP JUMPDEST POP JUMPDEST POP POP JUMP JUMPDEST PUSH1 0x0 PUSH2 0x239D DUP3 PUSH2 0x1572 JUMP JUMPDEST SWAP1 POP PUSH2 0x23AB DUP2 PUSH1 0x0 DUP5 PUSH2 0x2DB7 JUMP JUMPDEST PUSH2 0x23B6 PUSH1 0x0 DUP4 PUSH2 0x1C94 JUMP JUMPDEST PUSH1 0x1 PUSH1 0x3 PUSH1 0x0 DUP4 PUSH20 0xFFFFFFFFFFFFFFFFFFFFFFFFFFFFFFFFFFFFFFFF AND PUSH20 0xFFFFFFFFFFFFFFFFFFFFFFFFFFFFFFFFFFFFFFFF AND DUP2 MSTORE PUSH1 0x20 ADD SWAP1 DUP2 MSTORE PUSH1 0x20 ADD PUSH1 0x0 KECCAK256 PUSH1 0x0 DUP3 DUP3 SLOAD PUSH2 0x2406 SWAP2 SWAP1 PUSH2 0x47B0 JUMP JUMPDEST SWAP3 POP POP DUP2 SWAP1 SSTORE POP PUSH1 0x2 PUSH1 0x0 DUP4 DUP2 MSTORE PUSH1 0x20 ADD SWAP1 DUP2 MSTORE PUSH1 0x20 ADD PUSH1 0x0 KECCAK256 PUSH1 0x0 PUSH2 0x100 EXP DUP2 SLOAD SWAP1 PUSH20 0xFFFFFFFFFFFFFFFFFFFFFFFFFFFFFFFFFFFFFFFF MUL NOT AND SWAP1 SSTORE DUP2 PUSH1 0x0 PUSH20 0xFFFFFFFFFFFFFFFFFFFFFFFFFFFFFFFFFFFFFFFF AND DUP3 PUSH20 0xFFFFFFFFFFFFFFFFFFFFFFFFFFFFFFFFFFFFFFFF AND PUSH32 0xDDF252AD1BE2C89B69C2B068FC378DAA952BA7F163C4A11628F55A4DF523B3EF PUSH1 0x40 MLOAD PUSH1 0x40 MLOAD DUP1 SWAP2 SUB SWAP1 LOG4 POP POP JUMP JUMPDEST PUSH1 0x0 PUSH2 0x24AE DUP3 PUSH2 0x1C20 JUMP JUMPDEST PUSH2 0x24ED JUMPI PUSH1 0x40 MLOAD PUSH32 0x8C379A000000000000000000000000000000000000000000000000000000000 DUP2 MSTORE PUSH1 0x4 ADD PUSH2 0x24E4 SWAP1 PUSH2 0x4361 JUMP JUMPDEST PUSH1 0x40 MLOAD DUP1 SWAP2 SUB SWAP1 REVERT JUMPDEST PUSH1 0x0 PUSH2 0x24F8 DUP4 PUSH2 0x1572 JUMP JUMPDEST SWAP1 POP DUP1 PUSH20 0xFFFFFFFFFFFFFFFFFFFFFFFFFFFFFFFFFFFFFFFF AND DUP5 PUSH20 0xFFFFFFFFFFFFFFFFFFFFFFFFFFFFFFFFFFFFFFFF AND EQ DUP1 PUSH2 0x2567 JUMPI POP DUP4 PUSH20 0xFFFFFFFFFFFFFFFFFFFFFFFFFFFFFFFFFFFFFFFF AND PUSH2 0x254F DUP5 PUSH2 0x79B JUMP JUMPDEST PUSH20 0xFFFFFFFFFFFFFFFFFFFFFFFFFFFFFFFFFFFFFFFF AND EQ JUMPDEST DUP1 PUSH2 0x2578 JUMPI POP PUSH2 0x2577 DUP2 DUP6 PUSH2 0x19EC JUMP JUMPDEST JUMPDEST SWAP2 POP POP SWAP3 SWAP2 POP POP JUMP JUMPDEST DUP3 PUSH20 0xFFFFFFFFFFFFFFFFFFFFFFFFFFFFFFFFFFFFFFFF AND PUSH2 0x25A1 DUP3 PUSH2 0x1572 JUMP JUMPDEST PUSH20 0xFFFFFFFFFFFFFFFFFFFFFFFFFFFFFFFFFFFFFFFF AND EQ PUSH2 0x25F7 JUMPI PUSH1 0x40 MLOAD PUSH32 0x8C379A000000000000000000000000000000000000000000000000000000000 DUP2 MSTORE PUSH1 0x4 ADD PUSH2 0x25EE SWAP1 PUSH2 0x4441 JUMP JUMPDEST PUSH1 0x40 MLOAD DUP1 SWAP2 SUB SWAP1 REVERT JUMPDEST PUSH1 0x0 PUSH20 0xFFFFFFFFFFFFFFFFFFFFFFFFFFFFFFFFFFFFFFFF AND DUP3 PUSH20 0xFFFFFFFFFFFFFFFFFFFFFFFFFFFFFFFFFFFFFFFF AND EQ ISZERO PUSH2 0x2667 JUMPI PUSH1 0x40 MLOAD PUSH32 0x8C379A000000000000000000000000000000000000000000000000000000000 DUP2 MSTORE PUSH1 0x4 ADD PUSH2 0x265E SWAP1 PUSH2 0x4321 JUMP JUMPDEST PUSH1 0x40 MLOAD DUP1 SWAP2 SUB SWAP1 REVERT JUMPDEST PUSH2 0x2672 DUP4 DUP4 DUP4 PUSH2 0x2DB7 JUMP JUMPDEST PUSH2 0x267D PUSH1 0x0 DUP3 PUSH2 0x1C94 JUMP JUMPDEST PUSH1 0x1 PUSH1 0x3 PUSH1 0x0 DUP6 PUSH20 0xFFFFFFFFFFFFFFFFFFFFFFFFFFFFFFFFFFFFFFFF AND PUSH20 0xFFFFFFFFFFFFFFFFFFFFFFFFFFFFFFFFFFFFFFFF AND DUP2 MSTORE PUSH1 0x20 ADD SWAP1 DUP2 MSTORE PUSH1 0x20 ADD PUSH1 0x0 KECCAK256 PUSH1 0x0 DUP3 DUP3 SLOAD PUSH2 0x26CD SWAP2 SWAP1 PUSH2 0x47B0 JUMP JUMPDEST SWAP3 POP POP DUP2 SWAP1 SSTORE POP PUSH1 0x1 PUSH1 0x3 PUSH1 0x0 DUP5 PUSH20 0xFFFFFFFFFFFFFFFFFFFFFFFFFFFFFFFFFFFFFFFF AND PUSH20 0xFFFFFFFFFFFFFFFFFFFFFFFFFFFFFFFFFFFFFFFF AND DUP2 MSTORE PUSH1 0x20 ADD SWAP1 DUP2 MSTORE PUSH1 0x20 ADD PUSH1 0x0 KECCAK256 PUSH1 0x0 DUP3 DUP3 SLOAD PUSH2 0x2724 SWAP2 SWAP1 PUSH2 0x4615 JUMP JUMPDEST SWAP3 POP POP DUP2 SWAP1 SSTORE POP DUP2 PUSH1 0x2 PUSH1 0x0 DUP4 DUP2 MSTORE PUSH1 0x20 ADD SWAP1 DUP2 MSTORE PUSH1 0x20 ADD PUSH1 0x0 KECCAK256 PUSH1 0x0 PUSH2 0x100 EXP DUP2 SLOAD DUP2 PUSH20 0xFFFFFFFFFFFFFFFFFFFFFFFFFFFFFFFFFFFFFFFF MUL NOT AND SWAP1 DUP4 PUSH20 0xFFFFFFFFFFFFFFFFFFFFFFFFFFFFFFFFFFFFFFFF AND MUL OR SWAP1 SSTORE POP DUP1 DUP3 PUSH20 0xFFFFFFFFFFFFFFFFFFFFFFFFFFFFFFFFFFFFFFFF AND DUP5 PUSH20 0xFFFFFFFFFFFFFFFFFFFFFFFFFFFFFFFFFFFFFFFF AND PUSH32 0xDDF252AD1BE2C89B69C2B068FC378DAA952BA7F163C4A11628F55A4DF523B3EF PUSH1 0x40 MLOAD PUSH1 0x40 MLOAD DUP1 SWAP2 SUB SWAP1 LOG4 POP POP POP JUMP JUMPDEST PUSH1 0x0 PUSH32 0xA9214CC96615E0085D3BB077758DB69497DC2DCE3B2B1E97BC93C3D18D83EFD3 DUP3 PUSH20 0xFFFFFFFFFFFFFFFFFFFFFFFFFFFFFFFFFFFFFFFF AND PUSH4 0x7730599E PUSH1 0x40 MLOAD DUP2 PUSH4 0xFFFFFFFF AND PUSH1 0xE0 SHL DUP2 MSTORE PUSH1 0x4 ADD PUSH1 0x20 PUSH1 0x40 MLOAD DUP1 DUP4 SUB DUP2 DUP7 DUP1 EXTCODESIZE ISZERO DUP1 ISZERO PUSH2 0x2846 JUMPI PUSH1 0x0 DUP1 REVERT JUMPDEST POP GAS STATICCALL ISZERO DUP1 ISZERO PUSH2 0x285A JUMPI RETURNDATASIZE PUSH1 0x0 DUP1 RETURNDATACOPY RETURNDATASIZE PUSH1 0x0 REVERT JUMPDEST POP POP POP POP PUSH1 0x40 MLOAD RETURNDATASIZE PUSH1 0x1F NOT PUSH1 0x1F DUP3 ADD AND DUP3 ADD DUP1 PUSH1 0x40 MSTORE POP DUP2 ADD SWAP1 PUSH2 0x287E SWAP2 SWAP1 PUSH2 0x36FE JUMP JUMPDEST EQ SWAP1 POP SWAP2 SWAP1 POP JUMP JUMPDEST PUSH2 0x2892 DUP5 PUSH1 0x7 SLOAD PUSH2 0x2DBC JUMP JUMPDEST PUSH1 0x0 DUP2 PUSH20 0xFFFFFFFFFFFFFFFFFFFFFFFFFFFFFFFFFFFFFFFF AND PUSH4 0x76D560D7 DUP6 PUSH1 0x40 MLOAD DUP3 PUSH4 0xFFFFFFFF AND PUSH1 0xE0 SHL DUP2 MSTORE PUSH1 0x4 ADD PUSH2 0x28CD SWAP2 SWAP1 PUSH2 0x4561 JUMP JUMPDEST PUSH1 0x20 PUSH1 0x40 MLOAD DUP1 DUP4 SUB DUP2 DUP7 DUP1 EXTCODESIZE ISZERO DUP1 ISZERO PUSH2 0x28E5 JUMPI PUSH1 0x0 DUP1 REVERT JUMPDEST POP GAS STATICCALL ISZERO DUP1 ISZERO PUSH2 0x28F9 JUMPI RETURNDATASIZE PUSH1 0x0 DUP1 RETURNDATACOPY RETURNDATASIZE PUSH1 0x0 REVERT JUMPDEST POP POP POP POP PUSH1 0x40 MLOAD RETURNDATASIZE PUSH1 0x1F NOT PUSH1 0x1F DUP3 ADD AND DUP3 ADD DUP1 PUSH1 0x40 MSTORE POP DUP2 ADD SWAP1 PUSH2 0x291D SWAP2 SWAP1 PUSH2 0x3979 JUMP JUMPDEST SWAP1 POP PUSH1 0x0 PUSH1 0x40 MLOAD DUP1 PUSH1 0x80 ADD PUSH1 0x40 MSTORE DUP1 DUP6 PUSH1 0xB SIGNEXTEND DUP2 MSTORE PUSH1 0x20 ADD DUP7 DUP2 MSTORE PUSH1 0x20 ADD DUP4 DUP2 MSTORE PUSH1 0x20 ADD DUP5 PUSH20 0xFFFFFFFFFFFFFFFFFFFFFFFFFFFFFFFFFFFFFFFF AND DUP2 MSTORE POP SWAP1 POP PUSH2 0x2969 PUSH1 0x7 SLOAD DUP3 PUSH2 0x2F8A JUMP JUMPDEST PUSH1 0x7 PUSH1 0x0 DUP2 SLOAD DUP1 SWAP3 SWAP2 SWAP1 PUSH2 0x297C SWAP1 PUSH2 0x4978 JUMP JUMPDEST SWAP2 SWAP1 POP SSTORE POP POP POP POP POP POP POP JUMP JUMPDEST PUSH2 0x2995 DUP2 PUSH1 0x7 SLOAD PUSH2 0x2DBC JUMP JUMPDEST PUSH1 0x7 PUSH1 0x0 DUP2 SLOAD DUP1 SWAP3 SWAP2 SWAP1 PUSH2 0x29A8 SWAP1 PUSH2 0x4978 JUMP JUMPDEST SWAP2 SWAP1 POP SSTORE POP POP JUMP JUMPDEST PUSH1 0x0 PUSH1 0x6 PUSH1 0x0 SWAP1 SLOAD SWAP1 PUSH2 0x100 EXP SWAP1 DIV PUSH20 0xFFFFFFFFFFFFFFFFFFFFFFFFFFFFFFFFFFFFFFFF AND SWAP1 POP DUP2 PUSH1 0x6 PUSH1 0x0 PUSH2 0x100 EXP DUP2 SLOAD DUP2 PUSH20 0xFFFFFFFFFFFFFFFFFFFFFFFFFFFFFFFFFFFFFFFF MUL NOT AND SWAP1 DUP4 PUSH20 0xFFFFFFFFFFFFFFFFFFFFFFFFFFFFFFFFFFFFFFFF AND MUL OR SWAP1 SSTORE POP DUP2 PUSH20 0xFFFFFFFFFFFFFFFFFFFFFFFFFFFFFFFFFFFFFFFF AND DUP2 PUSH20 0xFFFFFFFFFFFFFFFFFFFFFFFFFFFFFFFFFFFFFFFF AND PUSH32 0x8BE0079C531659141344CD1FD0A4F28419497F9722A3DAAFE3B4186F6B6457E0 PUSH1 0x40 MLOAD PUSH1 0x40 MLOAD DUP1 SWAP2 SUB SWAP1 LOG3 POP POP JUMP JUMPDEST DUP2 PUSH20 0xFFFFFFFFFFFFFFFFFFFFFFFFFFFFFFFFFFFFFFFF AND DUP4 PUSH20 0xFFFFFFFFFFFFFFFFFFFFFFFFFFFFFFFFFFFFFFFF AND EQ ISZERO PUSH2 0x2AE5 JUMPI PUSH1 0x40 MLOAD PUSH32 0x8C379A000000000000000000000000000000000000000000000000000000000 DUP2 MSTORE PUSH1 0x4 ADD PUSH2 0x2ADC SWAP1 PUSH2 0x4341 JUMP JUMPDEST PUSH1 0x40 MLOAD DUP1 SWAP2 SUB SWAP1 REVERT JUMPDEST DUP1 PUSH1 0x5 PUSH1 0x0 DUP6 PUSH20 0xFFFFFFFFFFFFFFFFFFFFFFFFFFFFFFFFFFFFFFFF AND PUSH20 0xFFFFFFFFFFFFFFFFFFFFFFFFFFFFFFFFFFFFFFFF AND DUP2 MSTORE PUSH1 0x20 ADD SWAP1 DUP2 MSTORE PUSH1 0x20 ADD PUSH1 0x0 KECCAK256 PUSH1 0x0 DUP5 PUSH20 0xFFFFFFFFFFFFFFFFFFFFFFFFFFFFFFFFFFFFFFFF AND PUSH20 0xFFFFFFFFFFFFFFFFFFFFFFFFFFFFFFFFFFFFFFFF AND DUP2 MSTORE PUSH1 0x20 ADD SWAP1 DUP2 MSTORE PUSH1 0x20 ADD PUSH1 0x0 KECCAK256 PUSH1 0x0 PUSH2 0x100 EXP DUP2 SLOAD DUP2 PUSH1 0xFF MUL NOT AND SWAP1 DUP4 ISZERO ISZERO MUL OR SWAP1 SSTORE POP DUP2 PUSH20 0xFFFFFFFFFFFFFFFFFFFFFFFFFFFFFFFFFFFFFFFF AND DUP4 PUSH20 0xFFFFFFFFFFFFFFFFFFFFFFFFFFFFFFFFFFFFFFFF AND PUSH32 0x17307EAB39AB6107E8899845AD3D59BD9653F200F220920489CA2B5937696C31 DUP4 PUSH1 0x40 MLOAD PUSH2 0x2BD6 SWAP2 SWAP1 PUSH2 0x3FE3 JUMP JUMPDEST PUSH1 0x40 MLOAD DUP1 SWAP2 SUB SWAP1 LOG3 POP POP POP JUMP JUMPDEST PUSH2 0x2BEE DUP5 DUP5 DUP5 PUSH2 0x2581 JUMP JUMPDEST PUSH2 0x2BFA DUP5 DUP5 DUP5 DUP5 PUSH2 0x3089 JUMP JUMPDEST PUSH2 0x2C39 JUMPI PUSH1 0x40 MLOAD PUSH32 0x8C379A000000000000000000000000000000000000000000000000000000000 DUP2 MSTORE PUSH1 0x4 ADD PUSH2 0x2C30 SWAP1 PUSH2 0x4281 JUMP JUMPDEST PUSH1 0x40 MLOAD DUP1 SWAP2 SUB SWAP1 REVERT JUMPDEST POP POP POP POP JUMP JUMPDEST PUSH1 0x60 PUSH1 0x40 MLOAD DUP1 PUSH1 0x20 ADD PUSH1 0x40 MSTORE DUP1 PUSH1 0x0 DUP2 MSTORE POP SWAP1 POP SWAP1 JUMP JUMPDEST PUSH1 0x60 PUSH1 0x0 DUP3 EQ ISZERO PUSH2 0x2C9E JUMPI PUSH1 0x40 MLOAD DUP1 PUSH1 0x40 ADD PUSH1 0x40 MSTORE DUP1 PUSH1 0x1 DUP2 MSTORE PUSH1 0x20 ADD PUSH32 0x3000000000000000000000000000000000000000000000000000000000000000 DUP2 MSTORE POP SWAP1 POP PUSH2 0x2DB2 JUMP JUMPDEST PUSH1 0x0 DUP3 SWAP1 POP PUSH1 0x0 JUMPDEST PUSH1 0x0 DUP3 EQ PUSH2 0x2CD0 JUMPI DUP1 DUP1 PUSH2 0x2CB9 SWAP1 PUSH2 0x4978 JUMP JUMPDEST SWAP2 POP POP PUSH1 0xA DUP3 PUSH2 0x2CC9 SWAP2 SWAP1 PUSH2 0x466B JUMP JUMPDEST SWAP2 POP PUSH2 0x2CA6 JUMP JUMPDEST PUSH1 0x0 DUP2 PUSH8 0xFFFFFFFFFFFFFFFF DUP2 GT ISZERO PUSH2 0x2CEC JUMPI PUSH2 0x2CEB PUSH2 0x4AAE JUMP JUMPDEST JUMPDEST PUSH1 0x40 MLOAD SWAP1 DUP1 DUP3 MSTORE DUP1 PUSH1 0x1F ADD PUSH1 0x1F NOT AND PUSH1 0x20 ADD DUP3 ADD PUSH1 0x40 MSTORE DUP1 ISZERO PUSH2 0x2D1E JUMPI DUP2 PUSH1 0x20 ADD PUSH1 0x1 DUP3 MUL DUP1 CALLDATASIZE DUP4 CALLDATACOPY DUP1 DUP3 ADD SWAP2 POP POP SWAP1 POP JUMPDEST POP SWAP1 POP JUMPDEST PUSH1 0x0 DUP6 EQ PUSH2 0x2DAB JUMPI PUSH1 0x1 DUP3 PUSH2 0x2D37 SWAP2 SWAP1 PUSH2 0x47B0 JUMP JUMPDEST SWAP2 POP PUSH1 0xA DUP6 PUSH2 0x2D46 SWAP2 SWAP1 PUSH2 0x49C1 JUMP JUMPDEST PUSH1 0x30 PUSH2 0x2D52 SWAP2 SWAP1 PUSH2 0x4615 JUMP JUMPDEST PUSH1 0xF8 SHL DUP2 DUP4 DUP2 MLOAD DUP2 LT PUSH2 0x2D68 JUMPI PUSH2 0x2D67 PUSH2 0x4A7F JUMP JUMPDEST JUMPDEST PUSH1 0x20 ADD ADD SWAP1 PUSH31 0xFFFFFFFFFFFFFFFFFFFFFFFFFFFFFFFFFFFFFFFFFFFFFFFFFFFFFFFFFFFFFF NOT AND SWAP1 DUP2 PUSH1 0x0 BYTE SWAP1 MSTORE8 POP PUSH1 0xA DUP6 PUSH2 0x2DA4 SWAP2 SWAP1 PUSH2 0x466B JUMP JUMPDEST SWAP5 POP PUSH2 0x2D22 JUMP JUMPDEST DUP1 SWAP4 POP POP POP POP JUMPDEST SWAP2 SWAP1 POP JUMP JUMPDEST POP POP POP JUMP JUMPDEST PUSH1 0x0 PUSH20 0xFFFFFFFFFFFFFFFFFFFFFFFFFFFFFFFFFFFFFFFF AND DUP3 PUSH20 0xFFFFFFFFFFFFFFFFFFFFFFFFFFFFFFFFFFFFFFFF AND EQ ISZERO PUSH2 0x2E2C JUMPI PUSH1 0x40 MLOAD PUSH32 0x8C379A000000000000000000000000000000000000000000000000000000000 DUP2 MSTORE PUSH1 0x4 ADD PUSH2 0x2E23 SWAP1 PUSH2 0x43E1 JUMP JUMPDEST PUSH1 0x40 MLOAD DUP1 SWAP2 SUB SWAP1 REVERT JUMPDEST PUSH2 0x2E35 DUP2 PUSH2 0x1C20 JUMP JUMPDEST ISZERO PUSH2 0x2E75 JUMPI PUSH1 0x40 MLOAD PUSH32 0x8C379A000000000000000000000000000000000000000000000000000000000 DUP2 MSTORE PUSH1 0x4 ADD PUSH2 0x2E6C SWAP1 PUSH2 0x42C1 JUMP JUMPDEST PUSH1 0x40 MLOAD DUP1 SWAP2 SUB SWAP1 REVERT JUMPDEST PUSH2 0x2E81 PUSH1 0x0 DUP4 DUP4 PUSH2 0x2DB7 JUMP JUMPDEST PUSH1 0x1 PUSH1 0x3 PUSH1 0x0 DUP5 PUSH20 0xFFFFFFFFFFFFFFFFFFFFFFFFFFFFFFFFFFFFFFFF AND PUSH20 0xFFFFFFFFFFFFFFFFFFFFFFFFFFFFFFFFFFFFFFFF AND DUP2 MSTORE PUSH1 0x20 ADD SWAP1 DUP2 MSTORE PUSH1 0x20 ADD PUSH1 0x0 KECCAK256 PUSH1 0x0 DUP3 DUP3 SLOAD PUSH2 0x2ED1 SWAP2 SWAP1 PUSH2 0x4615 JUMP JUMPDEST SWAP3 POP POP DUP2 SWAP1 SSTORE POP DUP2 PUSH1 0x2 PUSH1 0x0 DUP4 DUP2 MSTORE PUSH1 0x20 ADD SWAP1 DUP2 MSTORE PUSH1 0x20 ADD PUSH1 0x0 KECCAK256 PUSH1 0x0 PUSH2 0x100 EXP DUP2 SLOAD DUP2 PUSH20 0xFFFFFFFFFFFFFFFFFFFFFFFFFFFFFFFFFFFFFFFF MUL NOT AND SWAP1 DUP4 PUSH20 0xFFFFFFFFFFFFFFFFFFFFFFFFFFFFFFFFFFFFFFFF AND MUL OR SWAP1 SSTORE POP DUP1 DUP3 PUSH20 0xFFFFFFFFFFFFFFFFFFFFFFFFFFFFFFFFFFFFFFFF AND PUSH1 0x0 PUSH20 0xFFFFFFFFFFFFFFFFFFFFFFFFFFFFFFFFFFFFFFFF AND PUSH32 0xDDF252AD1BE2C89B69C2B068FC378DAA952BA7F163C4A11628F55A4DF523B3EF PUSH1 0x40 MLOAD PUSH1 0x40 MLOAD DUP1 SWAP2 SUB SWAP1 LOG4 POP POP JUMP JUMPDEST PUSH1 0x0 PUSH1 0x2 DUP4 PUSH2 0x2F99 SWAP2 SWAP1 PUSH2 0x49C1 JUMP JUMPDEST EQ PUSH2 0x2FD9 JUMPI PUSH1 0x40 MLOAD PUSH32 0x8C379A000000000000000000000000000000000000000000000000000000000 DUP2 MSTORE PUSH1 0x4 ADD PUSH2 0x2FD0 SWAP1 PUSH2 0x4241 JUMP JUMPDEST PUSH1 0x40 MLOAD DUP1 SWAP2 SUB SWAP1 REVERT JUMPDEST DUP1 PUSH1 0xC PUSH1 0x0 DUP5 DUP2 MSTORE PUSH1 0x20 ADD SWAP1 DUP2 MSTORE PUSH1 0x20 ADD PUSH1 0x0 KECCAK256 PUSH1 0x0 DUP3 ADD MLOAD DUP2 PUSH1 0x0 ADD PUSH1 0x0 PUSH2 0x100 EXP DUP2 SLOAD DUP2 PUSH12 0xFFFFFFFFFFFFFFFFFFFFFFFF MUL NOT AND SWAP1 DUP4 PUSH1 0xB SIGNEXTEND PUSH12 0xFFFFFFFFFFFFFFFFFFFFFFFF AND MUL OR SWAP1 SSTORE POP PUSH1 0x20 DUP3 ADD MLOAD DUP2 PUSH1 0x1 ADD SSTORE PUSH1 0x40 DUP3 ADD MLOAD DUP2 PUSH1 0x2 ADD SSTORE PUSH1 0x60 DUP3 ADD MLOAD DUP2 PUSH1 0x3 ADD PUSH1 0x0 PUSH2 0x100 EXP DUP2 SLOAD DUP2 PUSH20 0xFFFFFFFFFFFFFFFFFFFFFFFFFFFFFFFFFFFFFFFF MUL NOT AND SWAP1 DUP4 PUSH20 0xFFFFFFFFFFFFFFFFFFFFFFFFFFFFFFFFFFFFFFFF AND MUL OR SWAP1 SSTORE POP SWAP1 POP POP POP POP JUMP JUMPDEST PUSH1 0x0 PUSH2 0x30AA DUP5 PUSH20 0xFFFFFFFFFFFFFFFFFFFFFFFFFFFFFFFFFFFFFFFF AND PUSH2 0x3220 JUMP JUMPDEST ISZERO PUSH2 0x3213 JUMPI DUP4 PUSH20 0xFFFFFFFFFFFFFFFFFFFFFFFFFFFFFFFFFFFFFFFF AND PUSH4 0x150B7A02 PUSH2 0x30D3 PUSH2 0x1C8C JUMP JUMPDEST DUP8 DUP7 DUP7 PUSH1 0x40 MLOAD DUP6 PUSH4 0xFFFFFFFF AND PUSH1 0xE0 SHL DUP2 MSTORE PUSH1 0x4 ADD PUSH2 0x30F5 SWAP5 SWAP4 SWAP3 SWAP2 SWAP1 PUSH2 0x3F6E JUMP JUMPDEST PUSH1 0x20 PUSH1 0x40 MLOAD DUP1 DUP4 SUB DUP2 PUSH1 0x0 DUP8 DUP1 EXTCODESIZE ISZERO DUP1 ISZERO PUSH2 0x310F JUMPI PUSH1 0x0 DUP1 REVERT JUMPDEST POP GAS CALL SWAP3 POP POP POP DUP1 ISZERO PUSH2 0x3140 JUMPI POP PUSH1 0x40 MLOAD RETURNDATASIZE PUSH1 0x1F NOT PUSH1 0x1F DUP3 ADD AND DUP3 ADD DUP1 PUSH1 0x40 MSTORE POP DUP2 ADD SWAP1 PUSH2 0x313D SWAP2 SWAP1 PUSH2 0x3758 JUMP JUMPDEST PUSH1 0x1 JUMPDEST PUSH2 0x31C3 JUMPI RETURNDATASIZE DUP1 PUSH1 0x0 DUP2 EQ PUSH2 0x3170 JUMPI PUSH1 0x40 MLOAD SWAP2 POP PUSH1 0x1F NOT PUSH1 0x3F RETURNDATASIZE ADD AND DUP3 ADD PUSH1 0x40 MSTORE RETURNDATASIZE DUP3 MSTORE RETURNDATASIZE PUSH1 0x0 PUSH1 0x20 DUP5 ADD RETURNDATACOPY PUSH2 0x3175 JUMP JUMPDEST PUSH1 0x60 SWAP2 POP JUMPDEST POP PUSH1 0x0 DUP2 MLOAD EQ ISZERO PUSH2 0x31BB JUMPI PUSH1 0x40 MLOAD PUSH32 0x8C379A000000000000000000000000000000000000000000000000000000000 DUP2 MSTORE PUSH1 0x4 ADD PUSH2 0x31B2 SWAP1 PUSH2 0x4281 JUMP JUMPDEST PUSH1 0x40 MLOAD DUP1 SWAP2 SUB SWAP1 REVERT JUMPDEST DUP1 MLOAD DUP2 PUSH1 0x20 ADD REVERT JUMPDEST PUSH4 0x150B7A02 PUSH1 0xE0 SHL PUSH28 0xFFFFFFFFFFFFFFFFFFFFFFFFFFFFFFFFFFFFFFFFFFFFFFFFFFFFFFFF NOT AND DUP2 PUSH28 0xFFFFFFFFFFFFFFFFFFFFFFFFFFFFFFFFFFFFFFFFFFFFFFFFFFFFFFFF NOT AND EQ SWAP2 POP POP PUSH2 0x3218 JUMP JUMPDEST PUSH1 0x1 SWAP1 POP JUMPDEST SWAP5 SWAP4 POP POP POP POP JUMP JUMPDEST PUSH1 0x0 DUP1 DUP3 EXTCODESIZE SWAP1 POP PUSH1 0x0 DUP2 GT SWAP2 POP POP SWAP2 SWAP1 POP JUMP JUMPDEST PUSH1 0x0 PUSH2 0x3246 PUSH2 0x3241 DUP5 PUSH2 0x45A1 JUMP JUMPDEST PUSH2 0x457C JUMP JUMPDEST SWAP1 POP DUP3 DUP2 MSTORE PUSH1 0x20 DUP2 ADD DUP5 DUP5 DUP5 ADD GT ISZERO PUSH2 0x3262 JUMPI PUSH2 0x3261 PUSH2 0x4AEC JUMP JUMPDEST JUMPDEST PUSH2 0x326D DUP5 DUP3 DUP6 PUSH2 0x48D3 JUMP JUMPDEST POP SWAP4 SWAP3 POP POP POP JUMP JUMPDEST PUSH1 0x0 PUSH2 0x3288 PUSH2 0x3283 DUP5 PUSH2 0x45A1 JUMP JUMPDEST PUSH2 0x457C JUMP JUMPDEST SWAP1 POP DUP3 DUP2 MSTORE PUSH1 0x20 DUP2 ADD DUP5 DUP5 DUP5 ADD GT ISZERO PUSH2 0x32A4 JUMPI PUSH2 0x32A3 PUSH2 0x4AEC JUMP JUMPDEST JUMPDEST PUSH2 0x32AF DUP5 DUP3 DUP6 PUSH2 0x48E2 JUMP JUMPDEST POP SWAP4 SWAP3 POP POP POP JUMP JUMPDEST PUSH1 0x0 DUP2 CALLDATALOAD SWAP1 POP PUSH2 0x32C6 DUP2 PUSH2 0x52A3 JUMP JUMPDEST SWAP3 SWAP2 POP POP JUMP JUMPDEST PUSH1 0x0 DUP2 CALLDATALOAD SWAP1 POP PUSH2 0x32DB DUP2 PUSH2 0x52BA JUMP JUMPDEST SWAP3 SWAP2 POP POP JUMP JUMPDEST PUSH1 0x0 DUP2 MLOAD SWAP1 POP PUSH2 0x32F0 DUP2 PUSH2 0x52BA JUMP JUMPDEST SWAP3 SWAP2 POP POP JUMP JUMPDEST PUSH1 0x0 DUP2 CALLDATALOAD SWAP1 POP PUSH2 0x3305 DUP2 PUSH2 0x52D1 JUMP JUMPDEST SWAP3 SWAP2 POP POP JUMP JUMPDEST PUSH1 0x0 DUP2 MLOAD SWAP1 POP PUSH2 0x331A DUP2 PUSH2 0x52D1 JUMP JUMPDEST SWAP3 SWAP2 POP POP JUMP JUMPDEST PUSH1 0x0 DUP2 CALLDATALOAD SWAP1 POP PUSH2 0x332F DUP2 PUSH2 0x52E8 JUMP JUMPDEST SWAP3 SWAP2 POP POP JUMP JUMPDEST PUSH1 0x0 DUP2 MLOAD SWAP1 POP PUSH2 0x3344 DUP2 PUSH2 0x52E8 JUMP JUMPDEST SWAP3 SWAP2 POP POP JUMP JUMPDEST PUSH1 0x0 DUP1 DUP4 PUSH1 0x1F DUP5 ADD SLT PUSH2 0x3360 JUMPI PUSH2 0x335F PUSH2 0x4AE2 JUMP JUMPDEST JUMPDEST DUP3 CALLDATALOAD SWAP1 POP PUSH8 0xFFFFFFFFFFFFFFFF DUP2 GT ISZERO PUSH2 0x337D JUMPI PUSH2 0x337C PUSH2 0x4ADD JUMP JUMPDEST JUMPDEST PUSH1 0x20 DUP4 ADD SWAP2 POP DUP4 PUSH1 0x1 DUP3 MUL DUP4 ADD GT ISZERO PUSH2 0x3399 JUMPI PUSH2 0x3398 PUSH2 0x4AE7 JUMP JUMPDEST JUMPDEST SWAP3 POP SWAP3 SWAP1 POP JUMP JUMPDEST PUSH1 0x0 DUP3 PUSH1 0x1F DUP4 ADD SLT PUSH2 0x33B5 JUMPI PUSH2 0x33B4 PUSH2 0x4AE2 JUMP JUMPDEST JUMPDEST DUP2 CALLDATALOAD PUSH2 0x33C5 DUP5 DUP3 PUSH1 0x20 DUP7 ADD PUSH2 0x3233 JUMP JUMPDEST SWAP2 POP POP SWAP3 SWAP2 POP POP JUMP JUMPDEST PUSH1 0x0 DUP3 PUSH1 0x1F DUP4 ADD SLT PUSH2 0x33E3 JUMPI PUSH2 0x33E2 PUSH2 0x4AE2 JUMP JUMPDEST JUMPDEST DUP2 MLOAD PUSH2 0x33F3 DUP5 DUP3 PUSH1 0x20 DUP7 ADD PUSH2 0x3275 JUMP JUMPDEST SWAP2 POP POP SWAP3 SWAP2 POP POP JUMP JUMPDEST PUSH1 0x0 DUP2 CALLDATALOAD SWAP1 POP PUSH2 0x340B DUP2 PUSH2 0x52FF JUMP JUMPDEST SWAP3 SWAP2 POP POP JUMP JUMPDEST PUSH1 0x0 DUP2 MLOAD SWAP1 POP PUSH2 0x3420 DUP2 PUSH2 0x5316 JUMP JUMPDEST SWAP3 SWAP2 POP POP JUMP JUMPDEST PUSH1 0x0 DUP2 CALLDATALOAD SWAP1 POP PUSH2 0x3435 DUP2 PUSH2 0x532D JUMP JUMPDEST SWAP3 SWAP2 POP POP JUMP JUMPDEST PUSH1 0x0 DUP2 MLOAD SWAP1 POP PUSH2 0x344A DUP2 PUSH2 0x532D JUMP JUMPDEST SWAP3 SWAP2 POP POP JUMP JUMPDEST PUSH1 0x0 DUP2 CALLDATALOAD SWAP1 POP PUSH2 0x345F DUP2 PUSH2 0x5344 JUMP JUMPDEST SWAP3 SWAP2 POP POP JUMP JUMPDEST PUSH1 0x0 DUP2 MLOAD SWAP1 POP PUSH2 0x3474 DUP2 PUSH2 0x5344 JUMP JUMPDEST SWAP3 SWAP2 POP POP JUMP JUMPDEST PUSH1 0x0 PUSH1 0x20 DUP3 DUP5 SUB SLT ISZERO PUSH2 0x3490 JUMPI PUSH2 0x348F PUSH2 0x4AF6 JUMP JUMPDEST JUMPDEST PUSH1 0x0 PUSH2 0x349E DUP5 DUP3 DUP6 ADD PUSH2 0x32B7 JUMP JUMPDEST SWAP2 POP POP SWAP3 SWAP2 POP POP JUMP JUMPDEST PUSH1 0x0 DUP1 PUSH1 0x40 DUP4 DUP6 SUB SLT ISZERO PUSH2 0x34BE JUMPI PUSH2 0x34BD PUSH2 0x4AF6 JUMP JUMPDEST JUMPDEST PUSH1 0x0 PUSH2 0x34CC DUP6 DUP3 DUP7 ADD PUSH2 0x32B7 JUMP JUMPDEST SWAP3 POP POP PUSH1 0x20 PUSH2 0x34DD DUP6 DUP3 DUP7 ADD PUSH2 0x32B7 JUMP JUMPDEST SWAP2 POP POP SWAP3 POP SWAP3 SWAP1 POP JUMP JUMPDEST PUSH1 0x0 DUP1 PUSH1 0x0 DUP1 PUSH1 0x80 DUP6 DUP8 SUB SLT ISZERO PUSH2 0x3501 JUMPI PUSH2 0x3500 PUSH2 0x4AF6 JUMP JUMPDEST JUMPDEST PUSH1 0x0 PUSH2 0x350F DUP8 DUP3 DUP9 ADD PUSH2 0x32B7 JUMP JUMPDEST SWAP5 POP POP PUSH1 0x20 PUSH2 0x3520 DUP8 DUP3 DUP9 ADD PUSH2 0x32B7 JUMP JUMPDEST SWAP4 POP POP PUSH1 0x40 PUSH2 0x3531 DUP8 DUP3 DUP9 ADD PUSH2 0x3426 JUMP JUMPDEST SWAP3 POP POP PUSH1 0x60 PUSH2 0x3542 DUP8 DUP3 DUP9 ADD PUSH2 0x3450 JUMP JUMPDEST SWAP2 POP POP SWAP3 SWAP6 SWAP2 SWAP5 POP SWAP3 POP JUMP JUMPDEST PUSH1 0x0 DUP1 PUSH1 0x0 PUSH1 0x60 DUP5 DUP7 SUB SLT ISZERO PUSH2 0x3567 JUMPI PUSH2 0x3566 PUSH2 0x4AF6 JUMP JUMPDEST JUMPDEST PUSH1 0x0 PUSH2 0x3575 DUP7 DUP3 DUP8 ADD PUSH2 0x32B7 JUMP JUMPDEST SWAP4 POP POP PUSH1 0x20 PUSH2 0x3586 DUP7 DUP3 DUP8 ADD PUSH2 0x32B7 JUMP JUMPDEST SWAP3 POP POP PUSH1 0x40 PUSH2 0x3597 DUP7 DUP3 DUP8 ADD PUSH2 0x3450 JUMP JUMPDEST SWAP2 POP POP SWAP3 POP SWAP3 POP SWAP3 JUMP JUMPDEST PUSH1 0x0 DUP1 PUSH1 0x0 DUP1 PUSH1 0x80 DUP6 DUP8 SUB SLT ISZERO PUSH2 0x35BB JUMPI PUSH2 0x35BA PUSH2 0x4AF6 JUMP JUMPDEST JUMPDEST PUSH1 0x0 PUSH2 0x35C9 DUP8 DUP3 DUP9 ADD PUSH2 0x32B7 JUMP JUMPDEST SWAP5 POP POP PUSH1 0x20 PUSH2 0x35DA DUP8 DUP3 DUP9 ADD PUSH2 0x32B7 JUMP JUMPDEST SWAP4 POP POP PUSH1 0x40 PUSH2 0x35EB DUP8 DUP3 DUP9 ADD PUSH2 0x3450 JUMP JUMPDEST SWAP3 POP POP PUSH1 0x60 DUP6 ADD CALLDATALOAD PUSH8 0xFFFFFFFFFFFFFFFF DUP2 GT ISZERO PUSH2 0x360C JUMPI PUSH2 0x360B PUSH2 0x4AF1 JUMP JUMPDEST JUMPDEST PUSH2 0x3618 DUP8 DUP3 DUP9 ADD PUSH2 0x33A0 JUMP JUMPDEST SWAP2 POP POP SWAP3 SWAP6 SWAP2 SWAP5 POP SWAP3 POP JUMP JUMPDEST PUSH1 0x0 DUP1 PUSH1 0x40 DUP4 DUP6 SUB SLT ISZERO PUSH2 0x363B JUMPI PUSH2 0x363A PUSH2 0x4AF6 JUMP JUMPDEST JUMPDEST PUSH1 0x0 PUSH2 0x3649 DUP6 DUP3 DUP7 ADD PUSH2 0x32B7 JUMP JUMPDEST SWAP3 POP POP PUSH1 0x20 PUSH2 0x365A DUP6 DUP3 DUP7 ADD PUSH2 0x32CC JUMP JUMPDEST SWAP2 POP POP SWAP3 POP SWAP3 SWAP1 POP JUMP JUMPDEST PUSH1 0x0 DUP1 PUSH1 0x40 DUP4 DUP6 SUB SLT ISZERO PUSH2 0x367B JUMPI PUSH2 0x367A PUSH2 0x4AF6 JUMP JUMPDEST JUMPDEST PUSH1 0x0 PUSH2 0x3689 DUP6 DUP3 DUP7 ADD PUSH2 0x32B7 JUMP JUMPDEST SWAP3 POP POP PUSH1 0x20 PUSH2 0x369A DUP6 DUP3 DUP7 ADD PUSH2 0x3450 JUMP JUMPDEST SWAP2 POP POP SWAP3 POP SWAP3 SWAP1 POP JUMP JUMPDEST PUSH1 0x0 PUSH1 0x20 DUP3 DUP5 SUB SLT ISZERO PUSH2 0x36BA JUMPI PUSH2 0x36B9 PUSH2 0x4AF6 JUMP JUMPDEST JUMPDEST PUSH1 0x0 PUSH2 0x36C8 DUP5 DUP3 DUP6 ADD PUSH2 0x32E1 JUMP JUMPDEST SWAP2 POP POP SWAP3 SWAP2 POP POP JUMP JUMPDEST PUSH1 0x0 PUSH1 0x20 DUP3 DUP5 SUB SLT ISZERO PUSH2 0x36E7 JUMPI PUSH2 0x36E6 PUSH2 0x4AF6 JUMP JUMPDEST JUMPDEST PUSH1 0x0 PUSH2 0x36F5 DUP5 DUP3 DUP6 ADD PUSH2 0x32F6 JUMP JUMPDEST SWAP2 POP POP SWAP3 SWAP2 POP POP JUMP JUMPDEST PUSH1 0x0 PUSH1 0x20 DUP3 DUP5 SUB SLT ISZERO PUSH2 0x3714 JUMPI PUSH2 0x3713 PUSH2 0x4AF6 JUMP JUMPDEST JUMPDEST PUSH1 0x0 PUSH2 0x3722 DUP5 DUP3 DUP6 ADD PUSH2 0x330B JUMP JUMPDEST SWAP2 POP POP SWAP3 SWAP2 POP POP JUMP JUMPDEST PUSH1 0x0 PUSH1 0x20 DUP3 DUP5 SUB SLT ISZERO PUSH2 0x3741 JUMPI PUSH2 0x3740 PUSH2 0x4AF6 JUMP JUMPDEST JUMPDEST PUSH1 0x0 PUSH2 0x374F DUP5 DUP3 DUP6 ADD PUSH2 0x3320 JUMP JUMPDEST SWAP2 POP POP SWAP3 SWAP2 POP POP JUMP JUMPDEST PUSH1 0x0 PUSH1 0x20 DUP3 DUP5 SUB SLT ISZERO PUSH2 0x376E JUMPI PUSH2 0x376D PUSH2 0x4AF6 JUMP JUMPDEST JUMPDEST PUSH1 0x0 PUSH2 0x377C DUP5 DUP3 DUP6 ADD PUSH2 0x3335 JUMP JUMPDEST SWAP2 POP POP SWAP3 SWAP2 POP POP JUMP JUMPDEST PUSH1 0x0 PUSH1 0x20 DUP3 DUP5 SUB SLT ISZERO PUSH2 0x379B JUMPI PUSH2 0x379A PUSH2 0x4AF6 JUMP JUMPDEST JUMPDEST PUSH1 0x0 DUP3 ADD MLOAD PUSH8 0xFFFFFFFFFFFFFFFF DUP2 GT ISZERO PUSH2 0x37B9 JUMPI PUSH2 0x37B8 PUSH2 0x4AF1 JUMP JUMPDEST JUMPDEST PUSH2 0x37C5 DUP5 DUP3 DUP6 ADD PUSH2 0x33CE JUMP JUMPDEST SWAP2 POP POP SWAP3 SWAP2 POP POP JUMP JUMPDEST PUSH1 0x0 DUP1 PUSH1 0x0 DUP1 PUSH1 0x0 DUP1 PUSH1 0x0 PUSH1 0xA0 DUP9 DUP11 SUB SLT ISZERO PUSH2 0x37ED JUMPI PUSH2 0x37EC PUSH2 0x4AF6 JUMP JUMPDEST JUMPDEST PUSH1 0x0 PUSH2 0x37FB DUP11 DUP3 DUP12 ADD PUSH2 0x33FC JUMP JUMPDEST SWAP8 POP POP PUSH1 0x20 PUSH2 0x380C DUP11 DUP3 DUP12 ADD PUSH2 0x32B7 JUMP JUMPDEST SWAP7 POP POP PUSH1 0x40 PUSH2 0x381D DUP11 DUP3 DUP12 ADD PUSH2 0x32F6 JUMP JUMPDEST SWAP6 POP POP PUSH1 0x60 DUP9 ADD CALLDATALOAD PUSH8 0xFFFFFFFFFFFFFFFF DUP2 GT ISZERO PUSH2 0x383E JUMPI PUSH2 0x383D PUSH2 0x4AF1 JUMP JUMPDEST JUMPDEST PUSH2 0x384A DUP11 DUP3 DUP12 ADD PUSH2 0x334A JUMP JUMPDEST SWAP5 POP SWAP5 POP POP PUSH1 0x80 DUP9 ADD CALLDATALOAD PUSH8 0xFFFFFFFFFFFFFFFF DUP2 GT ISZERO PUSH2 0x386D JUMPI PUSH2 0x386C PUSH2 0x4AF1 JUMP JUMPDEST JUMPDEST PUSH2 0x3879 DUP11 DUP3 DUP12 ADD PUSH2 0x334A JUMP JUMPDEST SWAP3 POP SWAP3 POP POP SWAP3 SWAP6 SWAP9 SWAP2 SWAP5 SWAP8 POP SWAP3 SWAP6 POP JUMP JUMPDEST PUSH1 0x0 DUP1 PUSH1 0x0 DUP1 PUSH1 0x0 DUP1 PUSH1 0x0 DUP1 PUSH1 0x0 PUSH1 0xC0 DUP11 DUP13 SUB SLT ISZERO PUSH2 0x38AC JUMPI PUSH2 0x38AB PUSH2 0x4AF6 JUMP JUMPDEST JUMPDEST PUSH1 0x0 PUSH2 0x38BA DUP13 DUP3 DUP14 ADD PUSH2 0x33FC JUMP JUMPDEST SWAP10 POP POP PUSH1 0x20 PUSH2 0x38CB DUP13 DUP3 DUP14 ADD PUSH2 0x32B7 JUMP JUMPDEST SWAP9 POP POP PUSH1 0x40 PUSH2 0x38DC DUP13 DUP3 DUP14 ADD PUSH2 0x32F6 JUMP JUMPDEST SWAP8 POP POP PUSH1 0x60 DUP11 ADD CALLDATALOAD PUSH8 0xFFFFFFFFFFFFFFFF DUP2 GT ISZERO PUSH2 0x38FD JUMPI PUSH2 0x38FC PUSH2 0x4AF1 JUMP JUMPDEST JUMPDEST PUSH2 0x3909 DUP13 DUP3 DUP14 ADD PUSH2 0x334A JUMP JUMPDEST SWAP7 POP SWAP7 POP POP PUSH1 0x80 DUP11 ADD CALLDATALOAD PUSH8 0xFFFFFFFFFFFFFFFF DUP2 GT ISZERO PUSH2 0x392C JUMPI PUSH2 0x392B PUSH2 0x4AF1 JUMP JUMPDEST JUMPDEST PUSH2 0x3938 DUP13 DUP3 DUP14 ADD PUSH2 0x334A JUMP JUMPDEST SWAP5 POP SWAP5 POP POP PUSH1 0xA0 DUP11 ADD CALLDATALOAD PUSH8 0xFFFFFFFFFFFFFFFF DUP2 GT ISZERO PUSH2 0x395B JUMPI PUSH2 0x395A PUSH2 0x4AF1 JUMP JUMPDEST JUMPDEST PUSH2 0x3967 DUP13 DUP3 DUP14 ADD PUSH2 0x334A JUMP JUMPDEST SWAP3 POP SWAP3 POP POP SWAP3 SWAP6 SWAP9 POP SWAP3 SWAP6 SWAP9 POP SWAP3 SWAP6 SWAP9 JUMP JUMPDEST PUSH1 0x0 PUSH1 0x20 DUP3 DUP5 SUB SLT ISZERO PUSH2 0x398F JUMPI PUSH2 0x398E PUSH2 0x4AF6 JUMP JUMPDEST JUMPDEST PUSH1 0x0 PUSH2 0x399D DUP5 DUP3 DUP6 ADD PUSH2 0x3411 JUMP JUMPDEST SWAP2 POP POP SWAP3 SWAP2 POP POP JUMP JUMPDEST PUSH1 0x0 PUSH1 0x20 DUP3 DUP5 SUB SLT ISZERO PUSH2 0x39BC JUMPI PUSH2 0x39BB PUSH2 0x4AF6 JUMP JUMPDEST JUMPDEST PUSH1 0x0 PUSH2 0x39CA DUP5 DUP3 DUP6 ADD PUSH2 0x3450 JUMP JUMPDEST SWAP2 POP POP SWAP3 SWAP2 POP POP JUMP JUMPDEST PUSH1 0x0 DUP1 PUSH1 0x0 DUP1 PUSH1 0x80 DUP6 DUP8 SUB SLT ISZERO PUSH2 0x39ED JUMPI PUSH2 0x39EC PUSH2 0x4AF6 JUMP JUMPDEST JUMPDEST PUSH1 0x0 PUSH2 0x39FB DUP8 DUP3 DUP9 ADD PUSH2 0x3465 JUMP JUMPDEST SWAP5 POP POP PUSH1 0x20 PUSH2 0x3A0C DUP8 DUP3 DUP9 ADD PUSH2 0x343B JUMP JUMPDEST SWAP4 POP POP PUSH1 0x40 PUSH2 0x3A1D DUP8 DUP3 DUP9 ADD PUSH2 0x3465 JUMP JUMPDEST SWAP3 POP POP PUSH1 0x60 PUSH2 0x3A2E DUP8 DUP3 DUP9 ADD PUSH2 0x3465 JUMP JUMPDEST SWAP2 POP POP SWAP3 SWAP6 SWAP2 SWAP5 POP SWAP3 POP JUMP JUMPDEST PUSH2 0x3A43 DUP2 PUSH2 0x47E4 JUMP JUMPDEST DUP3 MSTORE POP POP JUMP JUMPDEST PUSH2 0x3A52 DUP2 PUSH2 0x47F6 JUMP JUMPDEST DUP3 MSTORE POP POP JUMP JUMPDEST PUSH2 0x3A61 DUP2 PUSH2 0x4802 JUMP JUMPDEST DUP3 MSTORE POP POP JUMP JUMPDEST PUSH1 0x0 PUSH2 0x3A72 DUP3 PUSH2 0x45D2 JUMP JUMPDEST PUSH2 0x3A7C DUP2 DUP6 PUSH2 0x45E8 JUMP JUMPDEST SWAP4 POP PUSH2 0x3A8C DUP2 DUP6 PUSH1 0x20 DUP7 ADD PUSH2 0x48E2 JUMP JUMPDEST PUSH2 0x3A95 DUP2 PUSH2 0x4AFB JUMP JUMPDEST DUP5 ADD SWAP2 POP POP SWAP3 SWAP2 POP POP JUMP JUMPDEST PUSH2 0x3AA9 DUP2 PUSH2 0x488B JUMP JUMPDEST DUP3 MSTORE POP POP JUMP JUMPDEST PUSH2 0x3AB8 DUP2 PUSH2 0x489D JUMP JUMPDEST DUP3 MSTORE POP POP JUMP JUMPDEST PUSH2 0x3AC7 DUP2 PUSH2 0x484A JUMP JUMPDEST DUP3 MSTORE POP POP JUMP JUMPDEST PUSH2 0x3AD6 DUP2 PUSH2 0x4854 JUMP JUMPDEST DUP3 MSTORE POP POP JUMP JUMPDEST PUSH1 0x0 PUSH2 0x3AE7 DUP3 PUSH2 0x45DD JUMP JUMPDEST PUSH2 0x3AF1 DUP2 DUP6 PUSH2 0x45F9 JUMP JUMPDEST SWAP4 POP PUSH2 0x3B01 DUP2 DUP6 PUSH1 0x20 DUP7 ADD PUSH2 0x48E2 JUMP JUMPDEST PUSH2 0x3B0A DUP2 PUSH2 0x4AFB JUMP JUMPDEST DUP5 ADD SWAP2 POP POP SWAP3 SWAP2 POP POP JUMP JUMPDEST PUSH1 0x0 PUSH2 0x3B20 DUP3 PUSH2 0x45DD JUMP JUMPDEST PUSH2 0x3B2A DUP2 DUP6 PUSH2 0x460A JUMP JUMPDEST SWAP4 POP PUSH2 0x3B3A DUP2 DUP6 PUSH1 0x20 DUP7 ADD PUSH2 0x48E2 JUMP JUMPDEST DUP1 DUP5 ADD SWAP2 POP POP SWAP3 SWAP2 POP POP JUMP JUMPDEST PUSH1 0x0 PUSH2 0x3B53 PUSH1 0x33 DUP4 PUSH2 0x45F9 JUMP JUMPDEST SWAP2 POP PUSH2 0x3B5E DUP3 PUSH2 0x4B0C JUMP JUMPDEST PUSH1 0x40 DUP3 ADD SWAP1 POP SWAP2 SWAP1 POP JUMP JUMPDEST PUSH1 0x0 PUSH2 0x3B76 PUSH1 0x2A DUP4 PUSH2 0x45F9 JUMP JUMPDEST SWAP2 POP PUSH2 0x3B81 DUP3 PUSH2 0x4B5B JUMP JUMPDEST PUSH1 0x40 DUP3 ADD SWAP1 POP SWAP2 SWAP1 POP JUMP JUMPDEST PUSH1 0x0 PUSH2 0x3B99 PUSH1 0x29 DUP4 PUSH2 0x45F9 JUMP JUMPDEST SWAP2 POP PUSH2 0x3BA4 DUP3 PUSH2 0x4BAA JUMP JUMPDEST PUSH1 0x40 DUP3 ADD SWAP1 POP SWAP2 SWAP1 POP JUMP JUMPDEST PUSH1 0x0 PUSH2 0x3BBC PUSH1 0x32 DUP4 PUSH2 0x45F9 JUMP JUMPDEST SWAP2 POP PUSH2 0x3BC7 DUP3 PUSH2 0x4BF9 JUMP JUMPDEST PUSH1 0x40 DUP3 ADD SWAP1 POP SWAP2 SWAP1 POP JUMP JUMPDEST PUSH1 0x0 PUSH2 0x3BDF PUSH1 0x26 DUP4 PUSH2 0x45F9 JUMP JUMPDEST SWAP2 POP PUSH2 0x3BEA DUP3 PUSH2 0x4C48 JUMP JUMPDEST PUSH1 0x40 DUP3 ADD SWAP1 POP SWAP2 SWAP1 POP JUMP JUMPDEST PUSH1 0x0 PUSH2 0x3C02 PUSH1 0x1C DUP4 PUSH2 0x45F9 JUMP JUMPDEST SWAP2 POP PUSH2 0x3C0D DUP3 PUSH2 0x4C97 JUMP JUMPDEST PUSH1 0x20 DUP3 ADD SWAP1 POP SWAP2 SWAP1 POP JUMP JUMPDEST PUSH1 0x0 PUSH2 0x3C25 PUSH1 0x33 DUP4 PUSH2 0x45F9 JUMP JUMPDEST SWAP2 POP PUSH2 0x3C30 DUP3 PUSH2 0x4CC0 JUMP JUMPDEST PUSH1 0x40 DUP3 ADD SWAP1 POP SWAP2 SWAP1 POP JUMP JUMPDEST PUSH1 0x0 PUSH2 0x3C48 PUSH1 0x22 DUP4 PUSH2 0x45F9 JUMP JUMPDEST SWAP2 POP PUSH2 0x3C53 DUP3 PUSH2 0x4D0F JUMP JUMPDEST PUSH1 0x40 DUP3 ADD SWAP1 POP SWAP2 SWAP1 POP JUMP JUMPDEST PUSH1 0x0 PUSH2 0x3C6B PUSH1 0x2 DUP4 PUSH2 0x45E8 JUMP JUMPDEST SWAP2 POP PUSH2 0x3C76 DUP3 PUSH2 0x4D5E JUMP JUMPDEST PUSH1 0x20 DUP3 ADD SWAP1 POP SWAP2 SWAP1 POP JUMP JUMPDEST PUSH1 0x0 PUSH2 0x3C8E PUSH1 0x24 DUP4 PUSH2 0x45F9 JUMP JUMPDEST SWAP2 POP PUSH2 0x3C99 DUP3 PUSH2 0x4D87 JUMP JUMPDEST PUSH1 0x40 DUP3 ADD SWAP1 POP SWAP2 SWAP1 POP JUMP JUMPDEST PUSH1 0x0 PUSH2 0x3CB1 PUSH1 0x19 DUP4 PUSH2 0x45F9 JUMP JUMPDEST SWAP2 POP PUSH2 0x3CBC DUP3 PUSH2 0x4DD6 JUMP JUMPDEST PUSH1 0x20 DUP3 ADD SWAP1 POP SWAP2 SWAP1 POP JUMP JUMPDEST PUSH1 0x0 PUSH2 0x3CD4 PUSH1 0x2C DUP4 PUSH2 0x45F9 JUMP JUMPDEST SWAP2 POP PUSH2 0x3CDF DUP3 PUSH2 0x4DFF JUMP JUMPDEST PUSH1 0x40 DUP3 ADD SWAP1 POP SWAP2 SWAP1 POP JUMP JUMPDEST PUSH1 0x0 PUSH2 0x3CF7 PUSH1 0x38 DUP4 PUSH2 0x45F9 JUMP JUMPDEST SWAP2 POP PUSH2 0x3D02 DUP3 PUSH2 0x4E4E JUMP JUMPDEST PUSH1 0x40 DUP3 ADD SWAP1 POP SWAP2 SWAP1 POP JUMP JUMPDEST PUSH1 0x0 PUSH2 0x3D1A PUSH1 0x2A DUP4 PUSH2 0x45F9 JUMP JUMPDEST SWAP2 POP PUSH2 0x3D25 DUP3 PUSH2 0x4E9D JUMP JUMPDEST PUSH1 0x40 DUP3 ADD SWAP1 POP SWAP2 SWAP1 POP JUMP JUMPDEST PUSH1 0x0 PUSH2 0x3D3D PUSH1 0x29 DUP4 PUSH2 0x45F9 JUMP JUMPDEST SWAP2 POP PUSH2 0x3D48 DUP3 PUSH2 0x4EEC JUMP JUMPDEST PUSH1 0x40 DUP3 ADD SWAP1 POP SWAP2 SWAP1 POP JUMP JUMPDEST PUSH1 0x0 PUSH2 0x3D60 PUSH1 0x20 DUP4 PUSH2 0x45F9 JUMP JUMPDEST SWAP2 POP PUSH2 0x3D6B DUP3 PUSH2 0x4F3B JUMP JUMPDEST PUSH1 0x20 DUP3 ADD SWAP1 POP SWAP2 SWAP1 POP JUMP JUMPDEST PUSH1 0x0 PUSH2 0x3D83 PUSH1 0x2C DUP4 PUSH2 0x45F9 JUMP JUMPDEST SWAP2 POP PUSH2 0x3D8E DUP3 PUSH2 0x4F64 JUMP JUMPDEST PUSH1 0x40 DUP3 ADD SWAP1 POP SWAP2 SWAP1 POP JUMP JUMPDEST PUSH1 0x0 PUSH2 0x3DA6 PUSH1 0x20 DUP4 PUSH2 0x45F9 JUMP JUMPDEST SWAP2 POP PUSH2 0x3DB1 DUP3 PUSH2 0x4FB3 JUMP JUMPDEST PUSH1 0x20 DUP3 ADD SWAP1 POP SWAP2 SWAP1 POP JUMP JUMPDEST PUSH1 0x0 PUSH2 0x3DC9 PUSH1 0x29 DUP4 PUSH2 0x45F9 JUMP JUMPDEST SWAP2 POP PUSH2 0x3DD4 DUP3 PUSH2 0x4FDC JUMP JUMPDEST PUSH1 0x40 DUP3 ADD SWAP1 POP SWAP2 SWAP1 POP JUMP JUMPDEST PUSH1 0x0 PUSH2 0x3DEC PUSH1 0x2F DUP4 PUSH2 0x45F9 JUMP JUMPDEST SWAP2 POP PUSH2 0x3DF7 DUP3 PUSH2 0x502B JUMP JUMPDEST PUSH1 0x40 DUP3 ADD SWAP1 POP SWAP2 SWAP1 POP JUMP JUMPDEST PUSH1 0x0 PUSH2 0x3E0F PUSH1 0x39 DUP4 PUSH2 0x45F9 JUMP JUMPDEST SWAP2 POP PUSH2 0x3E1A DUP3 PUSH2 0x507A JUMP JUMPDEST PUSH1 0x40 DUP3 ADD SWAP1 POP SWAP2 SWAP1 POP JUMP JUMPDEST PUSH1 0x0 PUSH2 0x3E32 PUSH1 0x21 DUP4 PUSH2 0x45F9 JUMP JUMPDEST SWAP2 POP PUSH2 0x3E3D DUP3 PUSH2 0x50C9 JUMP JUMPDEST PUSH1 0x40 DUP3 ADD SWAP1 POP SWAP2 SWAP1 POP JUMP JUMPDEST PUSH1 0x0 PUSH2 0x3E55 PUSH1 0x2F DUP4 PUSH2 0x45F9 JUMP JUMPDEST SWAP2 POP PUSH2 0x3E60 DUP3 PUSH2 0x5118 JUMP JUMPDEST PUSH1 0x40 DUP3 ADD SWAP1 POP SWAP2 SWAP1 POP JUMP JUMPDEST PUSH1 0x0 PUSH2 0x3E78 PUSH1 0x2E DUP4 PUSH2 0x45F9 JUMP JUMPDEST SWAP2 POP PUSH2 0x3E83 DUP3 PUSH2 0x5167 JUMP JUMPDEST PUSH1 0x40 DUP3 ADD SWAP1 POP SWAP2 SWAP1 POP JUMP JUMPDEST PUSH1 0x0 PUSH2 0x3E9B PUSH1 0x31 DUP4 PUSH2 0x45F9 JUMP JUMPDEST SWAP2 POP PUSH2 0x3EA6 DUP3 PUSH2 0x51B6 JUMP JUMPDEST PUSH1 0x40 DUP3 ADD SWAP1 POP SWAP2 SWAP1 POP JUMP JUMPDEST PUSH1 0x0 PUSH2 0x3EBE PUSH1 0x2E DUP4 PUSH2 0x45F9 JUMP JUMPDEST SWAP2 POP PUSH2 0x3EC9 DUP3 PUSH2 0x5205 JUMP JUMPDEST PUSH1 0x40 DUP3 ADD SWAP1 POP SWAP2 SWAP1 POP JUMP JUMPDEST PUSH1 0x0 PUSH2 0x3EE1 PUSH1 0x2F DUP4 PUSH2 0x45F9 JUMP JUMPDEST SWAP2 POP PUSH2 0x3EEC DUP3 PUSH2 0x5254 JUMP JUMPDEST PUSH1 0x40 DUP3 ADD SWAP1 POP SWAP2 SWAP1 POP JUMP JUMPDEST PUSH2 0x3F00 DUP2 PUSH2 0x4881 JUMP JUMPDEST DUP3 MSTORE POP POP JUMP JUMPDEST PUSH1 0x0 PUSH2 0x3F12 DUP3 DUP6 PUSH2 0x3B15 JUMP JUMPDEST SWAP2 POP PUSH2 0x3F1E DUP3 DUP5 PUSH2 0x3B15 JUMP JUMPDEST SWAP2 POP DUP2 SWAP1 POP SWAP4 SWAP3 POP POP POP JUMP JUMPDEST PUSH1 0x0 PUSH1 0x20 DUP3 ADD SWAP1 POP PUSH2 0x3F3F PUSH1 0x0 DUP4 ADD DUP5 PUSH2 0x3A3A JUMP JUMPDEST SWAP3 SWAP2 POP POP JUMP JUMPDEST PUSH1 0x0 PUSH1 0x40 DUP3 ADD SWAP1 POP PUSH2 0x3F5A PUSH1 0x0 DUP4 ADD DUP6 PUSH2 0x3A3A JUMP JUMPDEST PUSH2 0x3F67 PUSH1 0x20 DUP4 ADD DUP5 PUSH2 0x3A3A JUMP JUMPDEST SWAP4 SWAP3 POP POP POP JUMP JUMPDEST PUSH1 0x0 PUSH1 0x80 DUP3 ADD SWAP1 POP PUSH2 0x3F83 PUSH1 0x0 DUP4 ADD DUP8 PUSH2 0x3A3A JUMP JUMPDEST PUSH2 0x3F90 PUSH1 0x20 DUP4 ADD DUP7 PUSH2 0x3A3A JUMP JUMPDEST PUSH2 0x3F9D PUSH1 0x40 DUP4 ADD DUP6 PUSH2 0x3EF7 JUMP JUMPDEST DUP2 DUP2 SUB PUSH1 0x60 DUP4 ADD MSTORE PUSH2 0x3FAF DUP2 DUP5 PUSH2 0x3A67 JUMP JUMPDEST SWAP1 POP SWAP6 SWAP5 POP POP POP POP POP JUMP JUMPDEST PUSH1 0x0 PUSH1 0x40 DUP3 ADD SWAP1 POP PUSH2 0x3FCF PUSH1 0x0 DUP4 ADD DUP6 PUSH2 0x3A3A JUMP JUMPDEST PUSH2 0x3FDC PUSH1 0x20 DUP4 ADD DUP5 PUSH2 0x3EF7 JUMP JUMPDEST SWAP4 SWAP3 POP POP POP JUMP JUMPDEST PUSH1 0x0 PUSH1 0x20 DUP3 ADD SWAP1 POP PUSH2 0x3FF8 PUSH1 0x0 DUP4 ADD DUP5 PUSH2 0x3A49 JUMP JUMPDEST SWAP3 SWAP2 POP POP JUMP JUMPDEST PUSH1 0x0 PUSH1 0x20 DUP3 ADD SWAP1 POP PUSH2 0x4013 PUSH1 0x0 DUP4 ADD DUP5 PUSH2 0x3A58 JUMP JUMPDEST SWAP3 SWAP2 POP POP JUMP JUMPDEST PUSH1 0x0 PUSH1 0x40 DUP3 ADD SWAP1 POP PUSH2 0x402E PUSH1 0x0 DUP4 ADD DUP6 PUSH2 0x3A58 JUMP JUMPDEST PUSH2 0x403B PUSH1 0x20 DUP4 ADD DUP5 PUSH2 0x3ACD JUMP JUMPDEST SWAP4 SWAP3 POP POP POP JUMP JUMPDEST PUSH1 0x0 PUSH1 0x20 DUP3 ADD SWAP1 POP DUP2 DUP2 SUB PUSH1 0x0 DUP4 ADD MSTORE PUSH2 0x405C DUP2 DUP5 PUSH2 0x3A67 JUMP JUMPDEST SWAP1 POP SWAP3 SWAP2 POP POP JUMP JUMPDEST PUSH1 0x0 PUSH1 0x60 DUP3 ADD SWAP1 POP PUSH2 0x4079 PUSH1 0x0 DUP4 ADD DUP6 PUSH2 0x3AA0 JUMP JUMPDEST DUP2 DUP2 SUB PUSH1 0x20 DUP4 ADD MSTORE PUSH2 0x408B DUP2 DUP5 PUSH2 0x3A67 JUMP JUMPDEST SWAP1 POP DUP2 DUP2 SUB PUSH1 0x40 DUP4 ADD MSTORE PUSH2 0x409E DUP2 PUSH2 0x3C5E JUMP JUMPDEST SWAP1 POP SWAP4 SWAP3 POP POP POP JUMP JUMPDEST PUSH1 0x0 PUSH1 0x20 DUP3 ADD SWAP1 POP PUSH2 0x40BC PUSH1 0x0 DUP4 ADD DUP5 PUSH2 0x3AAF JUMP JUMPDEST SWAP3 SWAP2 POP POP JUMP JUMPDEST PUSH1 0x0 PUSH1 0x60 DUP3 ADD SWAP1 POP PUSH2 0x40D7 PUSH1 0x0 DUP4 ADD DUP7 PUSH2 0x3AAF JUMP JUMPDEST PUSH2 0x40E4 PUSH1 0x20 DUP4 ADD DUP6 PUSH2 0x3A3A JUMP JUMPDEST PUSH2 0x40F1 PUSH1 0x40 DUP4 ADD DUP5 PUSH2 0x3A3A JUMP JUMPDEST SWAP5 SWAP4 POP POP POP POP JUMP JUMPDEST PUSH1 0x0 PUSH1 0x80 DUP3 ADD SWAP1 POP PUSH2 0x410E PUSH1 0x0 DUP4 ADD DUP8 PUSH2 0x3AAF JUMP JUMPDEST PUSH2 0x411B PUSH1 0x20 DUP4 ADD DUP7 PUSH2 0x3A3A JUMP JUMPDEST PUSH2 0x4128 PUSH1 0x40 DUP4 ADD DUP6 PUSH2 0x3A3A JUMP JUMPDEST DUP2 DUP2 SUB PUSH1 0x60 DUP4 ADD MSTORE PUSH2 0x413A DUP2 DUP5 PUSH2 0x3A67 JUMP JUMPDEST SWAP1 POP SWAP6 SWAP5 POP POP POP POP POP JUMP JUMPDEST PUSH1 0x0 PUSH1 0x80 DUP3 ADD SWAP1 POP PUSH2 0x415A PUSH1 0x0 DUP4 ADD DUP8 PUSH2 0x3AAF JUMP JUMPDEST PUSH2 0x4167 PUSH1 0x20 DUP4 ADD DUP7 PUSH2 0x3A3A JUMP JUMPDEST PUSH2 0x4174 PUSH1 0x40 DUP4 ADD DUP6 PUSH2 0x3ACD JUMP JUMPDEST DUP2 DUP2 SUB PUSH1 0x60 DUP4 ADD MSTORE PUSH2 0x4186 DUP2 DUP5 PUSH2 0x3A67 JUMP JUMPDEST SWAP1 POP SWAP6 SWAP5 POP POP POP POP POP JUMP JUMPDEST PUSH1 0x0 PUSH1 0x40 DUP3 ADD SWAP1 POP PUSH2 0x41A6 PUSH1 0x0 DUP4 ADD DUP6 PUSH2 0x3ABE JUMP JUMPDEST PUSH2 0x41B3 PUSH1 0x20 DUP4 ADD DUP5 PUSH2 0x3A3A JUMP JUMPDEST SWAP4 SWAP3 POP POP POP JUMP JUMPDEST PUSH1 0x0 PUSH1 0x80 DUP3 ADD SWAP1 POP PUSH2 0x41CF PUSH1 0x0 DUP4 ADD DUP8 PUSH2 0x3ACD JUMP JUMPDEST PUSH2 0x41DC PUSH1 0x20 DUP4 ADD DUP7 PUSH2 0x3EF7 JUMP JUMPDEST PUSH2 0x41E9 PUSH1 0x40 DUP4 ADD DUP6 PUSH2 0x3ABE JUMP JUMPDEST PUSH2 0x41F6 PUSH1 0x60 DUP4 ADD DUP5 PUSH2 0x3A3A JUMP JUMPDEST SWAP6 SWAP5 POP POP POP POP POP JUMP JUMPDEST PUSH1 0x0 PUSH1 0x20 DUP3 ADD SWAP1 POP DUP2 DUP2 SUB PUSH1 0x0 DUP4 ADD MSTORE PUSH2 0x4219 DUP2 DUP5 PUSH2 0x3ADC JUMP JUMPDEST SWAP1 POP SWAP3 SWAP2 POP POP JUMP JUMPDEST PUSH1 0x0 PUSH1 0x20 DUP3 ADD SWAP1 POP DUP2 DUP2 SUB PUSH1 0x0 DUP4 ADD MSTORE PUSH2 0x423A DUP2 PUSH2 0x3B46 JUMP JUMPDEST SWAP1 POP SWAP2 SWAP1 POP JUMP JUMPDEST PUSH1 0x0 PUSH1 0x20 DUP3 ADD SWAP1 POP DUP2 DUP2 SUB PUSH1 0x0 DUP4 ADD MSTORE PUSH2 0x425A DUP2 PUSH2 0x3B69 JUMP JUMPDEST SWAP1 POP SWAP2 SWAP1 POP JUMP JUMPDEST PUSH1 0x0 PUSH1 0x20 DUP3 ADD SWAP1 POP DUP2 DUP2 SUB PUSH1 0x0 DUP4 ADD MSTORE PUSH2 0x427A DUP2 PUSH2 0x3B8C JUMP JUMPDEST SWAP1 POP SWAP2 SWAP1 POP JUMP JUMPDEST PUSH1 0x0 PUSH1 0x20 DUP3 ADD SWAP1 POP DUP2 DUP2 SUB PUSH1 0x0 DUP4 ADD MSTORE PUSH2 0x429A DUP2 PUSH2 0x3BAF JUMP JUMPDEST SWAP1 POP SWAP2 SWAP1 POP JUMP JUMPDEST PUSH1 0x0 PUSH1 0x20 DUP3 ADD SWAP1 POP DUP2 DUP2 SUB PUSH1 0x0 DUP4 ADD MSTORE PUSH2 0x42BA DUP2 PUSH2 0x3BD2 JUMP JUMPDEST SWAP1 POP SWAP2 SWAP1 POP JUMP JUMPDEST PUSH1 0x0 PUSH1 0x20 DUP3 ADD SWAP1 POP DUP2 DUP2 SUB PUSH1 0x0 DUP4 ADD MSTORE PUSH2 0x42DA DUP2 PUSH2 0x3BF5 JUMP JUMPDEST SWAP1 POP SWAP2 SWAP1 POP JUMP JUMPDEST PUSH1 0x0 PUSH1 0x20 DUP3 ADD SWAP1 POP DUP2 DUP2 SUB PUSH1 0x0 DUP4 ADD MSTORE PUSH2 0x42FA DUP2 PUSH2 0x3C18 JUMP JUMPDEST SWAP1 POP SWAP2 SWAP1 POP JUMP JUMPDEST PUSH1 0x0 PUSH1 0x20 DUP3 ADD SWAP1 POP DUP2 DUP2 SUB PUSH1 0x0 DUP4 ADD MSTORE PUSH2 0x431A DUP2 PUSH2 0x3C3B JUMP JUMPDEST SWAP1 POP SWAP2 SWAP1 POP JUMP JUMPDEST PUSH1 0x0 PUSH1 0x20 DUP3 ADD SWAP1 POP DUP2 DUP2 SUB PUSH1 0x0 DUP4 ADD MSTORE PUSH2 0x433A DUP2 PUSH2 0x3C81 JUMP JUMPDEST SWAP1 POP SWAP2 SWAP1 POP JUMP JUMPDEST PUSH1 0x0 PUSH1 0x20 DUP3 ADD SWAP1 POP DUP2 DUP2 SUB PUSH1 0x0 DUP4 ADD MSTORE PUSH2 0x435A DUP2 PUSH2 0x3CA4 JUMP JUMPDEST SWAP1 POP SWAP2 SWAP1 POP JUMP JUMPDEST PUSH1 0x0 PUSH1 0x20 DUP3 ADD SWAP1 POP DUP2 DUP2 SUB PUSH1 0x0 DUP4 ADD MSTORE PUSH2 0x437A DUP2 PUSH2 0x3CC7 JUMP JUMPDEST SWAP1 POP SWAP2 SWAP1 POP JUMP JUMPDEST PUSH1 0x0 PUSH1 0x20 DUP3 ADD SWAP1 POP DUP2 DUP2 SUB PUSH1 0x0 DUP4 ADD MSTORE PUSH2 0x439A DUP2 PUSH2 0x3CEA JUMP JUMPDEST SWAP1 POP SWAP2 SWAP1 POP JUMP JUMPDEST PUSH1 0x0 PUSH1 0x20 DUP3 ADD SWAP1 POP DUP2 DUP2 SUB PUSH1 0x0 DUP4 ADD MSTORE PUSH2 0x43BA DUP2 PUSH2 0x3D0D JUMP JUMPDEST SWAP1 POP SWAP2 SWAP1 POP JUMP JUMPDEST PUSH1 0x0 PUSH1 0x20 DUP3 ADD SWAP1 POP DUP2 DUP2 SUB PUSH1 0x0 DUP4 ADD MSTORE PUSH2 0x43DA DUP2 PUSH2 0x3D30 JUMP JUMPDEST SWAP1 POP SWAP2 SWAP1 POP JUMP JUMPDEST PUSH1 0x0 PUSH1 0x20 DUP3 ADD SWAP1 POP DUP2 DUP2 SUB PUSH1 0x0 DUP4 ADD MSTORE PUSH2 0x43FA DUP2 PUSH2 0x3D53 JUMP JUMPDEST SWAP1 POP SWAP2 SWAP1 POP JUMP JUMPDEST PUSH1 0x0 PUSH1 0x20 DUP3 ADD SWAP1 POP DUP2 DUP2 SUB PUSH1 0x0 DUP4 ADD MSTORE PUSH2 0x441A DUP2 PUSH2 0x3D76 JUMP JUMPDEST SWAP1 POP SWAP2 SWAP1 POP JUMP JUMPDEST PUSH1 0x0 PUSH1 0x20 DUP3 ADD SWAP1 POP DUP2 DUP2 SUB PUSH1 0x0 DUP4 ADD MSTORE PUSH2 0x443A DUP2 PUSH2 0x3D99 JUMP JUMPDEST SWAP1 POP SWAP2 SWAP1 POP JUMP JUMPDEST PUSH1 0x0 PUSH1 0x20 DUP3 ADD SWAP1 POP DUP2 DUP2 SUB PUSH1 0x0 DUP4 ADD MSTORE PUSH2 0x445A DUP2 PUSH2 0x3DBC JUMP JUMPDEST SWAP1 POP SWAP2 SWAP1 POP JUMP JUMPDEST PUSH1 0x0 PUSH1 0x20 DUP3 ADD SWAP1 POP DUP2 DUP2 SUB PUSH1 0x0 DUP4 ADD MSTORE PUSH2 0x447A DUP2 PUSH2 0x3DDF JUMP JUMPDEST SWAP1 POP SWAP2 SWAP1 POP JUMP JUMPDEST PUSH1 0x0 PUSH1 0x20 DUP3 ADD SWAP1 POP DUP2 DUP2 SUB PUSH1 0x0 DUP4 ADD MSTORE PUSH2 0x449A DUP2 PUSH2 0x3E02 JUMP JUMPDEST SWAP1 POP SWAP2 SWAP1 POP JUMP JUMPDEST PUSH1 0x0 PUSH1 0x20 DUP3 ADD SWAP1 POP DUP2 DUP2 SUB PUSH1 0x0 DUP4 ADD MSTORE PUSH2 0x44BA DUP2 PUSH2 0x3E25 JUMP JUMPDEST SWAP1 POP SWAP2 SWAP1 POP JUMP JUMPDEST PUSH1 0x0 PUSH1 0x20 DUP3 ADD SWAP1 POP DUP2 DUP2 SUB PUSH1 0x0 DUP4 ADD MSTORE PUSH2 0x44DA DUP2 PUSH2 0x3E48 JUMP JUMPDEST SWAP1 POP SWAP2 SWAP1 POP JUMP JUMPDEST PUSH1 0x0 PUSH1 0x20 DUP3 ADD SWAP1 POP DUP2 DUP2 SUB PUSH1 0x0 DUP4 ADD MSTORE PUSH2 0x44FA DUP2 PUSH2 0x3E6B JUMP JUMPDEST SWAP1 POP SWAP2 SWAP1 POP JUMP JUMPDEST PUSH1 0x0 PUSH1 0x20 DUP3 ADD SWAP1 POP DUP2 DUP2 SUB PUSH1 0x0 DUP4 ADD MSTORE PUSH2 0x451A DUP2 PUSH2 0x3E8E JUMP JUMPDEST SWAP1 POP SWAP2 SWAP1 POP JUMP JUMPDEST PUSH1 0x0 PUSH1 0x20 DUP3 ADD SWAP1 POP DUP2 DUP2 SUB PUSH1 0x0 DUP4 ADD MSTORE PUSH2 0x453A DUP2 PUSH2 0x3EB1 JUMP JUMPDEST SWAP1 POP SWAP2 SWAP1 POP JUMP JUMPDEST PUSH1 0x0 PUSH1 0x20 DUP3 ADD SWAP1 POP DUP2 DUP2 SUB PUSH1 0x0 DUP4 ADD MSTORE PUSH2 0x455A DUP2 PUSH2 0x3ED4 JUMP JUMPDEST SWAP1 POP SWAP2 SWAP1 POP JUMP JUMPDEST PUSH1 0x0 PUSH1 0x20 DUP3 ADD SWAP1 POP PUSH2 0x4576 PUSH1 0x0 DUP4 ADD DUP5 PUSH2 0x3EF7 JUMP JUMPDEST SWAP3 SWAP2 POP POP JUMP JUMPDEST PUSH1 0x0 PUSH2 0x4586 PUSH2 0x4597 JUMP JUMPDEST SWAP1 POP PUSH2 0x4592 DUP3 DUP3 PUSH2 0x4947 JUMP JUMPDEST SWAP2 SWAP1 POP JUMP JUMPDEST PUSH1 0x0 PUSH1 0x40 MLOAD SWAP1 POP SWAP1 JUMP JUMPDEST PUSH1 0x0 PUSH8 0xFFFFFFFFFFFFFFFF DUP3 GT ISZERO PUSH2 0x45BC JUMPI PUSH2 0x45BB PUSH2 0x4AAE JUMP JUMPDEST JUMPDEST PUSH2 0x45C5 DUP3 PUSH2 0x4AFB JUMP JUMPDEST SWAP1 POP PUSH1 0x20 DUP2 ADD SWAP1 POP SWAP2 SWAP1 POP JUMP JUMPDEST PUSH1 0x0 DUP2 MLOAD SWAP1 POP SWAP2 SWAP1 POP JUMP JUMPDEST PUSH1 0x0 DUP2 MLOAD SWAP1 POP SWAP2 SWAP1 POP JUMP JUMPDEST PUSH1 0x0 DUP3 DUP3 MSTORE PUSH1 0x20 DUP3 ADD SWAP1 POP SWAP3 SWAP2 POP POP JUMP JUMPDEST PUSH1 0x0 DUP3 DUP3 MSTORE PUSH1 0x20 DUP3 ADD SWAP1 POP SWAP3 SWAP2 POP POP JUMP JUMPDEST PUSH1 0x0 DUP2 SWAP1 POP SWAP3 SWAP2 POP POP JUMP JUMPDEST PUSH1 0x0 PUSH2 0x4620 DUP3 PUSH2 0x4881 JUMP JUMPDEST SWAP2 POP PUSH2 0x462B DUP4 PUSH2 0x4881 JUMP JUMPDEST SWAP3 POP DUP3 PUSH32 0xFFFFFFFFFFFFFFFFFFFFFFFFFFFFFFFFFFFFFFFFFFFFFFFFFFFFFFFFFFFFFFFF SUB DUP3 GT ISZERO PUSH2 0x4660 JUMPI PUSH2 0x465F PUSH2 0x49F2 JUMP JUMPDEST JUMPDEST DUP3 DUP3 ADD SWAP1 POP SWAP3 SWAP2 POP POP JUMP JUMPDEST PUSH1 0x0 PUSH2 0x4676 DUP3 PUSH2 0x4881 JUMP JUMPDEST SWAP2 POP PUSH2 0x4681 DUP4 PUSH2 0x4881 JUMP JUMPDEST SWAP3 POP DUP3 PUSH2 0x4691 JUMPI PUSH2 0x4690 PUSH2 0x4A21 JUMP JUMPDEST JUMPDEST DUP3 DUP3 DIV SWAP1 POP SWAP3 SWAP2 POP POP JUMP JUMPDEST PUSH1 0x0 PUSH2 0x46A7 DUP3 PUSH2 0x484A JUMP JUMPDEST SWAP2 POP PUSH2 0x46B2 DUP4 PUSH2 0x484A JUMP JUMPDEST SWAP3 POP DUP3 PUSH32 0x8000000000000000000000000000000000000000000000000000000000000000 ADD DUP3 SLT PUSH1 0x0 DUP5 SLT ISZERO AND ISZERO PUSH2 0x46ED JUMPI PUSH2 0x46EC PUSH2 0x49F2 JUMP JUMPDEST JUMPDEST DUP3 PUSH32 0x7FFFFFFFFFFFFFFFFFFFFFFFFFFFFFFFFFFFFFFFFFFFFFFFFFFFFFFFFFFFFFFF ADD DUP3 SGT PUSH1 0x0 DUP5 SLT AND ISZERO PUSH2 0x4725 JUMPI PUSH2 0x4724 PUSH2 0x49F2 JUMP JUMPDEST JUMPDEST DUP3 DUP3 SUB SWAP1 POP SWAP3 SWAP2 POP POP JUMP JUMPDEST PUSH1 0x0 PUSH2 0x473B DUP3 PUSH2 0x4854 JUMP JUMPDEST SWAP2 POP PUSH2 0x4746 DUP4 PUSH2 0x4854 JUMP JUMPDEST SWAP3 POP DUP3 PUSH32 0xFFFFFFFFFFFFFFFFFFFFFFFFFFFFFFFFFFFFFFFF800000000000000000000000 ADD DUP3 SLT PUSH1 0x0 DUP5 SLT ISZERO AND ISZERO PUSH2 0x4781 JUMPI PUSH2 0x4780 PUSH2 0x49F2 JUMP JUMPDEST JUMPDEST DUP3 PUSH12 0x7FFFFFFFFFFFFFFFFFFFFFFF ADD DUP3 SGT PUSH1 0x0 DUP5 SLT AND ISZERO PUSH2 0x47A5 JUMPI PUSH2 0x47A4 PUSH2 0x49F2 JUMP JUMPDEST JUMPDEST DUP3 DUP3 SUB SWAP1 POP SWAP3 SWAP2 POP POP JUMP JUMPDEST PUSH1 0x0 PUSH2 0x47BB DUP3 PUSH2 0x4881 JUMP JUMPDEST SWAP2 POP PUSH2 0x47C6 DUP4 PUSH2 0x4881 JUMP JUMPDEST SWAP3 POP DUP3 DUP3 LT ISZERO PUSH2 0x47D9 JUMPI PUSH2 0x47D8 PUSH2 0x49F2 JUMP JUMPDEST JUMPDEST DUP3 DUP3 SUB SWAP1 POP SWAP3 SWAP2 POP POP JUMP JUMPDEST PUSH1 0x0 PUSH2 0x47EF DUP3 PUSH2 0x4861 JUMP JUMPDEST SWAP1 POP SWAP2 SWAP1 POP JUMP JUMPDEST PUSH1 0x0 DUP2 ISZERO ISZERO SWAP1 POP SWAP2 SWAP1 POP JUMP JUMPDEST PUSH1 0x0 DUP2 SWAP1 POP SWAP2 SWAP1 POP JUMP JUMPDEST PUSH1 0x0 PUSH32 0xFFFFFFFF00000000000000000000000000000000000000000000000000000000 DUP3 AND SWAP1 POP SWAP2 SWAP1 POP JUMP JUMPDEST PUSH1 0x0 PUSH2 0x4843 DUP3 PUSH2 0x47E4 JUMP JUMPDEST SWAP1 POP SWAP2 SWAP1 POP JUMP JUMPDEST PUSH1 0x0 DUP2 SWAP1 POP SWAP2 SWAP1 POP JUMP JUMPDEST PUSH1 0x0 DUP2 PUSH1 0xB SIGNEXTEND SWAP1 POP SWAP2 SWAP1 POP JUMP JUMPDEST PUSH1 0x0 PUSH20 0xFFFFFFFFFFFFFFFFFFFFFFFFFFFFFFFFFFFFFFFF DUP3 AND SWAP1 POP SWAP2 SWAP1 POP JUMP JUMPDEST PUSH1 0x0 DUP2 SWAP1 POP SWAP2 SWAP1 POP JUMP JUMPDEST PUSH1 0x0 PUSH2 0x4896 DUP3 PUSH2 0x48AF JUMP JUMPDEST SWAP1 POP SWAP2 SWAP1 POP JUMP JUMPDEST PUSH1 0x0 PUSH2 0x48A8 DUP3 PUSH2 0x48AF JUMP JUMPDEST SWAP1 POP SWAP2 SWAP1 POP JUMP JUMPDEST PUSH1 0x0 PUSH2 0x48BA DUP3 PUSH2 0x48C1 JUMP JUMPDEST SWAP1 POP SWAP2 SWAP1 POP JUMP JUMPDEST PUSH1 0x0 PUSH2 0x48CC DUP3 PUSH2 0x4861 JUMP JUMPDEST SWAP1 POP SWAP2 SWAP1 POP JUMP JUMPDEST DUP3 DUP2 DUP4 CALLDATACOPY PUSH1 0x0 DUP4 DUP4 ADD MSTORE POP POP POP JUMP JUMPDEST PUSH1 0x0 JUMPDEST DUP4 DUP2 LT ISZERO PUSH2 0x4900 JUMPI DUP1 DUP3 ADD MLOAD DUP2 DUP5 ADD MSTORE PUSH1 0x20 DUP2 ADD SWAP1 POP PUSH2 0x48E5 JUMP JUMPDEST DUP4 DUP2 GT ISZERO PUSH2 0x490F JUMPI PUSH1 0x0 DUP5 DUP5 ADD MSTORE JUMPDEST POP POP POP POP JUMP JUMPDEST PUSH1 0x0 PUSH1 0x2 DUP3 DIV SWAP1 POP PUSH1 0x1 DUP3 AND DUP1 PUSH2 0x492D JUMPI PUSH1 0x7F DUP3 AND SWAP2 POP JUMPDEST PUSH1 0x20 DUP3 LT DUP2 EQ ISZERO PUSH2 0x4941 JUMPI PUSH2 0x4940 PUSH2 0x4A50 JUMP JUMPDEST JUMPDEST POP SWAP2 SWAP1 POP JUMP JUMPDEST PUSH2 0x4950 DUP3 PUSH2 0x4AFB JUMP JUMPDEST DUP2 ADD DUP2 DUP2 LT PUSH8 0xFFFFFFFFFFFFFFFF DUP3 GT OR ISZERO PUSH2 0x496F JUMPI PUSH2 0x496E PUSH2 0x4AAE JUMP JUMPDEST JUMPDEST DUP1 PUSH1 0x40 MSTORE POP POP POP JUMP JUMPDEST PUSH1 0x0 PUSH2 0x4983 DUP3 PUSH2 0x4881 JUMP JUMPDEST SWAP2 POP PUSH32 0xFFFFFFFFFFFFFFFFFFFFFFFFFFFFFFFFFFFFFFFFFFFFFFFFFFFFFFFFFFFFFFFF DUP3 EQ ISZERO PUSH2 0x49B6 JUMPI PUSH2 0x49B5 PUSH2 0x49F2 JUMP JUMPDEST JUMPDEST PUSH1 0x1 DUP3 ADD SWAP1 POP SWAP2 SWAP1 POP JUMP JUMPDEST PUSH1 0x0 PUSH2 0x49CC DUP3 PUSH2 0x4881 JUMP JUMPDEST SWAP2 POP PUSH2 0x49D7 DUP4 PUSH2 0x4881 JUMP JUMPDEST SWAP3 POP DUP3 PUSH2 0x49E7 JUMPI PUSH2 0x49E6 PUSH2 0x4A21 JUMP JUMPDEST JUMPDEST DUP3 DUP3 MOD SWAP1 POP SWAP3 SWAP2 POP POP JUMP JUMPDEST PUSH32 0x4E487B7100000000000000000000000000000000000000000000000000000000 PUSH1 0x0 MSTORE PUSH1 0x11 PUSH1 0x4 MSTORE PUSH1 0x24 PUSH1 0x0 REVERT JUMPDEST PUSH32 0x4E487B7100000000000000000000000000000000000000000000000000000000 PUSH1 0x0 MSTORE PUSH1 0x12 PUSH1 0x4 MSTORE PUSH1 0x24 PUSH1 0x0 REVERT JUMPDEST PUSH32 0x4E487B7100000000000000000000000000000000000000000000000000000000 PUSH1 0x0 MSTORE PUSH1 0x22 PUSH1 0x4 MSTORE PUSH1 0x24 PUSH1 0x0 REVERT JUMPDEST PUSH32 0x4E487B7100000000000000000000000000000000000000000000000000000000 PUSH1 0x0 MSTORE PUSH1 0x32 PUSH1 0x4 MSTORE PUSH1 0x24 PUSH1 0x0 REVERT JUMPDEST PUSH32 0x4E487B7100000000000000000000000000000000000000000000000000000000 PUSH1 0x0 MSTORE PUSH1 0x41 PUSH1 0x4 MSTORE PUSH1 0x24 PUSH1 0x0 REVERT JUMPDEST PUSH1 0x0 DUP1 REVERT JUMPDEST PUSH1 0x0 DUP1 REVERT JUMPDEST PUSH1 0x0 DUP1 REVERT JUMPDEST PUSH1 0x0 DUP1 REVERT JUMPDEST PUSH1 0x0 DUP1 REVERT JUMPDEST PUSH1 0x0 DUP1 REVERT JUMPDEST PUSH1 0x0 PUSH1 0x1F NOT PUSH1 0x1F DUP4 ADD AND SWAP1 POP SWAP2 SWAP1 POP JUMP JUMPDEST PUSH32 0x5468697320726563656976657220646964206E6F74207065726D697420796F75 PUSH1 0x0 DUP3 ADD MSTORE PUSH32 0x20746F2069737375652074686973207377617000000000000000000000000000 PUSH1 0x20 DUP3 ADD MSTORE POP JUMP JUMPDEST PUSH32 0x43616E206F6E6C79207570646174656420617373657473206F77656420666F72 PUSH1 0x0 DUP3 ADD MSTORE PUSH32 0x2072656365697665727300000000000000000000000000000000000000000000 PUSH1 0x20 DUP3 ADD MSTORE POP JUMP JUMPDEST PUSH32 0x4E6F7420706179696E6720656E6F75676820746F20696E697469616C697A6520 PUSH1 0x0 DUP3 ADD MSTORE PUSH32 0x7468697320737761700000000000000000000000000000000000000000000000 PUSH1 0x20 DUP3 ADD MSTORE POP JUMP JUMPDEST PUSH32 0x4552433732313A207472616E7366657220746F206E6F6E204552433732315265 PUSH1 0x0 DUP3 ADD MSTORE PUSH32 0x63656976657220696D706C656D656E7465720000000000000000000000000000 PUSH1 0x20 DUP3 ADD MSTORE POP JUMP JUMPDEST PUSH32 0x4F776E61626C653A206E6577206F776E657220697320746865207A65726F2061 PUSH1 0x0 DUP3 ADD MSTORE PUSH32 0x6464726573730000000000000000000000000000000000000000000000000000 PUSH1 0x20 DUP3 ADD MSTORE POP JUMP JUMPDEST PUSH32 0x4552433732313A20746F6B656E20616C7265616479206D696E74656400000000 PUSH1 0x0 DUP3 ADD MSTORE POP JUMP JUMPDEST PUSH32 0x556E737570706F727465642063616C6C6261636B202D20204265666F72652041 PUSH1 0x0 DUP3 ADD MSTORE PUSH32 0x677265656D656E74205465726D696E6174656400000000000000000000000000 PUSH1 0x20 DUP3 ADD MSTORE POP JUMP JUMPDEST PUSH32 0x5265646972656374416C6C3A20737570706F7274206F6E6C79206F6E6520686F PUSH1 0x0 DUP3 ADD MSTORE PUSH32 0x7374000000000000000000000000000000000000000000000000000000000000 PUSH1 0x20 DUP3 ADD MSTORE POP JUMP JUMPDEST PUSH32 0x3078000000000000000000000000000000000000000000000000000000000000 PUSH1 0x0 DUP3 ADD MSTORE POP JUMP JUMPDEST PUSH32 0x4552433732313A207472616E7366657220746F20746865207A65726F20616464 PUSH1 0x0 DUP3 ADD MSTORE PUSH32 0x7265737300000000000000000000000000000000000000000000000000000000 PUSH1 0x20 DUP3 ADD MSTORE POP JUMP JUMPDEST PUSH32 0x4552433732313A20617070726F766520746F2063616C6C657200000000000000 PUSH1 0x0 DUP3 ADD MSTORE POP JUMP JUMPDEST PUSH32 0x4552433732313A206F70657261746F7220717565727920666F72206E6F6E6578 PUSH1 0x0 DUP3 ADD MSTORE PUSH32 0x697374656E7420746F6B656E0000000000000000000000000000000000000000 PUSH1 0x20 DUP3 ADD MSTORE POP JUMP JUMPDEST PUSH32 0x4552433732313A20617070726F76652063616C6C6572206973206E6F74206F77 PUSH1 0x0 DUP3 ADD MSTORE PUSH32 0x6E6572206E6F7220617070726F76656420666F7220616C6C0000000000000000 PUSH1 0x20 DUP3 ADD MSTORE POP JUMP JUMPDEST PUSH32 0x4552433732313A2062616C616E636520717565727920666F7220746865207A65 PUSH1 0x0 DUP3 ADD MSTORE PUSH32 0x726F206164647265737300000000000000000000000000000000000000000000 PUSH1 0x20 DUP3 ADD MSTORE POP JUMP JUMPDEST PUSH32 0x4552433732313A206F776E657220717565727920666F72206E6F6E6578697374 PUSH1 0x0 DUP3 ADD MSTORE PUSH32 0x656E7420746F6B656E0000000000000000000000000000000000000000000000 PUSH1 0x20 DUP3 ADD MSTORE POP JUMP JUMPDEST PUSH32 0x4552433732313A206D696E7420746F20746865207A65726F2061646472657373 PUSH1 0x0 DUP3 ADD MSTORE POP JUMP JUMPDEST PUSH32 0x4552433732313A20617070726F76656420717565727920666F72206E6F6E6578 PUSH1 0x0 DUP3 ADD MSTORE PUSH32 0x697374656E7420746F6B656E0000000000000000000000000000000000000000 PUSH1 0x20 DUP3 ADD MSTORE POP JUMP JUMPDEST PUSH32 0x4F776E61626C653A2063616C6C6572206973206E6F7420746865206F776E6572 PUSH1 0x0 DUP3 ADD MSTORE POP JUMP JUMPDEST PUSH32 0x4552433732313A207472616E73666572206F6620746F6B656E20746861742069 PUSH1 0x0 DUP3 ADD MSTORE PUSH32 0x73206E6F74206F776E0000000000000000000000000000000000000000000000 PUSH1 0x20 DUP3 ADD MSTORE POP JUMP JUMPDEST PUSH32 0x4552433732314D657461646174613A2055524920717565727920666F72206E6F PUSH1 0x0 DUP3 ADD MSTORE PUSH32 0x6E6578697374656E7420746F6B656E0000000000000000000000000000000000 PUSH1 0x20 DUP3 ADD MSTORE POP JUMP JUMPDEST PUSH32 0x41667465722061677265656D656E74207465726D696E617465642E204E657720 PUSH1 0x0 DUP3 ADD MSTORE PUSH32 0x666C6F77206973206C657373207468616E20206F72203D203000000000000000 PUSH1 0x20 DUP3 ADD MSTORE POP JUMP JUMPDEST PUSH32 0x4552433732313A20617070726F76616C20746F2063757272656E74206F776E65 PUSH1 0x0 DUP3 ADD MSTORE PUSH32 0x7200000000000000000000000000000000000000000000000000000000000000 PUSH1 0x20 DUP3 ADD MSTORE POP JUMP JUMPDEST PUSH32 0x556E737570706F727465642063616C6C6261636B202D204265666F7265204167 PUSH1 0x0 DUP3 ADD MSTORE PUSH32 0x7265656D656E7420757064617465640000000000000000000000000000000000 PUSH1 0x20 DUP3 ADD MSTORE POP JUMP JUMPDEST PUSH32 0x556E737570706F727465642063616C6C6261636B202D20416674657220416772 PUSH1 0x0 DUP3 ADD MSTORE PUSH32 0x65656D656E742043726561746564000000000000000000000000000000000000 PUSH1 0x20 DUP3 ADD MSTORE POP JUMP JUMPDEST PUSH32 0x4552433732313A207472616E736665722063616C6C6572206973206E6F74206F PUSH1 0x0 DUP3 ADD MSTORE PUSH32 0x776E6572206E6F7220617070726F766564000000000000000000000000000000 PUSH1 0x20 DUP3 ADD MSTORE POP JUMP JUMPDEST PUSH32 0x556E737570706F727465642063616C6C6261636B202D20416674657220416772 PUSH1 0x0 DUP3 ADD MSTORE PUSH32 0x65656D656E742055706461746564000000000000000000000000000000000000 PUSH1 0x20 DUP3 ADD MSTORE POP JUMP JUMPDEST PUSH32 0x556E737570706F727465642063616C6C6261636B202D204265666F7265204167 PUSH1 0x0 DUP3 ADD MSTORE PUSH32 0x7265656D656E7420437265617465640000000000000000000000000000000000 PUSH1 0x20 DUP3 ADD MSTORE POP JUMP JUMPDEST PUSH2 0x52AC DUP2 PUSH2 0x47E4 JUMP JUMPDEST DUP2 EQ PUSH2 0x52B7 JUMPI PUSH1 0x0 DUP1 REVERT JUMPDEST POP JUMP JUMPDEST PUSH2 0x52C3 DUP2 PUSH2 0x47F6 JUMP JUMPDEST DUP2 EQ PUSH2 0x52CE JUMPI PUSH1 0x0 DUP1 REVERT JUMPDEST POP JUMP JUMPDEST PUSH2 0x52DA DUP2 PUSH2 0x4802 JUMP JUMPDEST DUP2 EQ PUSH2 0x52E5 JUMPI PUSH1 0x0 DUP1 REVERT JUMPDEST POP JUMP JUMPDEST PUSH2 0x52F1 DUP2 PUSH2 0x480C JUMP JUMPDEST DUP2 EQ PUSH2 0x52FC JUMPI PUSH1 0x0 DUP1 REVERT JUMPDEST POP JUMP JUMPDEST PUSH2 0x5308 DUP2 PUSH2 0x4838 JUMP JUMPDEST DUP2 EQ PUSH2 0x5313 JUMPI PUSH1 0x0 DUP1 REVERT JUMPDEST POP JUMP JUMPDEST PUSH2 0x531F DUP2 PUSH2 0x484A JUMP JUMPDEST DUP2 EQ PUSH2 0x532A JUMPI PUSH1 0x0 DUP1 REVERT JUMPDEST POP JUMP JUMPDEST PUSH2 0x5336 DUP2 PUSH2 0x4854 JUMP JUMPDEST DUP2 EQ PUSH2 0x5341 JUMPI PUSH1 0x0 DUP1 REVERT JUMPDEST POP JUMP JUMPDEST PUSH2 0x534D DUP2 PUSH2 0x4881 JUMP JUMPDEST DUP2 EQ PUSH2 0x5358 JUMPI PUSH1 0x0 DUP1 REVERT JUMPDEST POP JUMP INVALID LOG2 PUSH5 0x6970667358 0x22 SLT KECCAK256 0xEB SWAP8 SWAP3 PUSH5 0x2ABD468041 DUP3 SWAP16 JUMP BLOCKHASH RETURNDATASIZE 0xCA PUSH4 0xFB57AC81 SHL 0xB5 0xD9 STATICCALL CALLDATALOAD SWAP9 0xEB 0xDE 0xBC TIMESTAMP PUSH25 0xA764736F6C6343000807003300000000000000000000000000 "
		},
		"gasEstimates": {
			"creation": {
				"codeDepositCost": "4278600",
				"executionCost": "infinite",
				"totalCost": "infinite"
			},
			"external": {
				"_generateFlowId(address,address)": "infinite",
				"afterAgreementCreated(address,address,bytes32,bytes,bytes,bytes)": "infinite",
				"afterAgreementTerminated(address,address,bytes32,bytes,bytes,bytes)": "infinite",
				"afterAgreementUpdated(address,address,bytes32,bytes,bytes,bytes)": "infinite",
				"approve(address,uint256)": "infinite",
				"balanceOf(address)": "2947",
				"beforeAgreementCreated(address,address,bytes32,bytes,bytes)": "infinite",
				"beforeAgreementTerminated(address,address,bytes32,bytes,bytes)": "infinite",
				"beforeAgreementUpdated(address,address,bytes32,bytes,bytes)": "infinite",
				"emergencySettle(bytes32)": "infinite",
				"flowIDToReceiverNFT(bytes32)": "2853",
				"getApproved(uint256)": "5251",
				"index()": "2475",
				"isApprovedForAll(address,address)": "infinite",
				"name()": "infinite",
				"newSwap(address,address,int96,uint256)": "infinite",
				"owner()": "2589",
				"ownerOf(uint256)": "3023",
				"receiverAssetsOwed(uint256)": "infinite",
				"renounceOwnership()": "30464",
				"safeTransferFrom(address,address,uint256)": "infinite",
				"safeTransferFrom(address,address,uint256,bytes)": "infinite",
				"setApprovalForAll(address,bool)": "infinite",
				"supportsInterface(bytes4)": "820",
				"symbol()": "infinite",
				"token()": "2710",
				"tokenURI(uint256)": "3418",
				"transferFrom(address,address,uint256)": "infinite",
				"transferOwnership(address)": "30789"
			},
			"internal": {
				"_changeReceiver(address,address,int96)": "infinite",
				"_isCFAv1(address)": "infinite",
				"_mintPayer(address)": "infinite",
				"_mintReceiver(address,uint256,int96,address)": "infinite",
				"_newFlow(address,int96)": "infinite",
				"_updateReceiverAssetsOwed(uint256,struct Swaps.asset memory)": "infinite"
			}
		},
		"methodIdentifiers": {
			"_generateFlowId(address,address)": "adfd537f",
			"afterAgreementCreated(address,address,bytes32,bytes,bytes,bytes)": "d86ed3e5",
			"afterAgreementTerminated(address,address,bytes32,bytes,bytes,bytes)": "53c11f99",
			"afterAgreementUpdated(address,address,bytes32,bytes,bytes,bytes)": "230dbd29",
			"approve(address,uint256)": "095ea7b3",
			"balanceOf(address)": "70a08231",
			"beforeAgreementCreated(address,address,bytes32,bytes,bytes)": "30d9c915",
			"beforeAgreementTerminated(address,address,bytes32,bytes,bytes)": "5f9e7d77",
			"beforeAgreementUpdated(address,address,bytes32,bytes,bytes)": "884d1f40",
			"emergencySettle(bytes32)": "1991cc22",
			"flowIDToReceiverNFT(bytes32)": "f95d4149",
			"getApproved(uint256)": "081812fc",
			"index()": "2986c0e5",
			"isApprovedForAll(address,address)": "e985e9c5",
			"name()": "06fdde03",
			"newSwap(address,address,int96,uint256)": "57ae14a4",
			"owner()": "8da5cb5b",
			"ownerOf(uint256)": "6352211e",
			"receiverAssetsOwed(uint256)": "2f066600",
			"renounceOwnership()": "715018a6",
			"safeTransferFrom(address,address,uint256)": "42842e0e",
			"safeTransferFrom(address,address,uint256,bytes)": "b88d4fde",
			"setApprovalForAll(address,bool)": "a22cb465",
			"supportsInterface(bytes4)": "01ffc9a7",
			"symbol()": "95d89b41",
			"token()": "fc0c546a",
			"tokenURI(uint256)": "c87b56dd",
			"transferFrom(address,address,uint256)": "23b872dd",
			"transferOwnership(address)": "f2fde38b"
		}
	},
	"abi": [
		{
			"inputs": [
				{
					"internalType": "contract ISuperfluid",
					"name": "host",
					"type": "address"
				},
				{
					"internalType": "contract IConstantFlowAgreementV1",
					"name": "cfa",
					"type": "address"
				},
				{
					"internalType": "address",
					"name": "_token",
					"type": "address"
				}
			],
			"stateMutability": "nonpayable",
			"type": "constructor"
		},
		{
			"anonymous": false,
			"inputs": [
				{
					"indexed": true,
					"internalType": "address",
					"name": "owner",
					"type": "address"
				},
				{
					"indexed": true,
					"internalType": "address",
					"name": "approved",
					"type": "address"
				},
				{
					"indexed": true,
					"internalType": "uint256",
					"name": "tokenId",
					"type": "uint256"
				}
			],
			"name": "Approval",
			"type": "event"
		},
		{
			"anonymous": false,
			"inputs": [
				{
					"indexed": true,
					"internalType": "address",
					"name": "owner",
					"type": "address"
				},
				{
					"indexed": true,
					"internalType": "address",
					"name": "operator",
					"type": "address"
				},
				{
					"indexed": false,
					"internalType": "bool",
					"name": "approved",
					"type": "bool"
				}
			],
			"name": "ApprovalForAll",
			"type": "event"
		},
		{
			"anonymous": false,
			"inputs": [
				{
					"indexed": false,
					"internalType": "bytes32",
					"name": "_id",
					"type": "bytes32"
				},
				{
					"indexed": false,
					"internalType": "int96",
					"name": "_flowTerminated",
					"type": "int96"
				}
			],
			"name": "CaughtTermination",
			"type": "event"
		},
		{
			"anonymous": false,
			"inputs": [
				{
					"indexed": false,
					"internalType": "string",
					"name": "message",
					"type": "string"
				}
			],
			"name": "Error",
			"type": "event"
		},
		{
			"anonymous": false,
			"inputs": [
				{
					"indexed": false,
					"internalType": "address",
					"name": "_receiver",
					"type": "address"
				},
				{
					"indexed": false,
					"internalType": "address",
					"name": "_payer",
					"type": "address"
				}
			],
			"name": "NewSwap",
			"type": "event"
		},
		{
			"anonymous": false,
			"inputs": [
				{
					"indexed": true,
					"internalType": "address",
					"name": "previousOwner",
					"type": "address"
				},
				{
					"indexed": true,
					"internalType": "address",
					"name": "newOwner",
					"type": "address"
				}
			],
			"name": "OwnershipTransferred",
			"type": "event"
		},
		{
			"anonymous": false,
			"inputs": [
				{
					"indexed": true,
					"internalType": "address",
					"name": "from",
					"type": "address"
				},
				{
					"indexed": true,
					"internalType": "address",
					"name": "to",
					"type": "address"
				},
				{
					"indexed": true,
					"internalType": "uint256",
					"name": "tokenId",
					"type": "uint256"
				}
			],
			"name": "Transfer",
			"type": "event"
		},
		{
			"inputs": [
				{
					"internalType": "address",
					"name": "sender",
					"type": "address"
				},
				{
					"internalType": "address",
					"name": "receiver",
					"type": "address"
				}
			],
			"name": "_generateFlowId",
			"outputs": [
				{
					"internalType": "bytes32",
					"name": "id",
					"type": "bytes32"
				}
			],
			"stateMutability": "pure",
			"type": "function"
		},
		{
			"inputs": [
				{
					"internalType": "contract ISuperToken",
					"name": "",
					"type": "address"
				},
				{
					"internalType": "address",
					"name": "",
					"type": "address"
				},
				{
					"internalType": "bytes32",
					"name": "",
					"type": "bytes32"
				},
				{
					"internalType": "bytes",
					"name": "",
					"type": "bytes"
				},
				{
					"internalType": "bytes",
					"name": "",
					"type": "bytes"
				},
				{
					"internalType": "bytes",
					"name": "",
					"type": "bytes"
				}
			],
			"name": "afterAgreementCreated",
			"outputs": [
				{
					"internalType": "bytes",
					"name": "",
					"type": "bytes"
				}
			],
			"stateMutability": "nonpayable",
			"type": "function"
		},
		{
			"inputs": [
				{
					"internalType": "contract ISuperToken",
					"name": "_superToken",
					"type": "address"
				},
				{
					"internalType": "address",
					"name": "_agreementClass",
					"type": "address"
				},
				{
					"internalType": "bytes32",
					"name": "_agreementId",
					"type": "bytes32"
				},
				{
					"internalType": "bytes",
					"name": "",
					"type": "bytes"
				},
				{
					"internalType": "bytes",
					"name": "",
					"type": "bytes"
				},
				{
					"internalType": "bytes",
					"name": "_ctx",
					"type": "bytes"
				}
			],
			"name": "afterAgreementTerminated",
			"outputs": [
				{
					"internalType": "bytes",
					"name": "newCtx",
					"type": "bytes"
				}
			],
			"stateMutability": "nonpayable",
			"type": "function"
		},
		{
			"inputs": [
				{
					"internalType": "contract ISuperToken",
					"name": "",
					"type": "address"
				},
				{
					"internalType": "address",
					"name": "",
					"type": "address"
				},
				{
					"internalType": "bytes32",
					"name": "",
					"type": "bytes32"
				},
				{
					"internalType": "bytes",
					"name": "",
					"type": "bytes"
				},
				{
					"internalType": "bytes",
					"name": "",
					"type": "bytes"
				},
				{
					"internalType": "bytes",
					"name": "",
					"type": "bytes"
				}
			],
			"name": "afterAgreementUpdated",
			"outputs": [
				{
					"internalType": "bytes",
					"name": "",
					"type": "bytes"
				}
			],
			"stateMutability": "nonpayable",
			"type": "function"
		},
		{
			"inputs": [
				{
					"internalType": "address",
					"name": "to",
					"type": "address"
				},
				{
					"internalType": "uint256",
					"name": "tokenId",
					"type": "uint256"
				}
			],
			"name": "approve",
			"outputs": [],
			"stateMutability": "nonpayable",
			"type": "function"
		},
		{
			"inputs": [
				{
					"internalType": "address",
					"name": "owner",
					"type": "address"
				}
			],
			"name": "balanceOf",
			"outputs": [
				{
					"internalType": "uint256",
					"name": "",
					"type": "uint256"
				}
			],
			"stateMutability": "view",
			"type": "function"
		},
		{
			"inputs": [
				{
					"internalType": "contract ISuperToken",
					"name": "",
					"type": "address"
				},
				{
					"internalType": "address",
					"name": "",
					"type": "address"
				},
				{
					"internalType": "bytes32",
					"name": "",
					"type": "bytes32"
				},
				{
					"internalType": "bytes",
					"name": "",
					"type": "bytes"
				},
				{
					"internalType": "bytes",
					"name": "",
					"type": "bytes"
				}
			],
			"name": "beforeAgreementCreated",
			"outputs": [
				{
					"internalType": "bytes",
					"name": "",
					"type": "bytes"
				}
			],
			"stateMutability": "view",
			"type": "function"
		},
		{
			"inputs": [
				{
					"internalType": "contract ISuperToken",
					"name": "",
					"type": "address"
				},
				{
					"internalType": "address",
					"name": "",
					"type": "address"
				},
				{
					"internalType": "bytes32",
					"name": "",
					"type": "bytes32"
				},
				{
					"internalType": "bytes",
					"name": "",
					"type": "bytes"
				},
				{
					"internalType": "bytes",
					"name": "",
					"type": "bytes"
				}
			],
			"name": "beforeAgreementTerminated",
			"outputs": [
				{
					"internalType": "bytes",
					"name": "",
					"type": "bytes"
				}
			],
			"stateMutability": "view",
			"type": "function"
		},
		{
			"inputs": [
				{
					"internalType": "contract ISuperToken",
					"name": "",
					"type": "address"
				},
				{
					"internalType": "address",
					"name": "",
					"type": "address"
				},
				{
					"internalType": "bytes32",
					"name": "",
					"type": "bytes32"
				},
				{
					"internalType": "bytes",
					"name": "",
					"type": "bytes"
				},
				{
					"internalType": "bytes",
					"name": "",
					"type": "bytes"
				}
			],
			"name": "beforeAgreementUpdated",
			"outputs": [
				{
					"internalType": "bytes",
					"name": "",
					"type": "bytes"
				}
			],
			"stateMutability": "view",
			"type": "function"
		},
		{
			"inputs": [
				{
					"internalType": "bytes32",
					"name": "_agreementId",
					"type": "bytes32"
				}
			],
			"name": "emergencySettle",
			"outputs": [],
			"stateMutability": "nonpayable",
			"type": "function"
		},
		{
			"inputs": [
				{
					"internalType": "bytes32",
					"name": "",
					"type": "bytes32"
				}
			],
			"name": "flowIDToReceiverNFT",
			"outputs": [
				{
					"internalType": "uint256",
					"name": "",
					"type": "uint256"
				}
			],
			"stateMutability": "view",
			"type": "function"
		},
		{
			"inputs": [
				{
					"internalType": "uint256",
					"name": "tokenId",
					"type": "uint256"
				}
			],
			"name": "getApproved",
			"outputs": [
				{
					"internalType": "address",
					"name": "",
					"type": "address"
				}
			],
			"stateMutability": "view",
			"type": "function"
		},
		{
			"inputs": [],
			"name": "index",
			"outputs": [
				{
					"internalType": "uint256",
					"name": "",
					"type": "uint256"
				}
			],
			"stateMutability": "view",
			"type": "function"
		},
		{
			"inputs": [
				{
					"internalType": "address",
					"name": "owner",
					"type": "address"
				},
				{
					"internalType": "address",
					"name": "operator",
					"type": "address"
				}
			],
			"name": "isApprovedForAll",
			"outputs": [
				{
					"internalType": "bool",
					"name": "",
					"type": "bool"
				}
			],
			"stateMutability": "view",
			"type": "function"
		},
		{
			"inputs": [],
			"name": "name",
			"outputs": [
				{
					"internalType": "string",
					"name": "",
					"type": "string"
				}
			],
			"stateMutability": "view",
			"type": "function"
		},
		{
			"inputs": [
				{
					"internalType": "address",
					"name": "_receiver",
					"type": "address"
				},
				{
					"internalType": "address",
					"name": "_payer",
					"type": "address"
				},
				{
					"internalType": "int96",
					"name": "_requiredFlowRate",
					"type": "int96"
				},
				{
					"internalType": "uint256",
					"name": "_amountUnderlying",
					"type": "uint256"
				}
			],
			"name": "newSwap",
			"outputs": [],
			"stateMutability": "nonpayable",
			"type": "function"
		},
		{
			"inputs": [],
			"name": "owner",
			"outputs": [
				{
					"internalType": "address",
					"name": "",
					"type": "address"
				}
			],
			"stateMutability": "view",
			"type": "function"
		},
		{
			"inputs": [
				{
					"internalType": "uint256",
					"name": "tokenId",
					"type": "uint256"
				}
			],
			"name": "ownerOf",
			"outputs": [
				{
					"internalType": "address",
					"name": "",
					"type": "address"
				}
			],
			"stateMutability": "view",
			"type": "function"
		},
		{
			"inputs": [
				{
					"internalType": "uint256",
					"name": "",
					"type": "uint256"
				}
			],
			"name": "receiverAssetsOwed",
			"outputs": [
				{
					"internalType": "int96",
					"name": "flowRateForAssets",
					"type": "int96"
				},
				{
					"internalType": "uint256",
					"name": "amountUnderlyingExposed",
					"type": "uint256"
				},
				{
					"internalType": "int256",
					"name": "priceUSD",
					"type": "int256"
				},
				{
					"internalType": "address",
					"name": "oracle",
					"type": "address"
				}
			],
			"stateMutability": "view",
			"type": "function"
		},
		{
			"inputs": [],
			"name": "renounceOwnership",
			"outputs": [],
			"stateMutability": "nonpayable",
			"type": "function"
		},
		{
			"inputs": [
				{
					"internalType": "address",
					"name": "from",
					"type": "address"
				},
				{
					"internalType": "address",
					"name": "to",
					"type": "address"
				},
				{
					"internalType": "uint256",
					"name": "tokenId",
					"type": "uint256"
				}
			],
			"name": "safeTransferFrom",
			"outputs": [],
			"stateMutability": "nonpayable",
			"type": "function"
		},
		{
			"inputs": [
				{
					"internalType": "address",
					"name": "from",
					"type": "address"
				},
				{
					"internalType": "address",
					"name": "to",
					"type": "address"
				},
				{
					"internalType": "uint256",
					"name": "tokenId",
					"type": "uint256"
				},
				{
					"internalType": "bytes",
					"name": "_data",
					"type": "bytes"
				}
			],
			"name": "safeTransferFrom",
			"outputs": [],
			"stateMutability": "nonpayable",
			"type": "function"
		},
		{
			"inputs": [
				{
					"internalType": "address",
					"name": "operator",
					"type": "address"
				},
				{
					"internalType": "bool",
					"name": "approved",
					"type": "bool"
				}
			],
			"name": "setApprovalForAll",
			"outputs": [],
			"stateMutability": "nonpayable",
			"type": "function"
		},
		{
			"inputs": [
				{
					"internalType": "bytes4",
					"name": "interfaceId",
					"type": "bytes4"
				}
			],
			"name": "supportsInterface",
			"outputs": [
				{
					"internalType": "bool",
					"name": "",
					"type": "bool"
				}
			],
			"stateMutability": "view",
			"type": "function"
		},
		{
			"inputs": [],
			"name": "symbol",
			"outputs": [
				{
					"internalType": "string",
					"name": "",
					"type": "string"
				}
			],
			"stateMutability": "view",
			"type": "function"
		},
		{
			"inputs": [],
			"name": "token",
			"outputs": [
				{
					"internalType": "contract ISuperToken",
					"name": "",
					"type": "address"
				}
			],
			"stateMutability": "view",
			"type": "function"
		},
		{
			"inputs": [
				{
					"internalType": "uint256",
					"name": "tokenId",
					"type": "uint256"
				}
			],
			"name": "tokenURI",
			"outputs": [
				{
					"internalType": "string",
					"name": "",
					"type": "string"
				}
			],
			"stateMutability": "view",
			"type": "function"
		},
		{
			"inputs": [
				{
					"internalType": "address",
					"name": "from",
					"type": "address"
				},
				{
					"internalType": "address",
					"name": "to",
					"type": "address"
				},
				{
					"internalType": "uint256",
					"name": "tokenId",
					"type": "uint256"
				}
			],
			"name": "transferFrom",
			"outputs": [],
			"stateMutability": "nonpayable",
			"type": "function"
		},
		{
			"inputs": [
				{
					"internalType": "address",
					"name": "newOwner",
					"type": "address"
				}
			],
			"name": "transferOwnership",
			"outputs": [],
			"stateMutability": "nonpayable",
			"type": "function"
		}
	]
}